S02600006275696C642F64656275672F77656265725F373230735F76322F6D61696E2E737265632E
S214010100007000206D050100AD050100AD05010080
S214010110AD050100AD050100AD05010000000000C0
S214010120000000000000000000000000AD05010016
S214010130AD05010000000000AD05010025C201006B
S214010140AD050100AD050100AD050100AD050100DD
S214010150AD050100AD050100AD050100AD050100CD
S214010160AD050100AD050100AD050100AD050100BD
S214010170AD050100AD050100AD050100AD050100AD
S214010180AD050100AD050100AD050100AD0501009D
S214010190AD050100AD050100AD050100AD0501008D
S2140101A0AD050100AD050100AD050100AD0501007D
S2140101B0AD050100AD050100AD050100AD0501006D
S2140101C0AD050100AD050100AD050100AD0501005D
S2140101D0AD050100AD050100AD050100AD0501004D
S2140101E0AD050100AD050100AD050100AD0501003D
S2140101F0AD050100AD050100AD050100AD0501002D
S214010200AD050100AD050100AD050100AD0501001C
S214010210AD050100AD050100AD050100AD0501000C
S214010220AD050100AD050100AD050100AD050100FC
S214010230AD050100AD050100AD050100AD050100EC
S214010240AD050100AD050100AD050100AD050100DC
S214010250AD050100AD050100AD050100AD050100CC
S214010260AD050100AD050100AD050100AD050100BC
S214010270AD050100AD050100AD050100AD050100AC
S214010280AD050100AD050100AD050100AD0501009C
S214010290AD050100AD050100AD050100AD0501008C
S2140102A0AD050100AD050100AD050100AD0501007C
S2140102B0AD050100AD050100AD050100AD0501006C
S2140102C0AD050100AD050100AD050100E1A201008B
S2140102D069A30100F1A3010079A40100AD050100A5
S2140102E0AD05010001A5010089A5010011A60100C7
S2140102F099A60100AD050100AD05010021A7010089
S214010300A9A7010031A80100B9A80100AD050100A7
S214010310AD05010041A90100C9A9010051AA0100CA
S214010320D9AA0100AD050100AD050100AD0501002A
S214010330AD050100AD050100AD050100AD050100EB
S214010340AD050100AD050100AD050100AD050100DB
S214010350AD050100AD050100AD050100AD050100CB
S214010360AD050100AD050100AD050100AD050100BB
S214010370AD050100AD050100AD050100AD050100AB
S214010380AD050100AD050100AD050100AD0501009B
S214010390AD050100AD050100AD050100AD0501008B
S2140103A0AD050100AD050100AD050100AD0501007B
S2140103B0AD050100AD050100AD050100AD0501006B
S2140103C0AD050100AD050100AD050100AD0501005B
S2140103D0AD050100AD050100AD050100AD0501004B
S2140103E0AD050100AD050100AD050100AD0501003B
S2140103F0AD050100AD050100AD050100AD0501002B
S214010400AD050100AD050100AD050100AD0501001A
S214010410AD050100AD050100AD050100AD0501000A
S214010420AD050100AD050100AD050100AD050100FA
S214010430AD050100AD050100AD050100AD050100EA
S214010440AD050100AD050100AD050100AD050100DA
S214010450AD050100AD050100AD050100AD050100CA
S214010460AD050100AD050100AD050100AD050100BA
S214010470AD050100AD050100AD050100AD050100AA
S214010480AD050100AD050100AD050100AD0501009A
S214010490AD050100AD050100AD050100AD0501008A
S2140104A0AD050100AD050100AD050100AD0501007A
S2140104B0AD050100AD050100AD050100AD0501006A
S2140104C0AD050100AD050100AD050100AD0501005A
S2140104D0AD050100AD050100AD050100AD0501004A
S2140104E0AD050100AD050100AD050100AD0501003A
S2140104F0AD050100AD050100AD050100FFFFFFFFE1
S214010500FFFFFFFFFFFFFFFFFFFFFFFFFE7FFFFF76
S21401051010B5054C237833B9044B13B10448AFF337
S21401052000800123237010BD0000002000000000A1
S21401053018420200084B10B51BB108480849AFF332
S21401054000800848036803B910BD074B002BFBD099
S214010550BDE81040184700BF000000001842020026
S21401056004000020ACD6FF1F0000000072B60B4945
S2140105700A4A0A4B094C094D084E084FB846B94677
S214010580BA46BB46BC4606488546064880470648E6
S214010590804762B606F046FCFEE700000000000059
S2140105A000700020B93D01001D3E0100FFF7FEBFAF
S2140105B000280CDD07EE900AFAEEE07AF1EEE77A13
S2140105C0F0EE677AFEEEE07A17EE900A70470020AA
S2140105D0704700BF00280DDD07EE900AFAEE607A3C
S2140105E0F1EEE77AF0EE677AFEEEE07A17EE900A21
S2140105F00014704700207047B1EEC00A704700BF74
S2140106004FEA410212F5001215D211D56FF4787334
S214010610B3EB625212D94FEAC12343F0004343EAD7
S214010620505311F0004F23FA02F018BF40427047B2
S2140106304FF00000704750EA013005D111F000403C
S21401064008BF6FF0004070474FF00000704700BFD2
S2140106504A0011D212F5001211D20DD56FF478733B
S214010660B3EB62520ED44FEAC12343F0004343EA90
S214010670505323FA02F070474FF00000704750EADB
S214010680013002D14FF0FF3070474FF00000704745
S21401069053B94AB9002908BF00281CBF4FF0FF31E3
S2140106A04FF0FF3000F03CB882B0EC462DE9005028
S2140106B000F01EF8DDF804E002B00CBC704700BF85
S2140106C02DE9F041069C154606460F46984600F071
S2140106D029F805FB01F300FB0838A5FB0023B21A35
S2140106E0434467EB0303C4E90023BDE8F08100BF80
S2140106F02DE9F041069C904606460F461D4600F041
S2140107005FF900FB05F5A0FB082308FB0155B21AAB
S2140107102B4467EB0303C4E90023BDE8F08100BF67
S214010720704700BF00292DE9F043C0F2A6800026DD
S214010730002BC0F29C80884694469E461546044689
S2140107400F46002B3DD18A4259D9B2FA82F33BB10A
S214010750C3F120029F4020FA02F29D4017439C40BD
S214010760290C220CB7FBF1FEA8B201FB1E7742EA68
S214010770074700FB0EF3BB420AD97F190EF1FF3281
S21401078080F00581BB4240F20281AEF1020E2F4499
S214010790FF1AA4B2B7FBF1F301FB137744EA07474C
S2140107A000FB03F0B84208D97F1903F1FF3280F04D
S2140107B0F080B84240F2ED80023B43EA0E4300224D
S2140107C003E08B420FD900221346341C18BF0124C4
S2140107D060424FF0000565EB450158405140001955
S2140107E06941BDE8F083B3FA83F2002A40F08680BF
S2140107F08B4202D3844500F2DB800123E5E712B980
S2140108000123B3FBF2F5B5FA85F000283BD1781B3E
S2140108104FEA154E1FFA85FC0122B0FBFEF8210CAB
S2140108200EFB180741EA07470CFB08F3BB4207D942
S2140108307F1908F1FF3102D2BB4200F2BD80884623
S214010840FF1AA4B2B7FBFEF30EFB137744EA074781
S2140108500CFB03FCBC4507D97F1903F1FF3102D21B
S214010860BC4500F2A7800B4643EA0843ADE7524277
S2140108706FEA060663EB43035DE7404261EB410125
S2140108804FF0FF3654E7C0F1200224FA02F107FACE
S21401089000F385404FEA154ED7401943B7FBFEF2E9
S2140108A00B0C0EFB12771FFA85FC43EA07430CFB81
S2140108B002F79F4204FA00F407D95B1902F1FF30F0
S2140108C074D29F4272D9023A2B44DF1B89B2B7FB1E
S2140108D0FEF80EFB187341EA03430CFB08F79F4230
S2140108E008D95B1908F1FF315CD29F425AD9A8F1A9
S2140108F002082B44D81B48EA02428EE7C2F12003C5
S2140109002CFA03F10EFA02FE20FA03F741EA0E0E64
S21401091008FA02F028FA03F14FEA1E453843B1FB04
S214010920F5F8030C05FB18111FFA8EF743EA01418F
S21401093007FB08F38B420CFA02FC09D911EB0E01F6
S21401094008F1FF3930D28B422ED9A8F10208714442
S214010950C91A80B2B1FBF5F305FB131140EA014158
S21401096007FB03F78F4208D911EB0E0103F1FF30A5
S21401097016D28F4214D9023B714443EA0843C91B7D
S214010980A3FB0C89494509D305D000221DE79646ED
S214010990FEE6134611E794404445F6D2013BF4E7E0
S2140109A00346EAE78846A5E7C846D1E702468CE74C
S2140109B013460AE7023B57E7A8F102082F443FE730
S2140109C02DE9F041002B44D18A42154604464FD901
S2140109D0B2FA82F70E464FB1C7F12003B94020FAAA
S2140109E003F602FA07F50E4300FA07F44FEA154E2E
S2140109F0230CB6FBFEF0AFB20EFB106143EA0143D7
S214010A0007FB00F1994209D95B1900F1FF3280F02A
S214010A10EC80994240F2E98002382B445A1AA4B27B
S214010A20B2FBFEF30EFB132244EA024207FB03F776
S214010A30974208D9521903F1FF3180F0D8809742C6
S214010A4040F2D580023B43EA004000263146BDE82D
S214010A50F0818B4247D8B3FA83F6002E48D18B42F9
S214010A6002D3824200F2CD8001203146BDE8F081FA
S214010A7012B90125B5FBF2F5B5FA85F8B8F1000F04
S214010A8077D14A1B4FEA154EAFB20126B2FBFEF0F4
S214010A90230C0EFB102143EA014107FB00F38B42B6
S214010AA007D9491900F1FF3202D28B4200F2BA800F
S214010AB01046C91AA4B2B1FBFEF30EFB131144EAA9
S214010AC0014407FB03F7A74208D9641903F1FF3273
S214010AD080F08F80A74240F28C80023B43EA0040C0
S214010AE03146BDE8F081002630463146BDE8F0814A
S214010AF0C6F1200422FA04F5B3402B4320FA04FC85
S214010B0001FA06F721FA04F54FEA134E4CEA0707F5
S214010B10B5FBFEF8390C0EFB18551FFA83FC41EAAB
S214010B2005450CFB08F1A94202FA06F204D9ED18B4
S214010B3008F1FF3467D3A0466D1ABFB2B5FBFEF4C9
S214010B400EFB145547EA05410CFB04FC8C4504D901
S214010B50C91804F1FF355CD32C4644EA0844CCEBB3
S214010B600101A4FB0223994248D344D02046002623
S214010B706CE7C8F1200401FA08F305FA08F520FA33
S214010B8004F7E1404FEA154E1F43B1FBFEF63A0C5F
S214010B900EFB16111FFA85FC42EA01430CFB06F216
S214010BA09A4200FA08F407D95B1906F1FF3137D2E9
S214010BB09A4235D9023E2B449B1ABFB2B3FBFEF0D4
S214010BC00EFB103347EA03430CFB00F1994207D9A9
S214010BD05B1900F1FF3221D299421FD902382B440A
S214010BE05A1A40EA0646674650E7104616E70B468D
S214010BF029E7134672E7B0409042B7D2601E00263E
S214010C0024E7304622E7A94295D9A8F102081D44F7
S214010C1092E78C45A0D9023C19449EE71046DFE7CF
S214010C200E46C9E70238294443E700BF10F8012BF6
S214010C3011F8013B012A28BF9A42F7D0D01A704713
S214010C40DFED117ADFED115A9FED116ADFED116AC2
S214010C5037EEC00AB4EEE70AF1EE10FAC4BFDFEDD4
S214010C600E7A37EEC00A60EE007A27EE807AA7EE9B
S214010C70650A27EE277AA7EE060A67EEC77AA7EE79
S214010C80A60A80ED000A7047DB0FC93FABAA2A3ED1
S214010C908988083C000D5039DB0F4940DFED167A94
S214010CA0B4EEE70AF1EE10FA21DCDFED147AB4EEC9
S214010CB0E70AF1EE10FA44BFDFED117A37EEC00A0B
S214010CC060EE007ADFED0F5A9FED0F6ADFED0F6AD7
S214010CD027EE807AA7EE650A27EE277AA7EE060AA0
S214010CE067EEC77AA7EEA60A80ED000A7047DFED29
S214010CF0087A37EEC00AE3E7DB0FC93FDB0FC9BF4F
S214010D00DB0F49C0ABAA2A3E8988083C000D503942
S214010D10DB0F4940D0ED007A30EE670A70B40598D3
S214010D20039D049E0468B5EEC00AF1EE10FA1FDDBD
S214010D3090ED017AD4ED037AB4EEE77AF1EE10FA8B
S214010D4018DBB1F90010DFED356AF1B9D4ED025ABE
S214010D5094ED016A90ED027A66EEA56AA6EE867AB1
S214010D60B4EEE77AF1EE10FA16DDC0ED027A1EE077
S214010D70D4ED037AB5EEC00AF1EE10FA3FD4F0EEE8
S214010D80406AB1F900100029E0D092ED007AB4EE85
S214010D90E77AF1EE10FAE8DCD4ED047AB4EEE77AFD
S214010DA0F1EE10FAE1D4F0EE477A80ED027AC6ED64
S214010DB0007AD4ED007A20EE270A85ED000A90ED40
S214010DC0027AD4ED037A30EE070AB4EEE70AF1EEC2
S214010DD010FA0EDCD4ED047AB4EEE70AF1EE10FA5E
S214010DE007D4F0EE407A80ED010A70BCC3ED007ABC
S214010DF07047C0ED017A70BCC3ED007A704790ED84
S214010E00016A94ED047ADFED056AB4EEC76AF1EE85
S214010E1010FA88BFF0EE406AB3E700BF000000009A
S214010E20426830B4158884688D4236D20378013B17
S214010E30DBB232F8130088422DD95088814202F184
S214010E40040201D808E01A461346043433F8020BAC
S214010E508142F8D832F8025C94ED006AD4ED017A4A
S214010E60B4EEE76A491B401BF1EE10FA89B280B274
S214010E7017D837EEC60A07EE901AF8EE676A07EE3D
S214010E80900A20EE260AB8EE677A30BC80EE077A22
S214010E9037EE060A704704EB830494ED000A30BC73
S214010EA0704736EE670A07EE901AF8EE676A07EEA5
S214010EB0900A20EE260AF8EE677A30BCC0EE277A52
S214010EC036EE670A704700BF70B444688568D4ED93
S214010ED0007AF4EEC07AF1EE10FA42DA00780138C0
S214010EE0C0B281006318D3ED007AB4EEE70AF1EEE2
S214010EF010FA31DA002183B25A18C2F34F0204EB1A
S214010F008206D6ED007AB4EEE70AF1EE10FA48BF93
S214010F10134603F1FF33D2B21BB254BF114610463B
S214010F209942E8DB09B289000C44294494ED006A31
S214010F30D1ED007A91ED017AD4ED016A37EE677A48
S214010F4030EE460A76EEC66A27EE000A70BC80EEE0
S214010F50260A37EE800A7047294491ED000A70BCD4
S214010F60704795ED000A70BC704700BF30B4426808
S214010F70017892ED007AD2ED017A8468C3684578EB
S214010F800139C9B2B4EE407A02EB8101F1EE10FAF2
S214010F9091ED006AF0EE406AC8BFF0EE476AF4EEE3
S214010FA0466AF1EE10FAC8BFF0EE466AF4EEE76A5A
S214010FB0F1EE10FA02F1080070DD002200E00846AA
S214010FC00146F1EC017AF4EEE76A0132F1EE10FA2D
S214010FD0D2B2F4DC02FB05F250ED015A920094ED18
S214010FE0006A94ED017A691EC9B2B4EE606A04EB38
S214010FF08101F1EE10FA91ED005AC8BFF0EE460AF3
S214011000F4EE450AF1EE10FAC8BFF0EE450AF4EE2A
S214011010C70AF1EE10FA134404F1080101DC0CE0F2
S21401102011460A46B2EC017AF4EEC70AF1EE10FA5E
S21401103003F10403F4DC11ED016A70EEC60A37EE23
S214011040467A03EB850580EE877A95ED006AB5EE64
S214011050407AF1EE10FA12D193ED000A77EEE57AB6
S214011060F5EE407AF1EE10FA07D076EEE56A36EE46
S214011070406AC6EEA77AA6EE270A30BC704793ED03
S214011080000AD5ED014A93ED015A74EEC64A35EED3
S214011090405AA4EE876AA5EE070ADFE7F0EE475A44
S2140110A000229CE7DFED257A24EE274AB5EE404A7A
S2140110B0F1EE10FA14D0C3EE843A81EE041A81EEF2
S2140110C0844AE3EE830A21EE031A22EEC44AE1EED5
S2140110D0020AA4EE030AC1ED000A80ED000A704779
S2140110E0DFED177A9FED177AF5EEC03AF1EE10FABA
S2140110F0B5EEC01A54BFF0EE476AF0EE676AF1EE3D
S21401110010FAF5EEC01AE3EE260A54BFF0EE476A6F
S214011110F0EE676AF1EE10FA54BFB0EE474AB0EE51
S214011120674A63EE266A22EEC44AE6EE820AA4EE17
S214011130030AC1ED000A80ED000A70473ACD133F5D
S214011140FFFF7FFFFFFF7F7FB5EE401AF1EE10FA3B
S21401115060EE820A0ED020EE020AC0EE810A80EE10
S214011160011A60EEA10A61EE211AC1ED000AC0ED76
S214011170001A704720EE020AF5EEC00ADFED0D7A7E
S2140111809FED0D1AF1EE10FAB5EEC00A54BFB0EE9F
S214011190417AB0EE677AF1EE10FA48BFB0EE671A00
S2140111A027EE217A61EE211A81ED007AC0ED001A50
S2140111B0704700BFFFFF7FFFFFFF7F7F2DE9F04EE7
S2140111C082B089460E9D0C9F95F84FE00D9C0EF05F
S2140111D00F0E0EF1FF3E92469B46BEF1070F00F240
S2140111E00D82DFE81EF0460150015501080002019C
S2140111F00E011F01300195F84E3023700628C8BF36
S214011200062040F331812B68DFEDDC6A33F91030BC
S2140112109FEDDB7A07EE903AF8EEE77A77EEA67A5C
S214011220F4EEC77AF1EE10FA40F3868177EEC77ACC
S2140112309FEDD47AB5F84C2077EEC77A11B2FDEE61
S214011240E77ACDED017ABDF8044026B2B14200F04E
S214011250B381A21A8E4292B240F32C8110B2592861
S21401126000F3288105F10800291D14220EF0B5FCB3
S2140112709FEDC56ADFEDC57A95ED0F7A95ED024AC9
S21401128085ED017AF0EE463AE7EE273AD5ED034AC8
S21401129095ED045AD5ED055AD5ED066AB0EE637A9A
S2140112A0A4EE277AA4EEA77AA5EE277AA5EEA77A6A
S2140112B0A6EEA77AB4EE467AF1EE10FA00F0978120
S2140112C0C7EE877A9FEDB27ADFEDB26AC5ED107A86
S2140112D027EE877A67EE266A0021AF4AE96307EEB2
S2140112E0906A0B9B9FEDAD6AA5F84C40F8EEE77A45
S2140112F087ED007A27EE866AC5ED0E6AC3ED006AB1
S2140113000A9B83ED006AD5ED115AD2ED006A95ED80
S214011310127A9FED9B6AA5EEA67AB4EEC67AF1EE36
S21401132010FA40F31D8137EE467A9FED966A77EE06
S214011330867A77EEC77AF4EEC67AF1EE10FA40F3C3
S21401134003819FED8F6A77EEC67AF5EE406AF1EE7D
S21401135010FA14BFDFED924ADFED924A9FED926AD2
S2140113609FED8B5A9FED8B3ADFED903A9FED904AB9
S21401137018BFC4EEA64ADFED826AE7EEA45AA7EECE
S214011380867A85EEA66AC5ED115A66EE055A26EEF0
S214011390036ACBED005A66EE237A95ED0D6AE6EE0A
S2140113A0047AB4EEE67AF1EE10FAC5ED0D7ACAEDDE
S2140113B0007A00F3DD80B5EEC07AF1EE10FA4BBF8D
S2140113C077EE266AF0EE476AC5ED126A85ED127A67
S2140113D09FED6C7ADFED717A76EEC76A66EEA76AE4
S2140113E0C9ED006A02B0BDE8F08E431E052B3FF63C
S2140113F002AFDFE813F02F01240119011D0054008C
S2140114000E0105284BD0062839D0012821D095F8A1
S2140114104F20042363F30302012385F84F2085F848
S2140114204E30EAE605282AD0062812D00428EED146
S21401143095F84F30082262F30303002285F84F30F7
S21401144085F84E200EE0042819D0052827D0032859
S214011450DDD195F84F30002260F3030385F84F3055
S21401146085F84E20002323700028ACBFC0B20020B0
S214011470C9E60228EDD00628EBD00128C7D1002303
S21401148085F84E30EEE70228F9D00328BDD1E0E713
S2140114900328F4D00428CBD00228B8D1D9E795F890
S2140114A04F30072262F30303002285F84F3085F898
S2140114B04E20D7E78E4203DA12B2C832FFF6D2AE1A
S2140114C005F1200005F11C0114220EF086FB9FEDAC
S2140114D02F7AD5ED0F6ADFED2C7A95ED084AD5ED1A
S2140114E0094A95ED0A5AD5ED0B5A95ED0C6AC5EDEC
S2140114F0076AE6EE877AE4EE077AE4EE877AE5EEA7
S214011500077AE5EE877AE6EE077AF5EE407AF1EEAF
S21401151010FA65D0C7EE277A9FED1D7ADFED1D6ABA
S214011520F1EE677A27EE877A67EE266A00211A4A75
S214011530C5ED107AE963D2E6F5EEC07AF1EE10FA5F
S21401154048BF77EE877A73E69FED1A6AF4EEC67A9D
S214011550F1EE10FA44BF9FED0A6A77EE867AF4E65A
S214011560B5EEC07AF1EE10FA48BF37EE067ADCE641
S21401157077EE666AC5ED126A2AE700BF00001043DF
S2140115800000B4430000344300000000ABAA2A3E2A
S214011590DB0FC9400000704270C8FF1F35FA8E3C51
S2140115A0ACC5A736FFFF7F7FA913503C6F12833A65
S2140115B077BE7F3F000034C32C4A95ED0F6AD2ED0B
S2140115C0005AD5ED107A9FED2A7ADFED2A6A36EEBB
S2140115D0256A27EE877A85ED0F6A67EE266A7EE62C
S2140115E0DFED256AB0EE667AF0EE667A9EE7F0EEFB
S2140115F0466AB0EE467A85ED106A6DE695F84F209C
S214011600052363F30302002385F84F2085F84E3047
S214011610F3E595F84F30062262F30303002285F8BE
S2140116204F3085F84E201DE795F84F30032262F3C0
S2140116300303002285F84F3085F84E2012E795F80F
S2140116404F30022262F30303002285F84F3085F8FB
S2140116504E2007E795F84F30012262F3030300227C
S21401166085F84F3085F84E20FCE600BF70C8FF1F96
S214011670DB0FC9400000704200000080D2ED007A06
S21401168091ED007ADFED056A009A77EE677A67EEEC
S214011690A67AC2ED007A02681A6070473ACD133F07
S2140116A09FED917AD0ED007AD1ED006A009967EE50
S2140116B0877ABEEE007AF1EE675AB0EE656AA6EE5C
S2140116C0876AB0EE675AA6EE875AB5EEC06AF1EEA3
S2140116D010FAB0EE457A7FD940F29E8040F2A180A2
S2140116E0B5EEC06AF1EE10FA32DDB5EEC07AF1EE73
S2140116F010FA2FDDB6EE007AE6EE877AE6EE875A26
S214011700B7EE006A77EEA56A76EE866A26EE876AF7
S21401171076EE655A75EEE77AB7EE007AF4EEC77A9A
S214011720F1EE10FA4FDD81ED007AF7EE007AB4EEB5
S214011730E76AF1EE10FA28DDC3ED007AF7EE007ADB
S214011740F4EEE75AF1EE10FA31DDC2ED007A704799
S21401175040F38680B5EEC07AF1EE10FA40F2828050
S214011760B5EEC07AF1EE10FA40F28180DFED5F7AD5
S214011770B0EE676AF0EE675AC1ED007AF7EE007ACE
S214011780B4EEE76AF1EE10FAD6DCB5EEC06ADFED2C
S214011790577AF1EE10FA48BFB0EE676AF7EE007AB4
S2140117A0F4EEE75AF1EE10FA83ED006ACDDCF5EEC1
S2140117B0C05A9FED4E7AF1EE10FA48BFF0EE475A46
S2140117C0C2ED005A7047F5EEC07AF1EE10FA4FF00E
S2140117D00000D1D50860A8E7B5EEC05AF1EE10FAC0
S2140117E01ADDF5EEC06AF1EE10FA57D9F5EEC06AC9
S2140117F0F1EE10FA15DDB6EE006AE6EE865AF7EE61
S214011800007A35EEE67A77EE277A67EE867A36EE56
S214011810A76A76EE655A7FE7B5EEC07AF1EE10FA62
S214011820E4DCB5EEC07AF1EE10FA3FF659AFB6EE4B
S214011830005AE6EE857AB0EE656AA6EE856AF1EEA6
S214011840676A76EEC66AB0EE677AF7EE007A76EEEB
S214011850A77A67EE857A77EE275A36EE256A5BE732
S21401186084DD7DE7F5EEC06AF1EE10FA29D9F5EED2
S214011870C06AF1EE10FA7FF779AFF6EE005AE6EE9F
S214011880A57AB7EE007A37EEE66A36EE077A67EEA5
S214011890255A75EEE77A36EEA76A3DE7F6EE005A68
S2140118A0E6EEA57AB7EE006AB0EE677A76EEE77AEC
S2140118B077EE867A27EEA56A76EE667A77EE275A6F
S2140118C02AE7B6EE007AB0EE656AA6EE876AF7EE0C
S2140118D0005A36EEC65A75EE257A67EE875A36EE08
S2140118E0256A76EE667A17E7D7B35D3F00000000FB
S2140118F02DE9F04FE24F9FEDE37AD7ED007A77EED0
S214011900A77A2DED088BE7EE832AA7B00546DDF80A
S214011910E880DDF8EC908DED111AF4EEC72AF1EEB1
S21401192010FAB0EE439A0C461646B0EE40AAF0EE18
S214011930609ACDED101A8DED0F2AB0EE638A8DED0B
S2140119400E4ACDED0D4AF0EE45AA059340F3EE8121
S214011950DFEDCD7A72EEE77ACDED177ACB4BDFF875
S21401196048A393ED00BAC3ED007A0DF1500B13AB0B
S214011970CDF800B011A810A90FAAFFF77FFE5A46AE
S214011980504613A94346CDF8009001F025FEC04A03
S214011990DFEDC08AD2ED017A92ED003AD2ED023A3D
S2140119A092ED034AD2ED044A92ED055AD2ED065A5B
S2140119B092ED076AD2ED086A8AED00BA67EEA87A58
S2140119C099ED007A3F99B44BE3EE287A012DE3EEC8
S2140119D0A87AE4EE287AE4EEA87AE5EE287AE5EE2F
S2140119E0A87AE6EE287AE6EEA87AE7EE287AC1ED3E
S2140119F0007AD3ED017AD3ED006AD069916993ED4F
S214011A00027AD2F814A0D2F810C0D2F80CE0D2F8BC
S214011A1008B0106267EEA87A5068D161E6EEA87A3F
S214011A201168C2F818A0C2F814C0C2F810E0C2F8D3
S214011A300CB090605160E7EE287AD9F8001011607A
S214011A4093ED034AD3ED044A93ED055AD3ED065AB6
S214011A5093ED076AD3ED086A98ED007A3E9AE4EEB4
S214011A60287AE4EEA87AE5EE287AE5EEA87AE6EE9C
S214011A70287AE6EEA87AE7EE287AC2ED007AD3ED68
S214011A80047A1A68D3F81CA0D3F818C0D3F814E067
S214011A90D3F80CB098685968C3F820A0C3F81CC0E6
S214011AA0C3F818E0C3ED057AC3F810B0D8609960A2
S214011AB05A60D8F800201A6000F0DA81022D00F092
S214011AC07C81764BDFED766A0993764B0A93DDEDE2
S214011AD00D4ADDED0E7ADFF8D4C1CDED156A21ABE6
S214011AE0B0EE666AB0EE665AB0EE664AF0EE665A38
S214011AF0CDED166A0DF17C0B079320AB069323AB55
S214011B000DF1940A089322AE24AF0DF154080DF19D
S214011B105809DFF89CE1DFED5F6A9EED017A9EEDE4
S214011B20000ADEED020A9EED031ADEED041A9EEDB2
S214011B30052ADEED062A9EED073ADEED083A0A9BF7
S214011B408CF8005027EE267A3D9DDFF868C1C3ED7C
S214011B50004AA0EE267A099BC3ED007AA0EEA67A8B
S214011B6041464A465B46A1EE267A17A8A1EEA67A1A
S214011B70A2EE267AA2EEA67AA3EE267AA3EEA67A9D
S214011B8037EE047A85ED007ADCED017ADCED004A69
S214011B909CED027ADEF81C80DEF81850DEF8149010
S214011BA0CEF8208067EEA67ADEF81080CEF81C50BC
S214011BB0E4EEA67ADEF80C50CEF81890CEF8148033
S214011BC0E7EE267ADEF80890DEF80480CEF81050AC
S214011BD0CEF80C90DEF80050CEF80880DCED032A33
S214011BE09CED043ADCED053A9CED064ADCED074A2D
S214011BF09CED087ACEF80450E2EEA67A069DCEED6C
S214011C00005AE3EE267A00953C9DE3EEA67AE4EED2
S214011C10267AE4EEA67AE7EE267A77EE867AC5EDA0
S214011C20007ADCED077ADCF81850CCF81C50DCF8AA
S214011C300050CCED087ADCED017ACCF80450399DE1
S214011C40DCF814B0DCF81090DCF80C80DCF808E066
S214011C50CCF818B0CCF81490CCF81080CCF80CE086
S214011C60CCED027A8CED005AC5ED005A389D85ED13
S214011C70005A01F0DFFC059B002B40F08F801BE033
S214011C8070C8FF1FDB0F4940DB0FC94094000020DE
S214011C9070000020CDCCCC3D280000202000002084
S214011CA00000000024000020980000201C000020F6
S214011CB09C0000204C0000201F9A209B2492259314
S214011CC0089B0093384633465146079AFFF7E8FCCF
S214011CD05F4BDDED217A93ED007AF4EEC77AF1EEF3
S214011CE010FA4ADD84ED007A9DED227AD3ED007A72
S214011CF0B4EEE77AF1EE10FA26DD9DED237AC4ED17
S214011D00017AF4EEC77AF1EE10FA2FD4B5EEC07A66
S214011D10DFED507AF1EE10FA48BFB0EE677A84ED47
S214011D20027A27B0BDEC088BBDE8F08FDFED4A7A6A
S214011D30F4EEE72AF1EE10FA2BD5DFED487A72EED3
S214011D40A77ACDED177A09E6B5EEC07ADFED416ADE
S214011D50F1EE10FA48BFB0EE667A84ED017A9DED99
S214011D60237AF4EEC77AF1EE10FACFD5C4ED027AF3
S214011D7027B0BDEC088BBDE8F08FF5EEC07A9FED7D
S214011D80357AF1EE10FA48BFF0EE477AC4ED007AE4
S214011D90AAE7F0EE627ACDED172ADFE5B0EE481A33
S214011DA09DED1F0ADDED200A9FED2D2AF7EE001AA4
S214011DB038465146FFF7C8F982E7D6B921ABDDEDC3
S214011DC00E7ADDED0D4A0793264B0993264BCDED92
S214011DD0157A27EEA86AB0EE675ACDED164A24EEBC
S214011DE0A84AF0EE645A0DF17C0BDFF880C00A9326
S214011DF083E60DF1980AF1EE6AAA6AED01AA0DF1E1
S214011E0054080DF1580943465046CDF800900EA9E6
S214011E100DAA01F0E1FB134B0993134B0A9321AB77
S214011E20DDED165A9DED155A079320AB069323ABAD
S214011E30DDED0D4ADDED0E7ADFF830C0089325EEB4
S214011E40A84A25EE286A0DF17C0B22AE24AF60E687
S214011E5000C8FF1F00000000DB0F49C0DB0FC940B0
S214011E603333434120000020240000201C000020C2
S214011E70DFF8D8C299ED000ACDF818C000F03AFA9A
S214011E80F0EE408A98ED000A00F034FAF1EE40AA2E
S214011E90F0EE6A0AB0EE680A9B4801F0BDFE07EE56
S214011EA0900AF0EE6A0AB0EE680A9848F8EE67AA59
S214011EB001F0B2FE07EE900A9FED950A98ED002A12
S214011EC0D9ED002ADFED933AF8EE678A21AB0DF1E2
S214011ED07C0B1946B0EE6A1AF0EE681AF0EE400A6C
S214011EE05846B0EE493AB0EE484A0793FFF7DAF89B
S214011EF0DDF818C09CF80030012B00F0F880864B06
S214011F00864ADDED1F5A93ED007A98ED002AD2ED50
S214011F10007A9DED215AD9ED006A9FED816A0993F9
S214011F2037EE657A77EEC57A7AEE425A79EEE66A48
S214011F30A5EEC67A0A920B95E6EEC67A20AB19464E
S214011F409FED73BADFED733ACDF820C0B0EE493A93
S214011F50B0EE4B0AF0EE4B0AF0EE4B2AB0EE6A1AE0
S214011F60F0EE681AB0EE484A1EA8CDED247A069324
S214011F708DED237AFFF796F89DED200A00F0BAF969
S214011F80DFED687ADDF820C0B4EEE70AF1EE10FA6C
S214011F9000F19B800DF1980A9FED637A2AED01BA54
S214011FA0F0EE4B7A9FED5EBA9FED606ADDED1F6A3B
S214011FB05F4BD7F800E002936AEE8BAA23ABCAEE1A
S214011FC086AA5C4E089319461AAA18AB8DE80C002F
S214011FD0BDF82C30C6F808E00A46404612A977EE4E
S214011FE0E67A37EE667A9FED549AC6ED037A86ED69
S214011FF0047AADF84830B0EE4A0A1CABC6ED00AA2A
S21401200086ED019ACDF830C0FEF784FE9DED1F7A6D
S214012010DDED1C7A9FED490A77EE877A22AEA7EEB0
S214012020E70A3046CDED157A01F094FD9FED447A2E
S214012030DDED227ADDED216A424BD7F8008002936E
S21401204068EE8B8A1BABC8EE878A0093DFF800E147
S21401205019AB019324AFBDF82C30ADF84A30484691
S214012060CEF808803A460DF14A011DABB1EE677A0B
S21401207037EE667A77EEE67A8EED047ACEED037A5F
S214012080B0EE690ACEED008A8EED019AFEF742FEA9
S2140120900DF19808DDED1D5ADDED216A9FED2A7AD6
S2140120A018ED115ADDED0D4ADDED0E7ADDF830C082
S2140120B0A8F1440875EEA65A25EE076ACDED165A24
S2140120C025EE874A0DF1580923E5DFED1C7AE0EE8F
S2140120D0407A0DF1940A5046B0EE670A01F03AFDD7
S2140120E0DDED257ADDF820C0B1EE677A5AE70A4BB6
S2140120F0DFED077A0993094B0A93002398ED002A2E
S2140121000B93B0EE677A19E798FE0100C4FC010054
S21401211000000000D044D83B20000020240000200E
S2140121200AD7233DCDCC4C3F000000806AFA6C39BB
S21401213010C8FF1F380A00207B142E3E0BD7233F02
S214012140F7CC923904C8FF1FCDCCCC3D1C00002033
S214012150240A0020B5EE400A00EB8101F1EE10FAE8
S214012160D1ED007A05D091ED017A37EE677AE7EE88
S214012170007AB0EE670A704702FB01339BB2F5EEB8
S214012180400A00EB8300F1EE10FAD0ED007A0FD191
S214012190B5EE400AF1EE10FA07D000EB810090EDA3
S2140121A0007A37EE677AE7EE007AB0EE670A704794
S2140121B090ED017AB5EE400A37EE677AF1EE10FA45
S2140121C0E7EE207AF1D000EB810090ED007AD0EDB9
S2140121D0016A76EEC76AA6EEA07A37EE677AE7EE70
S2140121E0007AB0EE670A7047F0B40488049D944202
S2140121F034D20139C9B230F81140944229D90026A7
S2140122008C19C4F34F04E7B230F81440A24238BF29
S214012210394601F1FF3428BF3E46E4B2A642EFD369
S21401222031B200EB41041E70638830F811105B1A5E
S2140122309BB207EE903A521A92B2B8EE677A07EE60
S214012240902AF8EE677AC7EE877AC5ED007AF0BC79
S2140122507047197000222A60F0BC7047002119707F
S21401226000222A60F0BC7047D0ED007AF4EEC07A06
S214012270F1EE10FA38DA0139C9B270B400EB810414
S214012280D4ED007AB4EEE70AF1EE10FA27DA00256B
S2140122904C19C4F34F0400EB8406D6ED007AB4EE75
S2140122A0E70AE4B2F1EE10FA48BF214601F1FF3623
S2140122B058BF2546F4B2A542EAD329B2157000EB01
S2140122C0810090ED007AD0ED017A30EE470A77EE84
S2140122D0C77A70BC80EE270A83ED000A704700209B
S2140122E0117070BC186070470021002010701960D2
S2140122F0704700BFB5EEC00AF1EE10FAD8BFB1EED6
S214012300400A7047704700BF704700BF704700BF64
S214012310704700BF704700BF704700BF704700BFDF
S214012320704700BF08B59FED0A0ADFED0A0A9FED68
S2140123300A1A01F079FE012001F064FE012001462F
S21401234001F014FE01200321BDE8084001F00ABE99
S2140123506F12033A0060294500D82447F0B587B0CC
S21401236003A804A90DF1030201F0FAFD039BB3F5DE
S214012370967F38D19DF813009DF814109DF8112012
S2140123809DF812308DF808008DF809108DF805308B
S2140123908DF80420BDF80830DFF864C0BDF80420CD
S2140123A0ACF800301BB207EE903A13B207EE103AC3
S2140123B0DFED0E6ADFF84CE00D4F0E4E0E4C0F4966
S2140123C09DF810509DF815003280F8EEE77AB8EEC9
S2140123D0C77A67EEA67A27EE267ACEED007A87EDE3
S2140123E0007A2570087007B0F0BD00BF0AD7233CFD
S2140123F0D80000206601002058010020900100202E
S21401240062010020B00100202DE9F04F2DED048B74
S214012410A1B001F0C9FDA94DA94AAA4B039216A97C
S21401242014AF15AC00910197294602940493A64A6D
S21401243013AB064600B2FEF7C1FEA44BA44A9FEDBD
S214012440A50A93ED004AD3ED014A1078D5ED002A8E
S21401245000220DF1300C0DF1380E0BA90DAB0DF16C
S21401246040090DF148080FAF11ACF0EE400AB0EE8E
S214012470401AF0EE401AB0EE402AB0EE403AF0EEC6
S214012480403AB0EE405ACDF808C0CDF80CE00691BF
S214012490079317A91346CDF80090CDF8048004974A
S2140124A00594FFF725FA00211AA801F0A9FD9DED74
S2140124B01A0AFFF71FFFB0EE408A9DED1B0AFFF7D1
S2140124C019FFF0EE408A9DED1C0AFFF713FFB4EEEC
S2140124D0E88AF1EE10FA8049D8BFB0EE688AB4EE09
S2140124E0408A0B78F1EE10FA48BFB0EE408ADA0760
S2140124F040F18280794AD2ED007AB4EEE78AF1EEB5
S21401250010FA00F3C280764A764CDFED777A94EDC6
S214012510007A76487649774B9DED170ADDED180A65
S2140125209DED191A90ED008A91ED009AD3ED008A7F
S21401253080ED000AB4EEE77AF1EE10FAC1ED000A7A
S21401254083ED001A64DDDDED1B7A9DED1C7ADFF864
S214012550D0A1DFF8D0B1CAED007A77EE877ADFF83E
S214012560C891654FDFF8C48189ED007AF1EE677A8C
S214012570CBED007A099201F0F7FC099A137813B1B2
S214012580002001F03FFD5D4B5D49D5F800E0DAF82B
S2140125900020C1F800E05A605A4D5B495B4AD9F801
S2140125A000C0DBF80000DDF878E0DDF874A0186004
S2140125B0C5F800E0C3F808C0D7F80090D8F800E0E6
S2140125C0C1F800A05248534D5349DDF87CC016703F
S2140125D0524B2268C0F8009087ED009AC5F800E0DB
S2140125E0C8ED008AC1F800C01A6084ED008A21B0E7
S2140125F0BDEC048BBDE8F08F03F0020202F0FF0091
S214012600002A80D1364A43F001030B7010707BE735
S214012610394F97ED007AB4EEE77AF1EE10FA16DD4F
S214012620DDED1A7A9DED1C7ADFF8F8B0DFF8F0A040
S214012630CBED007A77EE877ADFF8EC90DFF8EC8066
S21401264089ED007AF1EE677ACAED007A92E7DFF853
S214012650DC8098ED007AB4EEE77AF1EE10FA1DDD33
S214012660DDED1A7A9DED1B7ADFF8B8B0DFF8B89089
S214012670CBED007A77EE877ADFF8A4A0F1EE677AE1
S2140126808AED007AC9ED007A74E703F0FE03144A76
S21401269043F0020301200B70107035E7DFF884B0B9
S2140126A01A9BDFF87CA0DFF880901B99CBF80030EE
S2140126B01C9BCAF80010C9F800305BE7180100201F
S2140126C02101002020C8FF1F98010020E8010020FA
S2140126D0D700002000000000800100201CC8FF1F5A
S2140126E0AD010020C80100209A99593FCC00002076
S2140126F01401002008010020D000002084010020E1
S21401270050010020D4010020D0010020F201002059
S214012710C4000020C8000020D8010020C00000200E
S2140127203C01002038010020400100200401002067
S2140127302DE9F04F2DED068B012091B001F066FCDE
S2140127405D4BDFED5E6AD3ED007A07EE100AB8EE58
S214012750477A77EE677AF4EEE67AF1EE10FA19DD4B
S214012760574883ED007A037803F0010202F0FF0474
S214012770002A4CD0534A1168B1F5BE7F12D203F03D
S214012780FE03514C43F0040301250021037025701C
S21401279011600DE04A4883ED007A0378DC0727D5FF
S2140127A0484A1168B1F5BE7F00F2EB820131116033
S2140127B0002001F02BFC01464448FEF731FB01F0F6
S2140127C035FC434A137813F00101B0EE408A35D048
S2140127D09C070AD53F4801880CB2372C40F3DC82AF
S2140127E06FF341033721137001803B4B02932EE0B8
S2140127F09907DDD45B0740F12986324A1168B1F5A5
S214012800BE7FD3D90378304C03F0FB03BDE203F05F
S214012810020101F0FF05002940F0C3825A0740F18A
S2140128201586284A1168B1F5BE7FE8D2264915609B
S21401283043F00403012203700A70B9E726480290A8
S21401284004462448217043F003031370018001F00D
S214012850C1FB224A137803F00703013BB0EE409A0E
S214012860042B00F23285DFE813F06C025B023F02B4
S21401287041000500F3EE0E7AB4EEE70AF1EE10FA27
S21401288000F337851649174F0B78DFF85C80642B09
S21401289040F29F823978137805EE901A98F8001066
S2140128A006EE101A042161F30203F8EE655AB8EE3B
S2140128B0466A13702AE000BFC001002000401C4594
S2140128C068010020E0010020D60000209C000200E4
S2140128D0A80100205C010020F10000203401002046
S2140128E059010020A3010020EE000020D04FDFF8A0
S2140128F0D4833B7805EE903ACE4B01210022F8EEC8
S214012900655A88F800101A70B7EE006A029BCA4D25
S2140129101B78CA4A07EE903A2B7806EE903A6B7807
S214012920F8EE666AF8EE677A07EE103AF4EEE67AA3
S214012930F1EE10FAB8EE477AD8BFF0EE667AF4EE0A
S214012940477AF1EE10FA48BFF0EE477AF4EE657A70
S214012950F1EE10FA48BFF0EE657AF4EE467A137897
S214012960F1EE10FA48BFF0EE467A13F0010000F0DF
S2140129704B82F5EEC07AF1EE10FA40F3EF84B049DF
S214012980B04EDFF84493039103F0FE0343F00803CF
S214012990042000211370307089F80010002001F027
S2140129A033FBA94A1378D90740F1218231780429EB
S2140129B003F0020100F0BC84002900F06D84A34BF3
S2140129C01B78002B00F0F881002800F0F581DFF875
S2140129D0FCA29F489F4CDFEDA09A0DF12C0B011D28
S2140129E000F108020AABCDF800B0FEF747FE0DABCA
S2140129F00AA95A46009399480CAB00F0EDFD94EDF8
S214012A00000A974820EE290AFEF75EFAB4EEC08A5D
S214012A10F1EE10FAF0EE408ADAE90001D8BFF0EEE6
S214012A20488AFDF7EDFD022800F0B282032800F087
S214012A30A982012800F090829FED8AAA8A4B1B7812
S214012A40002B00F00482DFED897ADFED896A94EDD0
S214012A50007ADFED889A88486AEE277AB2EE048A11
S214012A60C7EE887A0EAC67EE299A87EEA68AB0EE94
S214012A70690AF0EE490AFEF779FAB4EEC08ADFED8C
S214012A807F7ADFED7B6AF1EE10FA58BFB0EE408A2E
S214012A90B4EEE78AF1EE10FAD5BFDFED797A9FED55
S214012AA0797A28EE277AB0EE678ADFED777A022305
S214012AB069EEE77A8DF81730337827EE888A032B8C
S214012AC0F0EE477AE9EEA67A00F0E2816F4E704AA0
S214012AD000230021336073601170039B1B78002B69
S214012AE040F0EA8199F80000002800F0AD8101204D
S214012AF001F088FA674A68481378684998F800E050
S214012B003F7880F800E0032B0F7000F29A810133C2
S214012B10DBB2032B137000F05083042B00F02783E5
S214012B20022B00F097825E4B9FED5E8AD3ED007A12
S214012B305D4BDFF89CA183ED009A67EE887A09A9C0
S214012B40FDEEE77ADFF88C91CDED027ABDF908004B
S214012B50DFF88481554F564E564D01F069FA564BB3
S214012B609DF82420D3ED007A9DF825308AF80020C0
S214012B7067EE887A06A9FDEEE77A89F80030CDED92
S214012B80027ABDF9080001F053FA4C4B9DF8182063
S214012B90D3ED007A9DF8193088F8002067EE887A20
S214012BA008A9FDEEE77A3B70CDED027ABDF9080083
S214012BB001F03EFA424B9DF8202018789DF821300E
S214012BC02B7007A9327001F033FA9AF8003095F8A5
S214012BD000B096F800A0DFF804C1DFF804E199F828
S214012BE0009098F800803F789DF81C609DF81D5075
S214012BF08DF838302146C8208DF839908DF83A8006
S214012C008DF83B708DF83CA08DF83DB008228CF80D
S214012C10006001238DF83E608EF800508DF83F501D
S214012C2001F09CF911B0BDEC068BBDE8F08F00BF3A
S214012C30A301002059010020A00100201C01002052
S214012C400C0100204801002010010020D6000020C1
S214012C50E000002054010020CDCCCC3DB80100207E
S214012C60D000020000000000D5000020ABAA2A3FD9
S214012C700C93A93C5077D63D6C00020000008C42B4
S214012C8096438B3DEC519840C98E0D39E8010020E2
S214012C90D7000020AC010020230100202C010020D9
S214012CA0C00000200000C8427C010020E501002091
S214012CB0F0010020F0000020C4000020C800002021
S214012CC0F2010020EE000020220100207001002009
S214012CD0A2010020EC0000205A010020C4010020BF
S214012CE0EF000020000028425FED027AB4EEE70A0A
S214012CF0F1EE10FA40F3B583BA4FDFF84083397826
S214012D00137805EE901A98F8001006EE101A0121B5
S214012D1061F30203F8EE655AB8EE466A1370F5E5FC
S214012D20DFF81883AF4F98F8003006EE103AAE4B36
S214012D3001210022B8EE466A39701A70F7EE005A81
S214012D40E4E5DFEDAA7AB4EEE70AF1EE10FA00F157
S214012D50D082A549A34F0B78DFF8E082642B38D9DF
S214012D603978137805EE901A98F8001006EE101AC6
S214012D70022161F30203F8EE655AB8EE466A137053
S214012D80C4E503789A4C03F0FE03002143F00203E6
S214012D900370217011600BE50131964B018002939F
S214012DA055E564F34103DBB2914D93492A7043F034
S214012DB0010303700C60FBE41378DFF884A28F49EB
S214012DC003F0FD03002043F004031370CAE9000179
S214012DD0FFE53A7805EE902A98F8002006EE102ACC
S214012DE001330B70F8EE655AB8EE466A8EE51907A0
S214012DF03FF5EDAD8149DFF848A2002043F0050319
S214012E00CAE900011370E4E503F0020101F0FF04D2
S214012E10002900F0CA80F5EEC07AF1EE10FA40F310
S214012E20408360F341037649764EDFF818920391AA
S214012E30DBB243F00803042189F8000013703170F7
S214012E40ACE5012313706EE601F0DCF852E6D4ED32
S214012E50000A9FED6D1A9DED0C2ADDED0D2AF2EEAE
S214012E60047A0EACC0EEA70A21460DF11700F0EE6B
S214012E70411AB0EE4A0AB0EE493A00F0B9FC634B8B
S214012E8093ED008AD3ED017A3378032B7FF41EAEDF
S214012E905F4B1B78002B00F040825E4B5E4A5F4E14
S214012EA0196812685E4B326002221A70039B7160C9
S214012EB01B78002B3FF416AEDFF88CB1012001F031
S214012EC08BF8DBF8003003440020CBF8003001F02B
S214012ED083F8544B534A1B6803440A20136001F0DD
S214012EE07BF8DFF868E1504ABEF80010136801313C
S214012EF089B21844B1F5FA7F1060AEF800107FF47D
S214012F00F1AD484BDBED006A93ED007A9FED476A21
S214012F1007EE900AF8EE666AB8EE477AF8EE677A38
S214012F20C6EE866A204687EE067AC7EE867AFCEEFD
S214012F30E66ABCEEC77AFCEEE77A16EE901A17EE52
S214012F40102A17EE903AADF83810ADF83A20ADF8E1
S214012F503C3001F027F8C5E5DFED357AF4EEE78A77
S214012F60F1EE10FA08D594ED007AF1EE047AB4EE9B
S214012F70E77AF1EE10FA00D4012001F043F8B0EE42
S214012F8068AA5BE5002001F03DF89FED1FAA55E514
S214012F90012001F037F894ED000A264820EE290AB0
S214012FA0FDF792FFB0EE40AA48E5580740F1F281DE
S214012FB02149144EDFF88C900C80F5EEC07AF1EEC4
S214012FC010FA03F0FB03C7BF43F00803042143F0E4
S214012FD0010302211370317089F80040084B0393F6
S214012FE0DCE400BFA30100205901002000002842B4
S214012FF0D6000020F1000020E00100200000F03F94
S2140130000C01002048010020000000004C0A0020AE
S21401301058010020B0010020D8000020E80100205F
S214013020D700002024010020280100200000FA43D8
S2140130309A99993E1001020064010020EE000020DA
S2140130407001002022010020CC010020BC010020DC
S2140130500000C8421FED028AD6ED007AD84B0393D2
S21401306067EE887A06A9FDEEE77A83ED00AACDED34
S214013070027ABDF90800DFF8A0B3DFF8A0A3DFF8F5
S214013080A093DFF8A083CF4FCF4D00F0D1FFD6ED50
S214013090017A9DF818109DF819208BF8001067EE3C
S2140130A0887A07A9FDEEE77A8AF80020CDED027A44
S2140130B0BDF90800C54E00F0BBFF039B9DF81C2020
S2140130C0D3ED007A9DF81D3089F8002067EE887AE6
S2140130D008A9FCEEE77A88F80030CDED027ABDF853
S2140130E0080000F0ADFFBA4B9DF82020D3ED007A22
S2140130F09DF821303A7067EE887A09A9FDEEE77AE5
S2140131002B70CDED027ABDF9080000F091FF9BF817
S2140131100030DFF814E39AF800C095F800B097F88D
S21401312000A099F8009098F800809DF824709DF80A
S21401313025508DF83830214608220123C9208EF803
S214013140007035708DF839C08DF83A908DF83B8057
S2140131508DF83CA08DF83DB08DF83E708DF83F504F
S21401316000F0FCFE11B0BDEC068BBDE8F08F029BB3
S2140131702A7819788DF838106B788DF83CE0DAE902
S21401318000018DF839208DF83A308DF83B70FDF747
S2140131905FFA904B8DF83D001B788DF83E30214646
S2140131A0082200240123CB208DF83F4000F0D6FEF4
S2140131B011B0BDEC068BBDE8F08F874B9FED878A7B
S2140131C0D3ED007A864E874D0C9A0D9B326067EEE2
S2140131D0887A07A9FDEEE77A2B60CDED027ABDF974
S2140131E00800DFF848A2DFF84892DFF848827E4FF1
S2140131F000F01EFFD6ED007A9DF81C209DF81D30CC
S2140132008AF8002067EE887A08A9FDEEE77A89F841
S2140132100030CDED027ABDF90800744E00F008FFCB
S214013220D5ED007A9DF820209DF8213088F8002001
S21401323067EE887A09A9FDEEE77A3B70CDED027A52
S214013240BDF908006A4D00F0F3FEBCEEE80A9DF8F1
S21401325025308DED020A9DF82420BDF808002B705C
S21401326006A9327000F0ECFE9AF8003095F800B02E
S21401327096F800A0DFF8C0C1DFF8C0E199F8009029
S21401328098F800803F789DF818609DF819508DF8E1
S21401329038302146CA20AFE45C077FF598AB4D492C
S2140132A0097801297FF493AB00283FF490AB03F033
S2140132B0FB03DFF88CA100204FF0804143F00203AE
S2140132C01370CAE90001FFF784BB11789FED496AC4
S2140132D0494F4A48DFF86C81032363F30201002358
S2140132E0F0EE465A11703B70037088F80030FFF715
S2140132F00DBB1178404F4148DFF848819FED3D6A8C
S214013300032363F30201002311703B70037088F8F6
S2140133100030F0EE465AFFF7F9BA394E394B9DF8B0
S214013320172086ED008AC6ED017A1A70FFF7D5BB25
S21401333001F0FF00002900F0B0806FF34103137025
S2140133401378DFF8FCA0304903F0FE03002043F0B9
S21401335008031370CAE90001FFF73BBB2B4801883D
S21401336040F22624A14240F2A4802949294EDFF8E2
S214013370D890039103F0FE0343F002034FF0030ECF
S21401338001240021137086F800E089F800400180CE
S214013390FFF704BB03F0080101F0FF001D4EDFF844
S2140133A0A89000297FF41AAE1949039143F004034B
S2140133B0012189F8000013703170FFF7EFBA00BFE2
S2140133C0300100209C01002000010020ED000020BB
S2140133D038010020D6000020500100200000C8421D
S2140133E0440100204C01002060010020B4010020AF
S2140133F0E401002000000000A30100205901002084
S214013400E8010020D70000200000084064010020E9
S2140134100C01002048010020E6010020B501002033
S214013420F2000020DC000020A40100205F01002043
S214013430200100205E010020F1010020D4000020C0
S21401344070010020EE000020220100200378254CA8
S2140134502549002243F00203037022700A60FFF739
S214013460A7B9F3EE0E7AB4EEE70AF1EE10FA1F4FA3
S214013470DFF8848029D53978137805EE901A98F804
S214013480001006EE101A052161F30203F8EE655AE4
S214013490B8EE466A1370FFF739BA60F38203137009
S2140134A04EE7134B0393134E1870DFF85090FFF757
S2140134B075BA0F4B03931A46013101230D4EDFF8FF
S2140134C03C9001801370FFF769BA3B7805EE903A9D
S2140134D098F8003006EE103AF8EE655AB8EE466AED
S2140134E0FFF714BAD6000020E0010020A301002057
S2140134F00C01002048010020EE00002022010020DF
S214013500704700BF704700BF704700BF704700BFDD
S214013510704700BF704700BF704700BF2DE9F04FEE
S2140135202048214BDFF8A080DFF8A0C01F4ED0ED69
S214013530007A1F4A1F49D0F80490D0F808E01E4FC1
S214013540D3F800A01D4DC3ED007A1D4CD8F800B08D
S2140135503078DCF800809E68D3F804C0C3F808E031
S214013560C3F80490174BC1F800A0C1F804C08E60E0
S2140135703F7816785178DFF85890DFF858E0D5F89C
S21401358000A0D4F800C017701E7059705070C5F8AE
S21401359000B0C9F800A0C4F80080CEF800C0BDE8AD
S2140135A0F08F00BF84010020F4000020AD01002050
S2140135B078010020E000002021010020DC0100202D
S2140135C094010020A001002018010020980100208D
S2140135D0B8010020540100202DE9F04182B00646D2
S2140135E090ED000A089F68460C4615469846FDF77A
S2140135F027FB96ED000A01A8FDF750FB94ED007A33
S214013600DDED017A95ED006ADDED006A27EE677A59
S214013610A6EE267A87ED007A95ED006A94ED007A9B
S21401362067EE867AE6EE877AC8ED007A02B0BDE8E4
S214013630F08100BF2DE9F04182B0064690ED000A08
S214013640089F68460C4615469846FDF7F9FA96ED2A
S214013650000A01A8FDF722FB94ED007A9DED016AB0
S214013660D5ED007ADDED006A26EE077AA7EEA67A9A
S21401367087ED007AD5ED007A94ED007A67EEC67A8A
S214013680E6EE877AC8ED007A02B0BDE8F08100BFA9
S214013690D2ED006A0138C0B2F0B5F4EE406A02EB32
S2140136A08004F1EE10FAD4ED007A059DB0EE407A72
S2140136B0C8BFB0EE667AB4EE677AF1EE10FAC8BF0C
S2140136C0B0EE677A4FF0000E84B21FFA8EF7E61955
S2140136D0C6F34F0602EB860CDCED007AB4EEE77A11
S2140136E0F1EE10FA48BF34465FFA86FC04F1FF3467
S2140136F024B252BFE6463E466046A645E4DBD3ED1D
S214013700006A4F1EFFB2F4EE606A03EB8700F1EE2B
S21401371010FAD0ED007AC8BFF0EE660AF4EE670A3A
S21401372016FB01F60FFA8EFEB6B2F1EE10FA02EBB8
S2140137308E024FEA8606C8BFF0EE670A4FF0000E0B
S214013740B8B200EB0E04C4F34F0403EB840CDCEDBB
S214013750007AF4EEE70AF1EE10FA48BF204600F1CF
S214013760FF30E4B200B254BFA64627468645E7DBE3
S2140137700FFA8EFE4FEA8E0E7344D3ED006AD3ED38
S214013780017A70EEE60A77EEE67AB644C0EEA70A4C
S214013790754405EB8101D1ED006AF5EE400AF1EEC4
S2140137A010FA15D195ED000A92ED006AD2ED017A74
S2140137B077EEC67AF5EE407AF1EE10FA07D037EEDC
S2140137C0467A76EEC06A87EE277AA6EE870AF0BDBD
S2140137D095ED000A91ED016AD5ED017A36EE666A3D
S2140137E077EEC07AE6EE206AA7EEA00ADCE700BF15
S2140137F02DE9F0432DED048B9DB08046B84B009328
S2140138000A200025F0EE408A8946B0EE420A0146BB
S2140138100024B0EE608AB34AB34B8DF81640F0EE42
S214013820620AB0EE439A8DF8174006950795FFF7A2
S2140138302FFFAE4FAE4E89ED000A3A46B0EE490A6A
S2140138403346AC48AC4C0A21FEF70EFDBCEEC88AE6
S21401385006AB8DED038ABDF80C200093A7480DF149
S21401386016031221FEF7C0FCB0EE680A0DF117022E
S21401387007ABA3480A21FEF7F7FC9DF816209DF832
S2140138801730DDED070A9F489DED060A0A21FEF76F
S21401389073FC9DF816209DF817308DED080ADDEDB6
S2140138A0070A99489DED060A0A21FEF765FC9DF870
S2140138B016209DF817308DED090ADDED070A9348AD
S2140138C09DED060A0A21FEF757FC9DF816209DF885
S2140138D017308DED0A0ADDED070A8D489DED060AC3
S2140138E00A21FEF749FC9DF816209DF817308DED4C
S2140138F00B0ADDED070A87489DED060A0A21FEF749
S2140139003BFC9DF816209DF817308DED0C0ADDED79
S214013910070A81489DED060A0A21FEF72DFC9DF84F
S21401392016209DF817308DED0D0ADDED070A7B4850
S2140139309DED060A0A21FEF71FFC9DF816209DF84C
S21401394017308DED0E0ADDED070A75489DED060A66
S2140139500A21FEF711FC9DF816209DF817308DED13
S2140139600F0ADDED070A6F489DED060A0A21FEF7EC
S21401397003FC9DF816209DF817308DED100ADDED3D
S214013980070A69489DED060A0A21FEF7F5FB9DF830
S21401399016209DF817308DED110ADDED070A6348F4
S2140139A09DED060A0A21FEF7E7FB9DF816209DF815
S2140139B017308DED120ADDED070A5D489DED060A0A
S2140139C00A21FEF7D9FB9DF816209DF817308DEDDC
S2140139D0130ADDED070A57489DED060A0A21FEF790
S2140139E0CBFB9DF816209DF817308DED140ADDED02
S2140139F0070A51489DED060A0A21FEF7BDFB9DF810
S214013A0016209DF817308DED150ADDED070A4B4897
S214013A109DED060A0A21FEF7AFFB9DF816209DF8DC
S214013A2017308DED160ADDED070A45489DED060AAD
S214013A300A21FEF7A1FB9DF816209DF817308DEDA3
S214013A40170ADDED070A3F489DED060A0A21FEF733
S214013A5093FB9DF816209DF817308DED180ADDEDC5
S214013A60070A39489DED060A0A21FEF785FB9DF8EF
S214013A7016209DF817308DED190ADDED070A33483B
S214013A809DED060A0A21FEF777FB9DF817309DF893
S214013A901620DDED070A8DED1A0A2D489DED060A62
S214013AA00A21FEF769FB39788DED1B0A08A896ED09
S214013AB0000AFEF74FFB397884ED000A12A896ED4E
S214013AC0000AFEF747FB022384ED010AA560E560C4
S214013AD088F800301DB0BDEC048BBDE8F08300BF54
S214013AE0FC380200D4380200BC190200F3010020A1
S214013AF0F401002074C8FF1F4C0A0020880B020046
S214013B00600B02004C110200043602001C14020075
S214013B10942D0200EC160200643002007C0E0200B6
S214013B2034330200F4270200C42A0200F002020025
S214013B3024250200C0050200B41C02009008020001
S214013B40841F02008C3A020054220200AC0B0200D1
S214013B50E419020010B50446044800F00BF8044BC3
S214013B6083ED000A84ED000A10BD00BF9CC8FF1F4C
S214013B705C0A002070B444688568D4ED007AF4EEDF
S214013B80C07AF1EE10FA42DA00780138C0B281004C
S214013B906318D3ED007AB4EEE70AF1EE10FA31DAE3
S214013BA0002183B25A18C2F34F0204EB8206D6ED07
S214013BB0007AB4EEE70AF1EE10FA48BF134603F1B5
S214013BC0FF33D2B21BB254BF114610469942E8DB0E
S214013BD009B289000C44294494ED006AD1ED007ABB
S214013BE091ED017AD4ED016A37EE677A30EE460A36
S214013BF076EEC66A27EE000A70BC80EE260A37EE1D
S214013C00800A7047294491ED000A70BC704795ED13
S214013C10000A70BC704700BFF0B54768067897ED9C
S214013C20007A8168C4684078013EF6B2B4EE407A04
S214013C3007EB8603F1EE10FAD3ED007AC8BFB0EEBB
S214013C40470AB4EE670AF1EE10FA83B0C8BFB0EEC9
S214013C50670A4FF0000EB3B21FFA8EF55A19C2F377
S214013C604F0207EB820CDCED007AB4EEE70AF1EEC8
S214013C7010FA48BF13465FFA82FC03F1FF331BB20A
S214013C8052BFE6462A4666469E45E4DB91ED007A3B
S214013C90461EF6B2B4EE607A01EB8603D3ED007AE7
S214013CA0F1EE10FAC8BFF0EE470AF4EE670A0FFA13
S214013CB08EF312FB00F2F1EE10FA07EB830795B2D2
S214013CC0C8BFF0EE670A4FF0000EB3B203EB0E0268
S214013CD0C2F34F0201EB820CDCED007AF4EEE70A48
S214013CE0F1EE10FA48BF134603F1FF33D2B21BB20E
S214013CF054BF964616469E45E7DB0FFA8EF301EB58
S214013D00830191ED007AD1ED017A70EEC70A77EE64
S214013D10C77A7544C0EEA70A04EB4503F5EE400AE0
S214013D20F1EE10FA26D134F8152033F8103007EEEC
S214013D30902A07EE103AF8EE677AB8EE477A97EDD2
S214013D40006AD7ED016A76EEC66AF5EE406AF1EED4
S214013D5010FA07D030EE460A37EE677A80EE260A6A
S214013D60E7EE007AFCEEE77ACDED017ABDF80400C5
S214013D7003B0F0BD00B203EB400234F815105288D0
S214013D8006EE102A33F810205B8807EE901A07EE2D
S214013D90102A06EE903AB8EE477AF8EE677AB8EE51
S214013DA0466AF8EE666A36EE476A76EEE76AA6EE89
S214013DB0207AE6EEA07AC2E74FF0E02230B4D2F8DD
S214013DC0881D0C4B0C4D0D480D4C41F47001C2F88A
S214013DD0881DD2F8341F21F08041C2F8341F5D607F
S214013DE042F220114FF6FF725D6819609A60046016
S214013DF030BC70470020054020C528D9002008E0C7
S214013E00010000854FF0E021034BD1F80C2D92B252
S214013E101343C1F80C3D70470400FA05334B34498F
S214013E208B4210B507D0334A920804D01846920048
S214013E300BF0C8FE0346304A30491360304A9142BF
S214013E4003D0521A2F480BF0BDFE2F492F4A91423C
S214013E5003D0521A2E480BF0B5FE2E482E4A904239
S214013E6003D0121A00210BF0D3FE2C492C4A9142A2
S214013E7003D0521A2B480BF0A5FE2B492B4A914230
S214013E802DD02B4B541A224618460BF09BFE2018B9
S214013E90284A0021121A0BF0BBFE2749274A9142F5
S214013EA01FD0274B541A224618460BF08BFE2018BB
S214013EB0244A0021121A0BF0ABFE2349234A9142F1
S214013EC011D0234B541A224618460BF07BFE2018BD
S214013ED0204A0021121ABDE810400BF099BE144882
S214013EE0D6E71748E4E71A48F2E700BF00C4FF1F09
S214013EF0000101000004000008ED00E0504202004D
S214013F000051020000C8FF1F005102005C51020070
S214013F10B0D6FF1F000000204C1B002050420200BC
S214013F20504202008080FF1F5042020050420200B1
S214013F30E0C0FF1FF0C0FF1F5042020050420200C7
S214013F40F0C0FF1F00C1FF1F504202005042020096
S214013F5000C0FF1FE0C0FF1FFEF7E4B900F0FAB88B
S214013F6000F006B900F054BB00F038BB38B5044683
S214013F700D4600F0C5FB042C13D8DFE804F003035C
S214013F8003080D002846BDE8384000F011BB0520A7
S214013F90BDE8384000F00CBB0620BDE8384000F014
S214013FA007BB38BD00F01CBB10B5002000F02AFB93
S214013FB08400012000F026FBE4B244EA400402201B
S214013FC000F020FBE4B22043014BC0B2185C10BDE8
S214013FD05C3D020000F096BA10B5044600F096FB70
S214013FE0032804D02046BDE8104000F029B90A2C69
S214013FF0F8D1024B986C80B210BD00BF0070024031
S21401400000F020B900F060BB00F078BB00F0B6BA53
S214014010FEF78EBBFEF7F8B908B5FEF79FF9BDE8C7
S2140140200840FFF77BBA00BF00F076BBFCF7E4BAA6
S214014030C0F3072382B008704B7002B0704700BF10
S214014040030A82B008704B7002B070470D4B23F81C
S2140140501010072815D8DFE800F006080A0C0E1025
S2140140601204FFF74FBAFEF753B9FEF753B9FEF73E
S21401407053B9FEF747B9FEF747B9FFF74DBAFFF751
S2140140803FBA7047F801002003280BD8DFE800F09C
S21401409008060402FFF73EBAFFF73ABAFFF736BA48
S2140140A0FFF732BA704700BFFEF730B9FEF736B9F0
S2140140B0FEF736B9704700BF704700BF704700BFB4
S2140140C0FFF7A6BF08B502F001FC02F03BFA01F0CB
S2140140D0FDFE01F0C7F803F061F803F089F801F07E
S2140140E0D5FD01F057FE00F0BDFE01F04FFC00F0DB
S2140140F079FC01F087FB01F0F1FA01F063FB02F0B5
S2140141006DFA02F09DF8BDE8084003F09BB800BFC9
S21401411070B5074E32784AB1064D002455F8043F73
S21401412001340BB198473278A242F7D870BD00BF70
S2140141302A0300202803002008B503F09BF801F0AD
S214014140BDFA01F037FBBDE8084001F0C9B900BF70
S21401415004F090BB2BB1012B10B404D15DF8044BD5
S214014160002300F01FBF00205DF8044B704700BF1E
S214014170F8B50D4C07460D460C482146164604F088
S21401418019FB80B123683B60237B3370237B43B1EB
S2140141900023E218591C1279EA54227BCBB29A42C8
S2140141A0F7D80120F8BDF8BD100300206C030020ED
S2140141B008B503F067F8164803F0ACF8154803F0A5
S2140141C0AFF80121144804F0ADFD0121134804F0B5
S2140141D0A9FD134B187004F0DDFD10221148124999
S2140141E004F0CAFA04F00EFD04F06AFE04F0BEFD07
S2140141F004F062FF0D4A13780F2B05D80C490D48C1
S21401420041F8230001331370BDE8084004F0A8BD4F
S214014210B5400100B9400100C1400100BD400100A8
S2140142200C0200206C030020100200202A0300204C
S2140142302C0300202591010002F0C0BFFFF78CBEC1
S21401424000F0ECBBF0B5002952D001294FD1A74BA5
S2140142501B78002B40F00581A54BDFF8A0E21C8EF1
S214014260DF89DEED002A198E9E899EED003A1A8EB0
S2140142709D8CDEED003AA4B207EE904ABFB2F8EE8E
S214014280674A07EE907A89B2B8EE675A07EE901A37
S214014290B6B2F8EE675A07EE906A92B2B8EE674A7F
S2140142A007EE902AADB2F8EE676A07EE905AF8EE7E
S2140142B0677A35EEC46A36EEE77A34EEC55AF1EE21
S2140142C0047A66EE276A65EE275A67EE277A85EE48
S2140142D0A26A86EE837AC7EEA37A80ED006A80ED45
S2140142E0017AC0ED027A198A5A8A1B8D4EE0F0BD1A
S2140142F07E4B1B78002B6FD17D4BDFF800E21C8EC6
S2140143005F88DEED002A198E1E889EED003A1A8E11
S2140143109D8ADEED003AA4B207EE904ABFB2F8EEEF
S214014320674A07EE907A89B2B8EE675A07EE901A96
S214014330B6B2F8EE675A07EE906A92B2B8EE674ADE
S21401434007EE902AADB2F8EE676A07EE905AF8EEDD
S214014350677A35EEC46A36EEE77A34EEC55AF1EE80
S214014360047A66EE276A65EE275A67EE277A85EEA7
S214014370A26A86EE837AC7EEA37A80ED006A80EDA4
S214014380017AC0ED027A9988DA881B8BDFED597ABB
S214014390DFED595A92B207EE102A89B29BB2F8EEB7
S2140143A0476A06EE101A07EE103AB8EE466AB8EEFD
S2140143B0477A26EE276A66EEA76A67EE277A26EE22
S2140143C0256A26EEA57A67EEA57A80ED036A80ED6A
S2140143D0047AC0ED057AF0BD454B484D484E5C88E1
S2140143E0D5ED003A1988378895ED004A9A8AD5EDB9
S2140143F0004A89B205EE907A07EE901A7788B68859
S214014400A4B292B2B8EE675A06EE907A07EE106A38
S21401441006EE104A07EE902AB8EE466AF8EE677A7C
S214014420F8EE655AF8EE666AB8EE477A35EEC66A71
S21401443037EE677A76EEC56AF1EE047A26EE276ADB
S21401444066EEA76A67EE277A86EE236A86EE847A98
S214014450C7EEA47A80ED006A80ED017AC0ED027A9B
S21401446091E7234B254D264EDC89D5ED003A9989F7
S214014470378895ED004A9A8CD5ED004A89B205EE4B
S214014480907A07EE901A7788B688A4B292B2B8EE00
S214014490675A06EE907A07EE106A06EE104A07EEA5
S2140144A0902AB8EE466AF8EE677AF8EE655AF8EEA4
S2140144B0666AB8EE477A35EEC66A37EE677A76EE02
S2140144C0C56AF1EE047A26EE276A66EEA76A67EEFB
S2140144D0277A86EE236A86EE847AC7EEA47A80ED82
S2140144E0006A80ED017AC0ED027AFCE674030020D2
S2140144F0600A00206666984200008039E8CAFF1FFD
S2140145002403002008B51A4B1B782DED028B0B20D7
S21401451083B100F083FA07EE900ABDEC028B9FEDA3
S214014520150A9FED157AF8EE677A67EE807A27EE20
S214014530870A08BD00F072FA07EE900A1320B8EE5B
S214014540678A00F06BFA07EE900AB8EE677AF6EE25
S214014550007A37EE087ABDEC028B9FED060ADFED96
S214014560066A67EE277A67EE807A27EEA60A08BD06
S214014570750300200000F5420000803908B568B1D7
S214014580012809D1042000F049FA42F2107303FB16
S21401459000F0C0F30F3008BD002008BD0D2000F06C
S2140145A03DFA42F2107303FB00F0C0F30F3008BD72
S2140145B038B5094D2B78052B044605D00120214638
S2140145C001F040F92C7038BD0528F7D001F044F908
S2140145D001F074F82C7038BD2003002000F088BF6D
S2140145E0064B0188064A10B44488198080885C808E
S2140145F00121988011705DF8044B70472403002058
S2140146007403002001F022BC02F00CBEFFF702BDCD
S21401461010B1012802D1002000F0BABC704700BFDB
S21401462010B54FF42054013CA4B202F0FBFD002C5F
S214014630F9D107F0E9F849F63054013CA4B202F08A
S214014640F1FD002CF9D1FFF7DDFBFEE738B51C4C78
S21401465004F02AF82046002100F062FD18B9BDE8F2
S2140146603840FFF7D9BC204602F020FE054620461A
S21401467004F05EFE90B985F00103DBB222681049B2
S214014680FF2A11D0B2F5407F0AD0002BE7D00D48A3
S21401469004F078F8BDE83840FFF7BEBC0023EDE72C
S2140146A0081D04F0F3F9DAE7AA2301F8043F012212
S2140146B0002340F20F1000F075FCFFF7B1FF00BFBA
S2140146C0780300206C03002038B580F0010405460D
S2140146D02146002001F06CFB2146012001F068FB19
S2140146E02146022001F064FB1DB9BDE8384000F008
S2140146F0EDBFBDE8384000F0F3BE00BF04F0BEBA1F
S214014700014B1870704700BF75030020014B1878E5
S214014710704700BF7503002081EE201A044BDFEDC1
S214014720050A21EE000A20EE200A83ED000A7047F2
S214014730E8CAFF1F00008045FFF788BCFFF7A4BC4E
S214014740014B1870FFF7B0BC0D020020014B18702A
S214014750704700BF0D020020FFF7A8BCFFF7A8BCFA
S214014760364B1F22F0B41A605A609A60DA601A61FA
S2140147705A611A625A629A62DA621A6822F0400232
S2140147801A605A6822F040025A609A6822F0400283
S2140147909A60DA6822F04002DA601A6922F0400272
S2140147A01A615A6922F040025A611A6A22F04002DE
S2140147B01A625A6A22F040025A629A6A22F040024B
S2140147C09A62D96A002221F0400144250C248720F0
S2140147D0D9621D6419465C64C3F8B420C3F8B820D6
S2140147E0C3F8BC20C3F8C020C3F8C420C3F8C8204F
S2140147F0C3F8CC20C3F894000A68104B1206FBD508
S214014800002224200C21C3F8942018645964D3F89C
S21401481090100125022403200A27092641F04001B1
S214014820C3F890101D605A609C60D8601F615E617D
S2140148301D625A629C62D862F0BC704700B00340A9
S214014840094A0A4BD2F88410526E10B441F23C0069
S21401485041F21C0441F25C0101221A531A525DF81E
S214014860044B5A52704700BF00700240008000405F
S2140148702DE9F84F594B1F221A605A609A60DA6088
S2140148801A615A619A61DA611A625A629A62DA6246
S2140148901A635A639A63DA631A6822F040021A604E
S2140148A05A6822F040025A609A6822F040029A60E2
S2140148B0DA6822F04002DA601A6922F040021A61D0
S2140148C05A6922F040025A619A6922F040029A61BE
S2140148D0DA6922F04002DA611A6A22F040021A62AC
S2140148E05A6A22F040025A629A6A22F040029A629A
S2140148F0DA6A22F04002DA621A6B22F040021A6388
S2140149005A6B22F040025A639A6B402122F0400211
S2140149109A63D963196C002241F044010C24872064
S21401492019645C641946C3F8B420C3F8B820C3F808
S214014930BC20C3F8C020C3F8C420C3F8C820C3F8FD
S214014940CC20C3F894000A68244B1206FBD5002439
S2140149500C202422C3F894401A645864D3F890209B
S2140149601F49092708260E2542F040024FF0020B88
S214014970C3F890204FF0070E1F604FF0060C5E60E4
S2140149804FF0030A9D604FF00409C3F80CB04FF0D6
S21401499005080A224FF00B0BC3F810A0C3F81490B9
S2140149A0C3F81880C3F81CC01F625E629D62C3F81C
S2140149B02CE01A63C3F834B09863DA6B42F00D0248
S2140149C0DA632820224606F0E7FE2146282006F074
S2140149D023FF2820BDE8F84F06F0F2BE0070024023
S2140149E0414801000A4A08B5536843F00F03536073
S2140149F0FFF7B6FEFFF73CFF002306491A4621F8EB
S214014A00132001331A2BFAD1034B01225A7108BD28
S214014A1000800440600A0020940A002019289DBFE7
S214014A20034B33F8100080B24FF6FF70704700BF9B
S214014A30600A0020F0B583B00446FFF767FE3E49E2
S214014A403E4A3F4B3F4D002641F21C0C41F23C0EC4
S214014A5041F25C07C2F89460C1F894600122D1F873
S214014A608460496E23F80C2023F80E20DA532B7845
S214014A70052B2AD0062C5CD8DFE804F004040430A9
S214014A80303313002C4A304B98B940210626D661A4
S214014A90D163D16B41F00D01D1632C70187003B056
S214014AA0F0BD2B78052B284B02D01A78002AF4D1BA
S214014AB0214A0D264021D663D161D16941F0060114
S214014AC0D1612C70187003B0F0BD052C09D001908F
S214014AD0FFF746FEFFF7CCFE0198CBE7164A1A4BC6
S214014AE0E7E7154A1549184B4FF0060E0D2708261D
S214014AF0C2F81CE0D763C2F89460D2F8906026F042
S214014B004006C2F89060D1F8906026F04006C1F8E1
S214014B109060D1F890604FF0000E46F00406092729
S214014B20C1F89060C1F800E017602C70187003B0EF
S214014B30F0BD054BB1E700BF0070024000B0034076
S214014B40008000408803002089030020B34A136BCD
S214014B509BB210B5002B40F0F780B14A136B13F0EF
S214014B60FF0F40F0B880AF4A136B13F0FF0F74D1FC
S214014B70AA4A136B1B0C1B04002B4CD1A84B1A6BB7
S214014B8012F47F4F28D1A74B1A6B12F47F4F00D136
S214014B9010BD1A6BA44C02F47F421A6306F034FE71
S214014BA0A14B9A7B013AD2B200219A7399725A7B31
S214014BB00132D2B25A735A7B072A88BF59739B7B3C
S214014BC003F0FF02002B40F033810123E372A2734E
S214014BD0BDE8104006F00CBE1A6B934C02F47F42FF
S214014BE01A6306F011FE637A013B0022DBB26372A0
S214014BF06271237A0133DBB22372237A2272637ADB
S214014C0003F0FF02002B40F0F4800123A3716272CF
S214014C1006F0EEFDB7E7136B834C1B0C1B04136306
S214014C2006F0F2FD804B1A79013AD2B200211A71D0
S214014C301970DA780132D2B2DA70DA780F2A88BFC0
S214014C40D9701B7903F0FF02002B40F0BB800123D3
S214014C506370227106F0CCFD90E7116B734BC9B2FD
S214014C6011639A7B0132D2B29A739A7B0AB10022FF
S214014C70DA721A7B6D48120102F1804202F52C327B
S214014C80D2F8801021F07061C2F880109A7B072A52
S214014C9003D901210822817282739A7A634902F04C
S214014CA0FF00002A7FF464AF0A7B0132D2B20A7396
S214014CB00A7B072A88BF08731B7B1B0103F180430D
S214014CC003F52C33D3F8802022F0706242F0806224
S214014CD0C3F880204CE7116B544BC9B211635A7A62
S214014CE00132D2B25A725A7A0AB100229A71DA792C
S214014CF04E49120102F1804202F514320124D2F823
S214014D00800020F07060C2F880000022587A5C7142
S214014D105A725B7903F0FF02002B7FF424AFCB7944
S214014D202344DBB2CB71CB79CA71CB791B0103F17A
S214014D30804303F51433D3F8802022F0706242F0EA
S214014D408062C3F880200EE7116B384B89B211637D
S214014D501A790132D2B21A711A790AB100225A703E
S214014D609A783248120102F1402202F50032D2F856
S214014D70801021F07061C2F880101A790F2A03D9C9
S214014D8001211022017002711A78284902F0FF00F1
S214014D90002A7FF4E2AE8A780132D2B28A708A782B
S214014DA00F2A88BF88709B781B0103F1402303F507
S214014DB00033D3F8802022F0706242F08062C3F89C
S214014DC08020CAE606F020FD63787BB9E3781033CD
S214014DD0DBB21B0103F1402303F50033D3F8802037
S214014DE022F0706242F04062C3F8802006F000FDB7
S214014DF030E706F009FDA3796BB9237A1B0103F1AD
S214014E00804303F51433D3F8802022F0706242F019
S214014E104062C3F8802006F0EBFCF9E60040024051
S214014E200050024000B002408C030020E80300203E
S214014E3006F0EAFCE37A7BB9637B0833DBB21B013D
S214014E4003F1804303F52C33D3F8802022F07062FF
S214014E5042F04062C3F8802006F0CAFCBDE810406C
S214014E6006F0C6BC70B500204049414A04F0FEFE7B
S214014E7008BB05460446EEB2002031463D4A0346CD
S214014E8005F046F8013531463B4A08B10134E4B233
S214014E90002005F071F8324608B10134E4B2002072
S214014EA00146034604F0B2FE08B10134E4B2102D07
S214014EB0E1D1002C55D0314B0022DA700020024699
S214014EC0014604F081FE0020012104F061FE2C4B16
S214014ED02C499A6A4FF0FF329A625120002206F05E
S214014EE05BFC00225220274906F056FC5120032184
S214014EF006F092FC0321522006F08EFC512006F0AB
S214014F005FFC522006F05CFC4F2006F065FC1E4953
S214014F101E4A002301240B7020464C708B70CB7008
S214014F200B71137054709370D37013714B718C7135
S214014F30CB710B724B7253719471D371137253729E
S214014F408B72CC720B734B738B739372D472137315
S214014F505373937305F040F80220BDE8704005F0E6
S214014F603BB8064B0122DA70A8E700BF24140020E4
S214014F70B8D5FF1FD03D02009C030020940A0020F4
S214014F80004002404D4B01008C030020E803002046
S214014F90034B01EB810103EB810104F0A7BD00BFC8
S214014FA0783D02002DE9F04F9D001C46574F584EA4
S214014FB0EB1856F8248017F803E085B0FE18BEF10A
S214014FC0000F05D1534B93F800A0BAF1000F22D081
S214014FD0D8F820305B0603D5002005B0BDE8F08F79
S214014FE025443D4406F010FC6B7873B94A4BEA78C9
S214014FF01B5D1344DBB208EB0318D8F8803023F0AE
S214015000706343F04063C8F8803006F0F1FB00207F
S21401501005B0BDE8F08F03920291019006F0F4FB13
S21401502096F802C0B378DFF8F4E0DFF8EC901EF8EB
S21401503004E019F80490DFF8D4B00133DBB2B370A2
S214015040B378734528BF86F802A005EB040A07EB80
S2140150500A06CC4433790133DBB23371337901A8C4
S2140150609E455FFA8CFC07C804D801230BF80A306A
S21401507086F804E04B790E7991F807E091F806A0DE
S2140150801B0443EA066343EA0E0308EB0C1643EAE5
S2140150900A23C6F88C304B7891F800A091F803E00B
S2140150A091F802C01B0443EA0A61120442F0484226
S2140150B0254441EA0E0142F4800280043D4441EA5F
S2140150C00C21C6F88810C6F88400C6F880206B78D4
S2140150D02BB906F08DFB012005B0BDE8F08F00234B
S2140150E06B7006F091FB6B786BB9EB7899445FFABD
S2140150F089F908EB0918D8F8803023F0706343F07B
S2140151004063C8F8803006F073FBE2E78C030020AA
S214015110683D02000F080020643D0200CC3D0200FD
S2140151202DE9F0478E004B4D4B4C72182A4454F82B
S2140151302170537803F0FF04002B40F08780D3786A
S21401514092F803E0DFF81481DFF814C118F8018043
S2140151501CF801900EF1010E5FFA8EFE82F803E054
S21401516092F803E04344DBB207EB0313CE4528BFB6
S214015170D470D3F88020D3F88420C2F38A42026028
S214015180D3F88020C2F303420273D3F88820120EAC
S2140151900271D3F88820120C4271D3F88820120AC3
S2140151A08271D3F88820C271D3F88C20120E027255
S2140151B0D3F88C20120C4272D3F88C20120A827219
S2140151C0D3F88C20C2728A460446D3F88030BB6876
S2140151D006F01AFB06EB0A016A181E481379013B12
S2140151E0DBB213716B5CEBB14FF0000E00F801E01F
S2140151F093780133DBB293709378994506EB0A03F3
S2140152002B4498BF82F802E09B7898445FFA88F8AE
S21401521007EB0817D7F8803023F0706343F08063FC
S214015220C7F8803006EB0A0129440B7903F0FF0228
S21401523013B901234B700A7106F0DAFA204603F01F
S21401524067FEB0FA80F04009BDE8F0870020BDE8AF
S214015250F08700BFE8030020683D0200C83D020059
S214015260743D020008B50648064A0023042106F0EC
S2140152706DFF054BB0FA80F04009D87208BD00BF3B
S21401528000CBFF1F68080020940A00201F49204B0E
S2140152900A6822F400720A601A781AB15A88013232
S2140152A092B25A801A791A491AB1CA88013292B250
S2140152B0CA801A7A16491AB14A89013292B24A81CB
S2140152C01A7B13491AB1CA89013292B2CA811A7C71
S2140152D00F491AB14A8A013292B24A821A7D0C49A2
S2140152E01AB1CA8A013292B2CA821A7E08491AB122
S2140152F04A8B013292B24A831B7F054A1BB1D38B7C
S21401530001339BB2D383FFF727BA00BF0090034057
S2140153100804002008B50B4BDA6B110608D4094BBC
S2140153205A6C120603D55A6C22F080025A6408BDE4
S214015330DA6B22F08002DA63196C002089B2FFF77B
S214015340FBF9ECE70090034008B50F4BDA6A11064B
S2140153500FD40D4B5A6B120600D408BD5A6B22F0BF
S21401536080025A63996B052089B2BDE80840FFF7B1
S214015370E3B9DA6A22F08002DA62196B042089B294
S214015380FFF7DAF9E5E700BF0090034008B50F4BD9
S214015390DA6911060FD40D4B5A6A120600D408BDFD
S2140153A05A6A22F080025A62996A032089B2BDE8DD
S2140153B00840FFF7C1B9DA6922F08002DA61196A9A
S2140153C0012089B2FFF7B8F9E5E700BF0090034076
S2140153D00B4BDA68110604D5DA6822F08002DA602F
S2140153E01B69074B5A69120600D470475A6922F0A6
S2140153F080025A619969022089B2FFF79DB900BF00
S21401540000900340314B32495A6D42F0040270B5A8
S2140154105A655A6D2F4D42F001025A659A6D42F057
S21401542002029A659A6D42F080029A651A683320E4
S21401543042F480721A6058665A6E42F44C525A66AA
S214015440586E0024042240F44C1043F21546586668
S2140154509E60DC64DA605A61DA615A62DA625A6323
S2140154601C619C611C629C621C639C63D3F898203F
S21401547042F40072C3F89820DA6E42F04002DA660F
S2140154805A68120C12045A602A6802EB82029200D1
S21401549002F03C0242F080029A66204606F06AFE5E
S2140154A00D4B88B9DA790AB10122DA7168200B4905
S2140154B0002206F071F96820022106F0ADF9682095
S2140154C0BDE8704006F07CB9DC71EFE70080034070
S2140154D024400200ECCAFF1F940A0020595901001B
S2140154E0024A136843F47C1313607047008003403C
S2140154F070B52DED048BB7EE009AB4EE490AF1EEC5
S21401550010FAF0EE408AF4EE490AB0EE608AC8BF9F
S214015510F0EE498AF1EE10FAB4EE491A604CF0EE5C
S214015520419AC8BFB0EE498AF1EE10FAC8BFF0EE54
S214015530499AC4ED018A84ED028AC4ED039AFFF705
S214015540E5F8022810D02378F7EE007A77EEE88A9D
S21401555037EEC88A77EEE99A042B00F29A80DFE8E4
S21401556003F0587D868F0A0079EE688A39EE488AFC
S21401557079EE699AE7E7F7EE006A9FED4A7A76EEEA
S214015580E85A76EEE97A78EEA68A36EEC86A79EEB9
S214015590A69A38EE268A65EE875A68EE878A66EE00
S2140155A0076A28EE078A67EE877A69EE879ABCEE65
S2140155B0E57AFCEEE88A17EE100ABCEEE67A18EEFB
S2140155C0903ABCEEC88AFCEEE77AFCEEE99A17EE52
S2140155D0105A17EE904AC3F34E0219EE901A18EEBF
S2140155E0103AC0F34E00C5F34E05C3F34E03C4F3A1
S2140155F04E04C1F34E062C49BDEC048B08618A614A
S2140156000D628B620C638E638B6D43F080038B653A
S21401561070BDB7EE007A77EE685ADFED246A78EE51
S214015620878A77EE697A37EE486A79EE879A38EE96
S214015630078A65EEA65A68EEA68A26EE267A28EE30
S214015640268A67EEA67A69EEA69AFCEEE56AFCEE75
S214015650E88A16EE900ABCEEC77AB0E7B7EE007A93
S21401566077EE685ADFED126A78EE878AD9E7B7EEE9
S214015670007A77EE685ADFED0F6A78EE878AD0E710
S214015680B7EE007A77EE685ADFED0B6A78EE878A16
S214015690C7E7002634463346354632463046AAE743
S2140156A0F803002000007A45008003400058504669
S2140156B000401C460000FA4500409C45024A13681B
S2140156C043F008031360704700800340024A1368E2
S2140156D023F47C13136070470080034008B56E20E6
S2140156E02A49002206F058F869202949002206F0C6
S2140156F053F86A202749002206F04EF86B20264907
S214015700002206F049F800226C20244906F044F8ED
S2140157106E20012106F080F86920012106F07CF850
S2140157206A20012106F078F86B20012106F074F852
S2140157306C20012106F070F801201949194A05F07C
S214015740F5FEA8B1184B0022DA71184B00221A7028
S2140157505A801A71DA801A725A811A73DA811A74A7
S2140157605A821A75DA821A765A831A77DA8308BD4C
S21401577001200F4904F074FC0028E3D10A4BDA79C2
S214015780002AE2D00122DA71DFE700BF8D52010064
S214015790D15301008D5301004953010015530100F7
S2140157A0D4CCFF1F84040020940A002008040020A3
S2140157B058CDFF1F024A136843F018031360704761
S2140157C00090034008B502200A490B4A05F0AEFED8
S2140157D018B10A4B0022DA7108BD0220084905F00B
S2140157E0BFF90028F5D1054BDA79002AF4D0012259
S2140157F0DA7108BD74CBFF1FE0040020940A002074
S21401580088CBFF1F08B503200A490B4A05F08EFE18
S21401581018B10A4B0022DA7108BD0320084905F0C9
S2140158208DFA0028F5D1054BDA79002AF4D0012249
S214015830DA7108BD94CBFF1F28040020940A0020CB
S214015840A8CBFF1F024A034B11701870704700BFA8
S214015850F8030020DC040020F8B53C4E3C4D04461D
S214015860FEF754FF3378052B074634D0062B21D09C
S214015870022F26D0012F63D9062C0BD8DFE804F0BF
S2140158803A41484F0456310000F0DCF9314B40F6FE
S2140158909F729A602046FFF7CDF8204601F032FB52
S2140158A095ED010AD5ED020A95ED031AFFF720FEE4
S2140158B03470F8BD062CDBD02C7000F049FA022FAC
S2140158C0D8D1244B1A6822F4A8121A601A6842F436
S2140158D028121A60D0E7052CCAD02C7000F038FACE
S2140158E0EDE700F0AFF900F011FA1A4B41F63F72FE
S2140158F09A60CFE700F0A6F9164B43F215429A607C
S214015900C8E700F09FF9134B42F20F729A60C1E7A5
S21401591000F098F90F4B41F63F729A60BAE700F033
S21401592091F90C4B41F287329A60B3E7094A136842
S21401593023F01803136000F073F900F0E7F9A9E704
S214015940044A136843F47C13136095E7800400202F
S214015950F803002000800340094A136810B5094C7B
S21401596023F40073136023781BB9BDE81040FEF7DB
S2140159704DBE054B1878FFF76FFF0023237010BD4F
S21401598000800340DC040020F8030020994B41F21C
S2140159901C0C80222DE9F04F1A6033F80C20964F2C
S2140159A0964DDFF860A2DFF860E2DFF86092DFF87C
S2140159B060B222F08002120403F58054120C23F820
S2140159C00C2041F204068E4A226041F206000424AD
S2140159D09C5341F2080140F201161E5241F20C0896
S2140159E041F210005F5041F214016FF0170743F8BF
S2140159F008701D5041F216070220585241F2180253
S214015A000121D9536FF00B079F5041F21E07002268
S214015A10D95323F80C2041F23C0703F5815833F89B
S214015A2007C02CF0800C4FEA0C4C4FEA1C4C23F8B4
S214015A3007C041F2240CC8F800A041F2260823F85A
S214015A400C4041F2280C23F8086041F22C0843F878
S214015A500CE041F2300C6FF00F0E43F808E005F150
S214015A600C0841F2340E43F80C8041F2360C23F850
S214015A700E0041F2380841F23E0E23F80C106FF08A
S214015A80070C43F808C023F80E1041F25C08DA53FD
S214015A9033F80870DFF87CE127F080073F043F0CFD
S214015AA003F5825A23F8087041F24407CAF80090B9
S214015AB041F24609DC5341F2480723F8096041F2F6
S214015AC04C0943F807B06FF03F0A41F2500743F81C
S214015AD009A005F1140A41F2540943F807A041F25E
S214015AE0560A23F8090041F2580741F25E0923F8E5
S214015AF00A106FF01F0A43F807A023F8091041F2B5
S214015B007C0723F8082033F807A0DFF80C91DFF8AC
S214015B100C812AF0800A4FEA0A4A4FEA1A4A03F52C
S214015B20835B23F807A041F2640A354FCBF8007077
S214015B3041F2660B23F80A2041F2680A23F80B604B
S214015B4041F26C0B41F2700643F80A0041F2740A06
S214015B5043F80B209D5141F2760B41F2780641F253
S214015B607E0523F80A006FF0030A23F80B0043F8BA
S214015B7006A0585341F27C0541F29C065A539D5BA0
S214015B8025F0800503F5845B2D0441F2840A2D0C73
S214015B909D53CBF8009041F2860541F2880B41F205
S214015BA08C0923F80A4040F2022A23F805A043F89C
S214015BB00B4041F2900A43F809C041F2940541F2C4
S214015BC0960B41F2980441F29E094FF02A0C483F89
S214015BD043F80A705A5323F80B101A5123F8090098
S214015BE09A538EF803C08EF804C088F80410BDE8F6
S214015BF0F08F00BF008000400C080080600A002083
S214015C0048B0034068B0034008080080487002406E
S214015C102008008000100240E03D0200940A0020A7
S214015C20064B0749DA7842F08002DA701A791820B2
S214015C3042F080021A71C860704700BF001002402F
S214015C4000800040034B04492A220020DA701A71B2
S214015C50C86070470010024000800040034A936B02
S214015C6043F0807393630420FEF76ABD00900440FE
S214015C70034A536A43F080735362FEF76FBD00BF59
S214015C8000D004400020FEF761BD00BF10B51849E2
S214015C90592006F0DDF9174AB0FA80F301215B09B5
S214015CA01548937003F03EF83F201449002205F092
S214015CB073FD00223B20124905F06EFD3F200421B2
S214015CC005F0AAFD04213B2005F0A6FD3F2005F0C6
S214015CD077FD3B2005F074FD0A4B0B494FF48034E9
S214015CE04FF400304FF400529C6048605A6010BD7B
S214015CF060CDFF1F940A0020855C0100715C0100E5
S214015D005D5C010000F10F40C0F00F4010B40C4A7A
S214015D100C4C0D480D494FF48073D3631364136024
S214015D2053602364636443695DF8044B43F4C033F2
S214015D3043F0030343614B6943F440334B617047BF
S214015D4000C0044000A00440C0F00F4040F00F40E7
S214015D5010B40C4A0C4C0D480D494FF40073D36334
S214015D601364136053602364636443695DF8044BF2
S214015D7023F4C03323F0030343614B6923F4403318
S214015D804B61704700C0044000A00440C0F00F40C3
S214015D9040F00F400449054B4FF480404FF4006239
S214015DA048605A60704700BF00F10F4080F00F4016
S214015DB009280BD8DFE800F00B12181E242A30360B
S214015DC03C051E4B4FF4803231B99A6070471C4B2C
S214015DD04FF480720029F8D05A607047184B4FF480
S214015DE000720029F1D0F7E7154B4FF40062002945
S214015DF0EBD0F1E7134B4FF400620029E5D0EBE757
S214015E00114B4FF480520029DFD0E5E70E4B4FF4DB
S214015E1000520029D9D0DFE70B4B4FF4003200299E
S214015E20D3D0D9E7054B4FF400520029CDD0D3E7A4
S214015E30024B4FF480420029C7D0CDE700F10F4056
S214015E4000F00F4080F00F40C0F00F40062828D821
S214015E50DFE800F0090E13181D220400124B186922
S214015E60C0F340207047114B1869C0F300307047EB
S214015E700F4B1869C0F3803070470E4B1869C0F39A
S214015E80C00070470C4B1869C0F3402070470A4B9E
S214015E901869C0F3C0207047074B1869C0F380200B
S214015EA070470020704700BF00F10F4000F00F4020
S214015EB080F00F4040F00F40C0F00F40024A537888
S214015EC003F07F0353707047000002400C4A0D48F0
S214015ED0D2F804340C4943F47F6310B5C2F8043495
S214015EE003F0A8FB044608B1012010BD074922466D
S214015EF0122005F051FC122005F062FC204610BD70
S214015F00001000405C40020038050020BD5E010024
S214015F1009F058BE38B5C0F1805303F580338B4283
S214015F2005460C460BD3C1F30A0313B101F5006411
S214015F30E41A09482946224603F0B6FB08B10120B7
S214015F4038BD2946C4F3CF020123034803F02CFCD5
S214015F50003018BF012038BD38050020F0B512F01A
S214015F60070318BFC3F108031446064618BF52FAC2
S214015F7083F40D4685B00C48314622462B4603F085
S214015F8085FC10B1012005B0F0BD03AF01200190E2
S214015F90314622462B460097034803F001FD0030A8
S214015FA018BF012005B0F0BD38050020F0B52C4F14
S214015FB0FE6DC6F302461EB32A4A002510467C6FC4
S214015FC0938BB2F81EE099B21FFA8EF3CB1A032B0D
S214015FD017DC818BC38B89B29BB299420BD0916936
S214015FE0D38B0C6001339BB2D383918BD38B89B255
S214015FF09BB29942F3D10135B542938BD38BDED157
S214016000F0BD8169C38B9BB24FEA146E01F803E0C1
S214016010C38B01339BB2C3838169C38B9BB2C4F329
S214016020074E01F803E0C38B01339BB2C38381693A
S214016030C38B9BB2C4F3072E01F803E0C38B013375
S2140160409BB2C3838169C38B9BB20135CC54C38B8E
S21401605001339BB2C383B542938BD38BAFD1CFE7CA
S21401606000E0024054050020F0B5714D2B78DBB2FC
S214016070012B09D02B78022B67D02B7803B1F0BD0A
S214016080BDE8F04003F02AB96A4A51694E0510D5B9
S21401609091694C050DD55169674C41F48061516198
S2140160A09169002021F48061916184F84230287062
S2140160B0E3E7604B5A69D007DFD59A69D107DCD58B
S2140160C059695D4A41F00101596192F8400092F820
S2140160D04110884229D9DB6D03F00703032B24D82E
S2140160E092F8403092F841105B1A032B00F39C8023
S2140160F092F8403092F84170DF1B17F0FF0700F06E
S21401610095800021084692F84130DBB20131D65C19
S21401611092F84130CCB20133DBB2A74246EA002006
S21401612082F84130EFD8434B586692F8401092F807
S21401613041309942A1D13F4B9A6922F001029A61FE
S2140161409A6942F480629A6197E73A4F7B699A07A7
S21401615093D5BB699B0790D5FB6DC3F302435FFAEA
S21401616083FE002B89D0354A002610467C6F938823
S214016170B2F806C099B21FFA8CF3CB1A032B29DCAE
S2140161808188C38889B29BB299420BD01168D388A3
S2140161900C6001339BB2D3809188D38889B29BB2BD
S2140161A09942F3D101369388D188DFF890C0F4B2D2
S2140161B0A6459BB289B2D9D899427FF45EAF1D4AF3
S2140161C09369012023F00203002193618CF80800F3
S2140161D0297052E70168C3889BB24FEA146C01F834
S2140161E003C0C38801339BB2C3800168C3889BB2D6
S2140161F0C4F3074C01F803C0C38801339BB2C380C4
S2140162000168C3889BB2C4F3072C01F803C0C38896
S21401621001339BB2C3800168C3889BB2CC54C38848
S21401622001339BB2C380BDE704276AE738467AE7A5
S2140162304406002000C002407805002054050020D6
S21401624070B52549254A264E002005F053FE254BFC
S214016250254900249C611A6C62F0FF021A645A6A8E
S214016260054642F00A0203205A62986522461A2021
S214016270347005F091FA1A20022105F0CDFA1A20A1
S21401628005F09EFA1DB1194B00221A7370BD18490C
S214016290184A022005F02EFE174B184902249C616D
S2140162A01A6C62F0FF021A645A6A42F00A025A62D3
S2140162B006462A469D651C2005F06EFA1C202146DE
S2140162C005F0AAFA1C2005F07BFA002EDBD1074B5D
S2140162D001221A7370BD00BFC4130020FC3F0200E8
S2140162E04406002000C0024069600100940A0020B4
S2140162F0F41300202C40020000E00240AD5F0100D4
S214016300454902788B5C2DE9F04703F0FF0413B191
S2140163100420BDE8F08743685BB1C6684EB1022A27
S2140163200AD8B0F810E0BEF5007F08D30220BDE819
S214016330F0870320BDE8F0870120BDE8F08757000D
S214016340364DDFF8E09007EB020C4FEA8C0C05EBBC
S2140163500C084FF0020A01F802A045F80C60A8F8F4
S21401636004E0A8F8064088F8084090F808C059F8F4
S21401637022604FF0FF3101EBCC01C1F30B0141F478
S21401638020113166017A002940D001F1FF3C53FA11
S2140163908CFC013B13F8011F634541EA0424F9D143
S2140163A0F36D03F00703032BFAD8022374664FEA52
S2140163B0CE01B3613469837C0139C1F30B0141F429
S2140163C0A01144F4007434613166CBB13A4405EB54
S2140163D08202137AE3B90446114E00E09EB100F042
S2140163E021FF237803EB430305EB8303013E1B7A6E
S2140163F0002BF3D0002E0CBF05200020BDE8F0874F
S2140164001846BDE8F0870520BDE8F0870C46C7E7CB
S2140164100020BDE8F08700BF440600205405002098
S214016420A0860100E43D02002DE9F04F424F3B5C9F
S21401643083B0054603F0FF0B1BB1042003B0BDE893
S214016440F08F0C4659B1022807D8531E3E2B16462C
S21401645007D9022003B0BDE8F08F0120EEE7032044
S214016460ECE7430103EB0009DFF8D480019300EB6E
S2140164704909C144012348467B5509F0A3FB2F492E
S21401648089F84060F300013B51F825A089F841B036
S21401649043F4002389F842B0CAF8603099F84130D5
S2140164A0B3422AD0DAF85C3003F00703032B24D872
S2140164B099F84130F31A032B30DC99F841C0CCEB44
S2140164C0060C1CF0FF0C2CD00021084699F841E080
S2140164D099F8412014F80EE0013101325FFA81FB90
S2140164E0D2B2E3454EEA002089F84120EED3CAF83D
S2140164F0640099F84130B342D4D1019B2B4405EB9B
S2140165004303434440335B78B3420CD0DAF8183087
S21401651043F00103CAF8183000208FE74FF0040C4F
S214016520D2E76046E3E7DAF8183043F48063CAF846
S2140165301830002082E700BF44060020E43D020038
S2140165407805002008B50A480A4A0121002302F00E
S21401655015FF18B1084B00221A7008BD012102F080
S2140165601BFF0028F6D1044B01221A7008BD00BF9C
S21401657058CCFF1F80080020940A0020044B0122FB
S214016580DA609A6A22F001029A620020FEF7D6B813
S21401659000700340044B0222DA609A6B22F001027B
S2140165A09A630120FEF7CAB800700340044B042228
S2140165B0DA609A6C22F001029A640220FEF7BEB8F5
S2140165C000700340044B0822DA609A6D22F0010243
S2140165D09A650320FEF7B2B80070034010B500209C
S2140165E0264905F045F900223020254905F0D4F862
S2140165F03020002105F010F900200146214A05F05F
S2140166006BF9044618B1204B00225A7210BD22467F
S21401661031201E4905F0C0F82146312005F0FCF86E
S214016620204601211A4A05F057F904460028EAD106
S21401663022463220174905F0AFF82146322005F0F0
S214016640EBF820460221144A05F046F904460028D4
S214016650D9D122463320114905F09EF83320214630
S21401666005F0DAF8204603210D4A05F035F9002831
S214016670C9D1054B01225A7210BD00BFE83F020086
S2140166807D65010014CBFF1F940A0020956501006B
S2140166902CCBFF1FAD65010044CBFF1FC565010074
S2140166A05CCBFF1F054B4FF03B42DA635FEA0E00FF
S2140166B0EFF30881EFF3098202F044B90CD7FF1F0C
S2140166C0054B4FF02A42DA635FEA0E00EFF30881CA
S2140166D0EFF3098202F036B90CD7FF1F054B4FF0D6
S2140166E00842DA635FEA0E00EFF30881EFF30982EE
S2140166F002F028B90CD7FF1F054B4FF04C42DA6366
S2140167005FEA0E00EFF30881EFF3098202F01AB98F
S2140167100CD7FF1F054B4FF05D42DA635FEA0E00B0
S214016720EFF30881EFF3098202F00CB90CD7FF1FD3
S214016730054B4FF06E42DA635FEA0E00EFF3088115
S214016740EFF3098202F0FEB80CD7FF1F054B4FF09E
S2140167501942DA635FEA0E00EFF30881EFF309826C
S21401676002F0F0B80CD7FF1FFEE700BFFEE700BF40
S214016770FEE700BFFEE700BFFEE700BFFEE700BF83
S214016780FEE700BFFEE700BFFEE700BFFEE700BF73
S214016790FEE700BFFEE700BFFEE700BFFEE700BF63
S2140167A0FEE700BFFEE700BFFEE700BFFEE700BF53
S2140167B0FEE700BFFEE700BFFEE700BFFEE700BF43
S2140167C0FEE700BFFEE700BFFEE700BFFEE700BF33
S2140167D0FEE700BFFEE700BFFEE700BFFEE700BF23
S2140167E0FEE700BFFEE700BFFEE700BFFEE700BF13
S2140167F0FEE700BFFEE700BFFEE700BFFEE700BF03
S214016800FEE700BFFEE700BFFEE700BFFEE700BFF2
S214016810FEE700BFFEE700BFFEE700BFFEE700BFE2
S214016820FEE700BFFEE700BFFEE700BFFEE700BFD2
S214016830FEE700BFFEE700BFFEE700BFFEE700BFC2
S214016840FEE700BFFEE700BFFEE700BFFEE700BFB2
S214016850FEE700BFFEE700BFFEE700BFFEE700BFA2
S214016860FEE700BFFEE700BFFEE700BFFEE700BF92
S214016870FEE700BFFEE700BFFEE700BFFEE700BF82
S214016880FEE700BFFEE700BFFEE700BFFEE700BF72
S214016890FEE700BFFEE700BFFEE700BFFEE700BF62
S2140168A0FEE700BFFEE700BFFEE700BFFEE700BF52
S2140168B0FEE700BFFEE700BFFEE700BFFEE700BF42
S2140168C0FEE700BFFEE700BFFEE700BF08B56FF0BA
S2140168D00D00D449002204F05FFF6FF00C00D2498E
S2140168E0002204F059FF6FF00B00D049002204F09B
S2140168F053FF6FF00A00CE49002204F04DFF6FF0FF
S2140169000900CC49002204F047FF6FF00400CA4991
S214016910002204F041FF6FF00100C849002204F094
S2140169203BFF00200246C64904F036FF0120C54958
S214016930002204F031FF0220C349002204F02CFF9C
S2140169400320C249002204F027FF0420C049002288
S21401695004F022FF0520BF49002204F01DFF062097
S214016960BD49002204F018FF0720BC49002204F0AC
S21401697013FF0820BA49002204F00EFF0920B94986
S214016980002204F009FF0A20B749002204F004FFA0
S2140169900B20B649002204F0FFFE0C20B449002269
S2140169A004F0FAFE0D20B349002204F0F5FE0E2095
S2140169B0B149002204F0F0FE0F20B049002204F095
S2140169C0EBFE1020AE49002204F0E6FE1120AD4990
S2140169D0002204F0E1FE1220AB49002204F0DCFEA6
S2140169E01320AA49002204F0D7FE1420A849002249
S2140169F004F0D2FE1520A749002204F0CDFE162091
S214016A00A549002204F0C8FE1720A449002204F07C
S214016A10C3FE1820A249002204F0BEFE1920A14997
S214016A20002204F0B9FE1A209F49002204F0B4FEA9
S214016A301B209E49002204F0AFFE1C209C49002228
S214016A4004F0AAFE1F209B49002204F0A5FE212087
S214016A509949002204F0A0FE23209849002204F060
S214016A609BFE27209649002204F096FE2820954991
S214016A70002204F091FE29209349002204F08CFEA6
S214016A802C209249002204F087FE2D2090490022F6
S214016A9004F082FE2E208F49002204F07DFE2F2076
S214016AA08D49002204F078FE30208C49002204F043
S214016AB073FE31208A49002204F06EFE3220894995
S214016AC0002204F069FE33208749002204F064FEA8
S214016AD034208649002204F05FFE392084490022D2
S214016AE004F05AFE3A208349002204F055FE3B206A
S214016AF08149002204F050FE3C208049002204F027
S214016B004BFE3D207E49002204F046FE3E207D4994
S214016B10002204F041FE3F207B49002204F03CFEA7
S214016B2040207A49002204F037FE442078490022AA
S214016B3004F032FE45207749002204F02DFE4E2057
S214016B407549002204F028FE4F207449002204F003
S214016B5023FE50207249002204F01EFE5120714986
S214016B60002204F019FE52206F49002204F014FEA0
S214016B7055206E49002204F00FFE56206C49002273
S214016B8004F00AFE58206B49002204F005FE5C2042
S214016B906949002204F000FE5D206849002204F0E5
S214016BA0FBFD5F206649002204F0F6FD632065497F
S214016BB0002204F0F1FD64206349002204F0ECFD9C
S214016BC065206249002204F0E7FD66206049002244
S214016BD004F0E2FD67205F49002204F0DDFD682035
S214016BE05D49002204F0D8FD69205C49002204F0CA
S214016BF0D3FD6A205A49002204F0CEFD6B20594984
S214016C00002204F0C9FD6C205749002204F0C4FD9F
S214016C106D205649002204F0BFFD6E205449002223
S214016C20A8E000BFA5660100C1660100DD6601009F
S214016C30F966010015670100316701004D67010023
S214016C40696701006D6701007167010075670100E2
S214016C50796701007D670100816701008567010092
S214016C60896701008D670100916701009567010042
S214016C70996701009D670100A1670100A5670100F2
S214016C80A9670100AD670100B1670100B5670100A2
S214016C90B9670100BD670100C1670100C567010052
S214016CA0C9670100CD670100D1670100D567010002
S214016CB0D9670100DD670100E1670100E5670100B2
S214016CC0E9670100ED670100F1670100F567010062
S214016CD0F9670100FD670100016801000568010010
S214016CE0096801000D6801001168010015680100BE
S214016CF0196801001D68010021680100256801006E
S214016D00296801002D68010031680100356801001D
S214016D10396801003D6801004168010045680100CD
S214016D20496801004D68010051680100556801007D
S214016D30596801005D68010061680100656801002D
S214016D40696801006D6801007168010075680100DD
S214016D50796801007D68010081680100856801008D
S214016D60896801008D68010091680100956801003D
S214016D709968010004F010FD6F201E49002204F0FE
S214016D800BFD70201C49002204F006FD71201B49F2
S214016D90002204F001FD72201949002204F0FCFCD7
S214016DA073201849002204F0F7FC742016490022CB
S214016DB004F0F2FC75201549002204F0EDFC762063
S214016DC01349002204F0E8FC77201249002204F05F
S214016DD0E3FC78201049002204F0DEFC79200F49FC
S214016DE0002204F0D9FC7A200D490022BDE80840B3
S214016DF004F0D2BC9D680100A1680100A5680100ED
S214016E00A9680100AD680100B1680100B56801001C
S214016E10B9680100BD680100C1680100C5680100CC
S214016E20C968010008B5144B02221A705A709A708C
S214016E30DA701A715A719A71DA711A725A729A72F2
S214016E40DA721A7304F0E0FCFDF73CF9FDF7B0F9CD
S214016E50FDF7F4F9FEF7D6FA00F010F8FDF7ECF9B5
S214016E6004F0C6FCFDF754F9FDF766F9FDF7EEFBF5
S214016E70FDF7CAFBFAE700BF940A00201A491B482F
S214016E801B4B1C4AF0B51C4C1C4D1D4F80260E603A
S214016E900C6188631C686FF04F0304EB84004FEAB3
S214016EA0001E03FB04F341F6F01041F6501403EB09
S214016EB0040C7444034470449BB21FFA8CFEA4B2C3
S214016EC080B2C1F818E00C64166015619563936191
S214016ED010640B6843F001030B60136801210B4338
S214016EE01360B971F0BD00BF006003400F0F0E00C4
S214016EF0F0CAFF1F001003403F3F3E00FFFFFE00A9
S214016F00940A00202DE9F0410446FDF7FFFB9A4B59
S214016F101A78052A15D0994D99492A6822F08002D7
S214016F202A600A6822F080020A60062C00F2E780D6
S214016F30DFE814F07A009800AE00C2005300E500C6
S214016F40D200052C00F0E3808C4EDFF84CC28D4950
S214016F508D4A8B4D8D4F4FF0800EC6F800E0C6F877
S214016F6010C0B163D2F800C06FF04F010CEB8C0279
S214016F7001FB0CF1120101F5CA5802F5CA5C01F5D4
S214016F80CF5102F5CF5208F1100810310CF1100C58
S214016F90103292B21FFA88F889B21FFA8CFCC6F832
S214016FA01880C6F840C0C5F800E02F61AF63A9613C
S214016FB02A64326822F0800232602A6822F0800257
S214016FC02A60062C00F2D580DFE814F02E004C0073
S214016FD0620076000700D300D10069496C4A674D0C
S214016FE08A6342F6E06E4FF4E6624FF4F067AA61F8
S214016FF05026684AC5F840E08F61CE641C70107058
S2140170005E4A5F4B116841F080011160196841F0DA
S21401701080011960116841F0010111601A6842F09F
S21401702001021A60BDE8F08100287FD1544E57490D
S214017030554AB163D2F800E0504F564A0EEB8E0126
S2140170406FF04F05090105FB0EF501F5CF5105F56A
S214017050CF551031103589B2ADB2BD613964B56115
S2140170603164CBE700286CD1454E4849464AB163A6
S214017070D2F800E0414F474A0EEB8E016FF04F0504
S214017080090105FB0EF501F59B5105F59B55E2E758
S214017090002861D13A4E3D493B4AB1631168374FEA
S2140170A03C4AC1F57A6501F57A61ADB289B2BD6136
S2140170B03964B561F164A1E73149304E344A8A63D7
S2140170C04FF4116542F6E06E5027B561314AC6F8B5
S2140170D040E08D61CF6491E72E4A117800298DD169
S2140170E02749264E2A4D8D6345F6C05E4FF47065DE
S2140170F05027B561C6F840E08D61CF647EE7254A2A
S2140171001C70052C10707FF47BAFBDE8F0811B4D21
S2140171101B492A681F4E22F080022A600A6822F064
S21401712080020A601C703070BDE8F0811449184A6C
S2140171308A63124D4FF4CD5245F6C05E41F6F01704
S21401714055E70F49124A8A630C4D41F2103245F653
S214017150C05E4FF49B574AE709490D4A8A63074DBB
S2140171604FF4706245F6C05E4FF475673FE7094A13
S214017170B6E7084A42E700BF470600200060034022
S214017180001003400F0F0E00F0CAFF1FFFFFFE00A6
S214017190F8F0F000480600203F3F3E0008B500200A
S2140171A0044905F01DF8044BB0FA80F04009587008
S2140171B008BD00BF4C400200940A00200A490B4B50
S2140171C04B600B68180509D4642302E013F0FF0333
S2140171D004D00A68120503F1FF33F7D5024A136893
S2140171E043F08003136070470020054020C528D96E
S2140171F00A490B4B4B600B68180509D4642302E05F
S21401720013F0FF0304D00A68120503F1FF33F7D524
S214017210024A136823F0800313607047002005407C
S21401722020C528D9014B024A5A6070470020054004
S21401723002A680B408B5002004F03EFEBDE8084072
S214017240FCF786BF08B500200246084904F046FC54
S2140172503A200749002204F09FFA3A20082104F058
S214017260DBFA3A20BDE8084004F0AABAEC3F020077
S21401727035720100002004F029BE00BF00F0E2B91B
S21401728000F08CB908B500F00DF9044801F0A8FA31
S214017290034801F0BFF9012008BD00BF817201005B
S2140172A07D72010080B20023FDF77CBE016840F2CA
S2140172B00223994201D00020704710B5144B027B7F
S2140172C019601A73EAB101791971012A19D941793C
S2140172D05971022A15D081799971032A11D0C17981
S2140172E0D971042A0DD0017A1972052A09D0417A7A
S2140172F05972062A05D0817A9972072A01D0C27A74
S214017300DA7201245C7300F049FA204610BD00BF12
S2140173103C13002008B1014B18607047A4130020ED
S21401732008B1014B186070474C13002008B5FEF7F2
S214017330F1FDB0FA80F0400908BD00BF08B5FEF7C0
S2140173400DFEB0FA80F0400908BD00BF03460846AE
S2140173501946FEF7DDBD00BF00B585B010226846B0
S2140173604FF08051FEF7D4FD0A4B009A9A4203D0A3
S214017370002005B05DF804FB4FF47E51064801F08D
S214017380D1F8BDF80C30181AB0FA80F0400905B0F3
S2140173905DF804FBE1A5A10D8000001010B50D4CB1
S2140173A084B04FF47E51204601F0BCF804A90A4B84
S2140173B041F8103DADF80C004FF47E5310224FF00B
S2140173C0805001940293FEF7C9FDB0FA80F040099F
S2140173D004B010BD80000010E1A5A10D2DE9F0411B
S2140173E02D4E3568854282B004460F4607D8DFF831
S2140173F0B080D8F800104B199B1A984213D9274B26
S2140174001B689C420BD326490968881A03449C4290
S21401741005D8BD4203D80D44AD1AAF421BD9002092
S21401742002B0BDE8F0811D4B1B68BB42E9D8194488
S214017430891A8F42E5D8019204F0E6F9FFF7F2FEC9
S2140174403068D8F80010FFF771FF88B9019004F092
S214017450CFF90198E4E70192FFF77EFF019A08B998
S2140174600120DDE738462146FFF770FF0120D7E708
S214017470FFF7D8FE20463946019AFFF75FFF04461C
S214017480FFF7D0FE04F0B4F9002CC8D002B0BDE876
S214017490F041FFF783BF00BF50130020A80A002069
S2140174A0AC0A00202DE9F84F0024294B29481C700E
S2140174B0214640F6840208F0ABFB274ADFF8BCA061
S2140174C0264BDFF8BCB0DFF8BC90DFF8BC80146058
S2140174D002F10C00CAF8004054609460DFF8ACC0BA
S2140174E00460DFF8ACE01E481E4A1F4F1F4E204DB9
S2140174F0DFF8A0A05C6040F203219C60DC601960AC
S214017500ABF800401B4BC9F80040C8F800401A49C8
S214017510DFF88480CCF800404FF47E5B4FF470496E
S21401752039603360CEF80030C5F800B0C2F800907C
S214017530C0F80080CAF80000FFF70EFF044620B12D
S214017540386831682A68FFF701FF2046BDE8F88FE2
S214017550A0130020B00A00203C130020581300207E
S214017560A81300203813002050130020A80A00207A
S214017570AC0A00200080FF1F80000010341300209A
S2140175804C060020AC130020A41300204C1300204E
S21401759054130020A40A0020AC33DE5E284B5A7830
S2140175A0012A14D093F8B5212549012A3CD093F835
S2140175B069232349012A2BD093F81D252049012A46
S2140175C01AD093F8D1361E4A012B09D07047DA88B3
S2140175D0002AE7D01A89002AE4D0013A1A81E1E7A5
S2140175E0B2F8D636002BF1D0B2F8D836002BEDD053
S2140175F0013BA2F8D836E9E7B1F82225002AE0D007
S214017600B1F82425002ADCD0013AA1F82425D8E7D0
S214017610B1F86E23002ACFD0B1F87023002ACBD060
S214017620013AA1F87023C7E7B1F8BA21002ABED003
S214017630B1F8BC21002ABAD0013AA1F8BC21B6E7BC
S214017640B00A00202DE9F04F85B00023504C514E72
S21401765001931F4602937378012B11D0019A0732CA
S214017660D2B20192029A07F5DA7740F68403013224
S2140176709F42029206F5DA76EDD105B0BDE8F08FAD
S2140176803589002DEAD1F388029A33814FF4DA73F3
S21401769003FB02F30393039AC5EB051302EB830383
S2140176A03C4A1344019A5B7C02EB050E5FFA8EFEA0
S2140176B0002B6AD003F1FF3C5FFA8CFC2BB207EB80
S2140176C0CC0CC3EB0313334A9B000CF1080C9C440F
S2140176D03B44944413440121002206E0022824D0AE
S2140176E0042832D0083363450FD0187D02440128A0
S2140176F0D2B2F3D1986904EB01080833007888F810
S214017700040001316345C9B2EFD10132D3B21A4642
S214017710F0682149237384F804E00135FFF7C2FDC0
S214017720B378EDB2AB42B6D298E7986901F1010899
S214017730008804EB010954FA88F889F8040002313C
S214017740001288F80400C9B2CCE7986904EB010B73
S21401775000688BF8040001F1010A01F1020954FAEC
S2140177608AFA01F103084FEA202B54FA89F954FAF0
S21401777088F88AF804B004314FEA204A001689F8DE
S21401778004A0C9B288F80400ACE70123BFE700BF34
S21401779058130020B00A00205C1300202DE9F04F9A
S2140177A0AA4D2B7887B0002B69D0012B64D1A84C49
S2140177B02379013B222B00F2B380DFE813F0AD04FE
S2140177C0CF049304A501D601E801FD01C100D8004C
S2140177D0B100B100ED0001011501230061018F0127
S2140177E0D30209031B0350031802B10214045904FF
S2140177F0B1006703B100B100B100B100B100B4033C
S214017800DA037D03A279E37AA57A617A207A052ADA
S21401781000F201851B068F4E03EB054303443068D7
S21401782003EB0121814205D38B4B1B688D1818444D
S21401783085420BD9894B1B689942C0F064858848FC
S21401784000688D1803449D4200F25D858548A0F1CD
S214017850070808F0B7F90023082288F8053088F8E9
S2140178600C20637988F80630D8F800007E49FF239B
S21401787088F80430FFF716FD07B0BDE8F08F744AAC
S2140178801179012921D00529F6D17849D47993793E
S214017890DFF8E0810888527988F8062043EA042355
S2140178A041460324984214BF32230023FF25224673
S2140178B051F8040B88F8053088F8045088F80C4015
S2140178C0FFF7F0FC07B0BDE8F08F684CD6799079E9
S2140178D0DFF8A0815279248888F8062040EA06223B
S2140178E094424FF0FF064FF0030088F8046088F8D2
S2140178F00C0000F04E845E4A2B7012686B703223C7
S21401790088F80530002A00F02684904798F80C2065
S214017910D8F800005449FFF7C5FC07B0BDE8F08F62
S214017920544B62799A7119460324FF263025224664
S21401793051F8040B1E715D711C73FFF7B3FC9BE7D6
S214017940A379012B00F0B7844BB94B4A537082F8E8
S214017950B53182F8693382F81D3582F8D136454B48
S21401796062799A7119460324FF260025DFE7414B09
S21401797062799A7119460825FF2200241A7151F876
S214017980040B5C712A46DC711C725C729C72DC72A0
S2140179901D73FFF787FC6FE7364B6279A6799A71FC
S2140179A0194603244FF0FF0E0027224651F8040B18
S2140179B083F804E05F71EE701C73FFF773FC5BE7FE
S2140179C02C4B617999711946EA78DA7106250024FB
S2140179D0FF2651F8040B1E712A465C711C725C72FC
S2140179E01D73FFF75FFC47E7217A637AA279E57991
S2140179F02248090401EB0363134413EB05250668CB
S214017A0000F0D884AF19002516F8013B1D44FFF796
S214017A1009FCBE42ADB2F7D1EAB22D0A154B617927
S214017A2099711946082600244FF0FF0E02271A7294
S214017A3051F8040B5D72324683F804E0DF715C7125
S214017A409C72DC721E73FFF72DFC15E7A013002055
S214017A503C13002050130020AC0A002054130020D1
S214017A60381300205F1300205C1300204C06002012
S214017A704C13002058130020B00A002034130020B5
S214017A80C14BC2481D680668627A94F808E0E1793D
S214017A90A379AE420DD31206BD4E0768366802EBD7
S214017AA00E42134403EB0121CB193544AB4240F29D
S214017AB04184DFF8E482322388F8053003236279B3
S214017AC088F80620FF24D8F80000B24988F80C3060
S214017AD01A4688F80440FFF7E5FBCDE6AE4BEE7894
S214017AE062799A7119460327FF244FF0000E1C7124
S214017AF03A4646F0010451F8040B83F805E01F737B
S214017B00EC70FFF7CFFBB7E6A679052E00F265838A
S214017B109E4D9D4B2A681B689A4206D39C4A29684B
S214017B2012683144134499420ED99C4B2A681B684B
S214017B3096499A42C0F0B383994A0968126831445B
S214017B401344994200F2AB83964829683246A0F165
S214017B50070808F037F82B6800211E4408222E601B
S214017B6088F8051088F80C207BE68F4BE079A2791F
S214017B70DFF824821B88617988F8061042EA002221
S214017B8041460324934214BF322300238EE6E27952
S214017B908649042A40F2498332267F4B62799A71DC
S214017BA019460324FF25224651F8040B5E711D7108
S214017BB01C73FFF777FB5FE67B4A617A237A1288AC
S214017BC07A4843EA01239A427FF473AF83796B7054
S214017BD0774E002B40F0C983DFF8BC813370754BBC
S214017BE01B6803B19847002388F8053066E7724B97
S214017BF0A179E2797148DFF8D0E18DF817101A7093
S214017C000278217A9EF8003000914FF4DA716C4DBB
S214017C10E77A94F80A8094F809C001FB02F2C3EBF4
S214017C20031302EB83032B445B7C002B00F0CA8218
S214017C3002789EF800309DF8179001FB02F2C3EB24
S214017C40031302EB83032B449B7C9944B9F1070F82
S214017C5000F363839DF8172003789EF8009001FBDC
S214017C6003F1C9EB091301EB83032B44DFF85C91A5
S214017C70997C0A449A7403789EF8001099F800B02B
S214017C801E4603789EF80020019399F800A09DF8FF
S214017C9017300293C1EB0111C2EB02120378039372
S214017CA0890092009EF8003099F8009000789EF8BE
S214017CB000E002EBCA0201EBCB014FF4DA7A0AFBD1
S214017CC00611019EC3EB03130AFB0622CEEB0E1E22
S214017CD0039E9B000AFB00F000EB8E0003EBC9033A
S214017CE028440AFB06333F06009E90F811E007EB96
S214017CF0084737442944AE18DFF89C801D4407EB3B
S214017D000C234FF0010C0EEB0C0200278B619DF843
S214017D100830337585F815C0427488F80570CDE6CD
S214017D20284B1D4D1E686379AB710024FF23304636
S214017D302B716C7107F074FF29460823DFF84CC0DD
S214017D40E8714FF0020E03271A4651F8040BAC7285
S214017D50EC72CCF8006085F808E06F722B73FFF7C1
S214017D60A1FA89E50C4B62799A7119460424FF221F
S214017D7000251A7151F8040B5D712246DD711C73E2
S214017D80FFF790FA78E500BF501300203413002067
S214017D90AC0A00205C130020581300205413002066
S214017DA0381300205F1300204C0600203C130020EF
S214017DB0A01300204C1300204B0600204A0600208A
S214017DC0B00A0020A40A00204E0600204906002022
S214017DD0B54B62799A7119460424FF2700260325BC
S214017DE0224651F8040B1F715E71DD711C73FFF79B
S214017DF059FA41E5A579AD4E042D00F2FB81AC4F51
S214017E00DFF8A4824FF4DA7202FB057700213846C8
S214017E1007F0FEFEB17AF37A327A707A090401EB42
S214017E2003631344C5EBC50503EB00230722FB6080
S214017E3088F8085088F807200523627988F8062014
S214017E40FF250024D8F800009A4988F80C301A4615
S214017E5088F8045088F80540FFF724FA0CE5964B9D
S214017E60964A9749A679E579207A1E7015700870AA
S214017E701B78042B3FF690AE1378062B3FF68CAE9C
S214017E800B78062B8CBF3226002686E6864B627957
S214017E909A71194605244FF0FF0E00270226012588
S214017EA0224651F8040B83F804E05F71DE711D72FF
S214017EB01C73FFF7F7F9DFE4824D834B2A681B68D2
S214017EC09A4207D3814A29681268063113449942B7
S214017ED040F25382DFF8D0813222002388F8052051
S214017EE02B607B4A637992F800C095F800E06F78C2
S214017EF0AE78ED7888F806300823FF24D8F800001D
S214017F006C4988F807C01A4688F808E088F80970AE
S214017F1088F80A6088F80B5088F80C3088F8044016
S214017F20FFF7C0F9A8E4E279A37943EA0223112B0B
S214017F3000F0A281122B40F09D81664A634B1068C7
S214017F401968FFF7F3F9002800F094810025564BD5
S214017F5062799A7119460524FF265D7151F8040B62
S214017F601E7100252246DD711D721C73FFF79AF9FA
S214017F7082E4544D574B2A681B689A42C0F015811B
S214017F80524A2968126806311A44914200F20D815C
S214017F90514F7A681AB929688B4200F0608297F8C7
S214017FA036304D4E002B00F0BF81B38E4B4803F1A7
S214017FB00C0106339BB201EB060ED0F800C0808898
S214017FC041F806C01F2BAEF80400B38600F21A82F1
S214017FD02B68DFF8D4800632063300217A602B60E6
S214017FE088F805107DE7A679364D052E00F2E48067
S214017FF0384B2A681B689A42C0F0D780DFF8CC80DD
S2140180002968D8F8002031441A44914200F2CD8004
S214018010314F002E00F02A827A681AB92A689342F4
S21401802000F06F8297F83630DFF8AC80002B00F056
S2140180307B81B8F834902949721E09F10C00D2B23E
S2140180404044013207F0BEFD09EB06039BB21F2B2D
S214018050A8F8343000F229822B687A68DFF8488065
S21401806032441E4400237A602E6088F8053038E7D3
S214018070237A667AA579E27919481249006809686F
S2140180801B0403EB06632B4403EB0222FFF7A6F95E
S214018090054B62799A71002819464FF0030414BF04
S2140180A0002633267EE500BF581300203C1300202F
S2140180B0B00A00205C1300204A0600204E0600206D
S2140180C04906002034130020A80A0020AC0A00202C
S2140180D04F06002050130020681300204313002091
S2140180E0AC130020A679052E00F28C80B64DB74B56
S2140180F02A681B689A4207D3B54A29681268314430
S2140181001344994240F24881DFF8F4823322002377
S21401811088F805202B60E4E6AE4AE179A379DFF81A
S214018120E0821288607988F8060043EA0123FF207E
S21401813003219A4288F8040088F80C1000F0A58004
S214018140A54B1A683221002388F805102B706B7036
S214018150002A7FF4DAAB0322FFF7DABBA37AE57ACB
S214018160227A607A9D4EA179E77937701B0403EB7A
S2140181700563134403EB0023002974D001297FF41F
S21401818098AC974ADFF878821360002388F80530A8
S21401819094E4944A88F8053013682970002BDAD0E5
S2140181A0984798F80C20FFF7B3BB884B2A681B68E2
S2140181B085499A4228BF0B68DFF84482322388F843
S2140181C005308EE69DF8172090F800909EF8003056
S2140181D001FB09F1C3EB031345E5DFF824827A4B73
S2140181E032200322002188F8050088F80C20196047
S2140181F0FFF737BBDFF80882002388F8073088F8D6
S214018200083019E6DFF8F8816F4D3222002388F82E
S21401821005202B6065E6DFF8E8813223032288F823
S214018220053088F80C20FFF71CBB4E7A91F80BC07E
S2140182308D7A6D486D4B30F8160091F806E00F7A8E
S21401824005EB0C25ADB24FF4DA7C0CFB023310FBC8
S21401825005F18AB2DE709D80DA801A8183F801E02A
S2140182609F70002699E4584ADFF89481136088F8D5
S214018270051023E432256AE65D49544A544B0868E2
S21401828011681A68FFF7AAF85DE6564B1B680021CD
S214018290012288F805102A70002B81D15BE7DFF8F0
S2140182A0608133210322002388F8051088F80C200A
S2140182B02B60FFF7D6BA4D4D6A78022A08BF6B705D
S2140182C095F8B531494A022B04BF012382F8B5312E
S2140182D095F86933454A022B04BF012382F86933B6
S2140182E095F81D35414A022B04BF012382F81D353E
S2140182F095F8D1363D4A022B7FF431AB012382F843
S214018300D136FFF72CBBDFF8F8803323032288F839
S214018310053088F80C20FFF7A4BADFF8E4800123C3
S21401832088F80530FFF7CABBDFF8D480332388F816
S2140183300530D6E50068FEF7F9FF00283DD02D4947
S214018340DFF8BC8000220A604A608A6088F805204F
S214018350CA600A614A618A61CA610A624A628A62BD
S214018360CA620A634A63FFF7A9BB012B65D0DFF82F
S2140183709080322388F8053031E41F492A680B685B
S21401838013602B68DFF87880898891800633002295
S2140183902B6088F80520A4E5324628681749DFF8DF
S2140183A0608007F00FFC2B6800221E442E6088F8C0
S2140183B0052096E52A46FFF731BBDFF844803323D4
S2140183C088F80530FFF77ABB34130020A80A00208E
S2140183D0AC0A00204C0600204C1300204F0600205B
S2140183E0AC130020A4130020F03D0200B00A0020C8
S2140183F0501300206813002042130020431300206E
S21401840058130020B06806F10C012022FEF796FFF3
S214018410002889D0B28E2B68203A063392B2B36018
S214018420B28600233AB1F9180133DBB291F82C0079
S21401843008739A42F7D87A68CAE5002540F684029E
S214018440294633483570B570F57007F0E1FB314ABF
S214018450314B1560DFF8C8801D60FFF7C0BB0120F7
S21401846029683B6087F83600B96098E5BA8E1F2AFE
S2140184700BD833463046C2F120013B440136134443
S214018480F6B28E4218733346F7DB244EB86806F10F
S2140184900C012022FEF752FF20B17268D8F8003096
S2140184A09A4223D0DFF878801BE5D8F8080008F157
S2140184B00C012022FEF742FF00283FF435AFB8F842
S2140184C034302A68203B9BB23244A8F83430C8F8CE
S2140184D00820002B3FF4C0AD0022B9180132D2B2F9
S2140184E091F82C0008739342F7D8B5E5FEF756FFCE
S2140184F0DFF82C8000283FF4F4AC002388F8053020
S214018500EFE401212A683B6087F83610BA6089E5F6
S214018510B00A002034130020AC130020681300209A
S21401852058130020F8B53A4C0023238022880D46C4
S214018530074696B203F068F9002D65D038463D44EB
S21401854010F8013B710881F404425E4016F0010FF9
S21401855082F0080292B208BF0A4692B25B08560839
S2140185605A4012F0010F86F4044181F0080108BF59
S21401857031464E085B08594086F4044211F0010F5B
S21401858082F0080214BF114631464E085B08594076
S21401859086F4044211F0010F82F0080218BF164655
S2140185A071085B085E4081F4044216F0010F82F008
S2140185B0080218BF11464E085B08594086F404426B
S2140185C011F0010F82F0080218BF164671085B0809
S2140185D05E4081F4044216F0010F82F0080218BFD3
S2140185E011464E0886F4044281EA530313F0010F44
S2140185F082F0080218BF1646A842A1D1268003F0D1
S214018600F7F8208880B2F8BDF24396B2F6E700BFCD
S2140186105006002030B4D0B1224B5A78E2B15A7AD3
S2140186203AB35A7C42B35A7E4AB393F821204AB3EE
S21401863093F829204AB393F831204AB393F83920A6
S2140186404AB393F8412032B193F8492032B3FF2060
S21401865040B230BC70470822144603EBC40103F84D
S214018660342001254860D0B24D708D7040B230BCC8
S214018670704701221446F0E702221446EDE7032272
S2140186801446EAE704221446E7E705221446E4E71F
S21401869006221446E1E707221446DEE709221446BD
S2140186A0DBE700BF5406002010B5324C637813B1E7
S2140186B0A378002B42D1637A2E4A13B1937A002B0A
S2140186C03FD1637C2B4A13B1937C002B3CD1637E54
S2140186D0284A13B1937E002B39D194F82130254ACC
S2140186E01BB192F82230002B34D194F82930214A5C
S2140186F01BB192F82A30002B2FD194F831301D4A45
S21401870013B192F832305BBB94F83930194A13B181
S21401871092F83A303BBB94F84130164A13B192F8BE
S21401872042301BBB94F84930124A13B192F84A30D2
S21401873003B910BDD36CBDE810401847636898476D
S214018740B9E7D3689847BCE753699847BFE7D36949
S2140187509847C2E7536A9847C7E7D36A9847CCE772
S214018760536B9847D0E7D36B9847D4E7536C984739
S214018770D8E700BF54060020002342804160037002
S2140187804370704738B5057890F901206BB29B1A93
S2140187900F2B01DD002038BD04464288406805F0F5
S2140187A00F0505FB020007F00DFA2378013323704D
S2140187B0012038BD38B5437802789A420ED04288F7
S2140187C04568044603F00F03084603FB025107F011
S2140187D0F9F9637801336370012038BD002038BD94
S2140187E030B4D0B1224B5A78E2B15A7A3AB35A7CB5
S2140187F042B35A7E4AB393F821204AB393F829200C
S2140188004AB393F831204AB393F839204AB393F820
S214018810412032B193F8492032B3FF2040B230BC38
S21401882070470822144603EBC40103F834200125DF
S2140188304860D0B24D708D7040B230BC7047012296
S2140188401446F0E702221446EDE703221446EAE74F
S21401885004221446E7E705221446E4E706221446F6
S214018860E1E707221446DEE709221446DBE700BFEC
S214018870A406002010B5324C637813B1A378002B00
S21401888042D1637A2E4A13B1937A002B3FD1637C8F
S2140188902B4A13B1937C002B3CD1637E284A13B13B
S2140188A0937E002B39D194F82130254A1BB192F8DA
S2140188B02230002B34D194F82930214A1BB192F88A
S2140188C02A30002B2FD194F831301D4A13B192F87B
S2140188D032305BBB94F83930194A13B192F83A300A
S2140188E03BBB94F84130164A13B192F842301BBB99
S2140188F094F84930124A13B192F84A3003B910BDC0
S214018900D36CBDE81040184763689847B9E7D36849
S2140189109847BCE753699847BFE7D3699847C2E7CA
S214018920536A9847C7E7D36A9847CCE7536B98478B
S214018930D0E7D36B9847D4E7536C9847D8E700BF86
S214018940A406002010F0040F08BF0A462DE9F041E6
S21401895092E80051164BD768166955699469D16932
S214018960C3F800804FF0E022C3F804C0C3F808E063
S214018970DF601E615D619C61D961D2F8281D1962B4
S214018980D2F82C1D5962D2F8301D9962D2F83C1DDE
S214018990D962D2F8341D5963D2F8382D1A634CF6D1
S2140189A0DD4298631A64BDE8F041FBF72BBA00BFBD
S2140189B00CD7FF1F2DE9F04F2B4B850005EB000C64
S2140189C003EB8C0C0023DCF80C7083B01C46BC4215
S2140189D0814698460193E2461E4604F1010B01A822
S2140189E04FF0040214D0AEB9DAF80030191FDAF8E5
S2140189F0083003FB0B11FDF78BFA019B013310D0F6
S214018A005C46BC4204F1010B01A84FF00402EAD116
S214018A1004F1FF3874B95FFA88F0013003B0BDE89D
S214018A20F08F24B104F1FF3801265C46E9E7012600
S214018A305C46E6E70C4BA94403EB890A01A8DAF881
S214018A400430DAF80810043B01FB07310422FDF775
S214018A505FFA019B0133DED0B8445FFA88F001303B
S214018A6003B0BDE8F08F00BF003E0200034B00EBF1
S214018A70800003EB80039868704700BF003E020049
S214018A8001288CBF00200120704700BF70B51F4C25
S214018A904378257863773DB11021AA220123A17777
S214018AA0E2776570237070BD052365612370E5600C
S214018AB0037863608378A3602583C378A376A07E5A
S214018AC0FFF778FFA368984213D2BB211022012337
S214018AD06570E177A2772370A07E0C4CFFF7D0FF7C
S214018AE090B91021CC220123A177E2776070237020
S214018AF070BD0126A07EA677FFF7B8FF0223267079
S214018B002061E5776370E7E770BD00BFF4060020DB
S214018B10F0B5324E324D83B03446771D28460021DB
S214018B20012200F049F904F8010BBC4205F10C05DD
S214018B30F4D12C4C2C48E18B41F2883389B203FBEB
S214018B4001F141F30F3103F081FB238C70819BB25D
S214018B5040F63B72934225D94FF2FA3263899FED74
S214018B60235ADFED236ADFED235A9FED236AF28055
S214018B709BB207EE903AB8EE677AF1EE047A27EEEA
S214018B80277A67EE057AB0EE667AA7EEE57A67EEA3
S214018B90867AC7EE877AFCEEE77A17EE903A33814B
S214018BA003B0F0BD238C9FED156A9FED117ADFEDC2
S214018BB0146A9BB203EB830307EE903AFAEECA7A85
S214018BC0A7EEC67A67EEA67AC7EE877AFCEEE77A54
S214018BD0CDED017ABDF80420C0E700BF18070020DC
S214018BE024070020600A0020640700200000803966
S214018BF0C06E0F4A80BCFE48AA3AA65080DCE84800
S214018C0074FD784E2DE9F041134E144C144D00239B
S214018C10F3803381738104F1B40802272846214684
S214018C20243400F0C1F8444505F10C0506F8017B33
S214018C30F4D10C4A0C4B118819800C4A0C485A6026
S214018C40012100F06FF80B4A0B4B1070C043C0F3C4
S214018C50C0109872BDE8F08118070020283E020077
S214018C6024070020DC3E020064070020E03E0200EC
S214018C70118B010060070020940A002004289ABF87
S214018C80014B185C02207047180700200F4B1B7819
S214018C90D3B10F4B1B78BBB1591EC9B20D4B013175
S214018CA030B403EB011101251A784AB1587838B966
S214018CB05A689C680132A2425A6024BF5D705860AF
S214018CC010338B42F0D130BC704700BFF4CAFF1F8F
S214018CD00D0800206C0700200F4B1B78DBB12DE937
S214018CE0F041DFF83C8098F8002092B100240B4D4B
S214018CF027462301EE18EB5C3BB173782BB1F36882
S214018D001BB1984798F8002077700134E4B2A2426C
S214018D10EFD8BDE8F0817047F4CAFF1F6C0700204A
S214018D200D080020F0B50C4C2378092B12D80B4FF8
S214018D301E01BA194FF0010C002503EB0C0E07F8C3
S214018D4006C0D06091605560557084F800E0D8B2D6
S214018D5040B2F0BDFF20FBE70D0800206C070020A5
S214018D60014B01221A707047F4CAFF1F08B5054867
S214018D70FFF750FC044B18700448FFF731FD044B15
S214018D80187008BDD98C01000C0800208D8C0100DC
S214018D900E080020092803DC0001024B00221A54A9
S214018DA0704700BF6C070020002302228160027119
S214018DB003804380704700BFF0B5044642B1836824
S214018DC01A78042A04D8DFE802F0206F5D690700EC
S214018DD0022323711846F0BD59691A8B098811427E
S214018DE03FD12288198C2079531C9BB21DB20AB23E
S214018DF09542238061DB01232180237100284BD11A
S214018E006288013218466280F0BD5A69D3F804C000
S214018E101088DD681A695F8B00FB0CF00028B8BF6C
S214018E2000F2FF3002EB050E85124FF47A760EFB48
S214018E3005F595FBF2F2CCEB020C891A9D6806FB50
S214018E4002F206FB0CFC92FBFEF006FB01F19CFB1A
S214018E50F5F2024491FBF2F2002AB8BF5242974261
S214018E60BFDC2288198C2079531E9BB20AB21DB230
S214018E7052429542238021DC0023494221802371FE
S214018E801846F0BD5A69D98B12889142E9D9998B57
S214018E909142A6D2032323711846F0BD59691A8B55
S214018EA0098811429DD1DCE75A69D98B1288914213
S214018EB097D9998B9142EDD3D3E7F0BDF0BD00BFB2
S214018EC0024B4FF6F0721A60704700BFB0130020D5
S214018ED00146827A31F8020B0023FCF763B800BF23
S214018EE010B584B0044600216846FCF719F968B14C
S214018EF09DF80C20009BA272238032B1013AD2B2B7
S214018F000132A01C01A906F05DFE012004B010BDCF
S214018F100346021D197B008800F010B8704700BF99
S214018F2030B1022803D1044B00221A7070477047F3
S214018F30014B01221A7070470F08002030B540F22D
S214018F40014398428BB0044672D040F20C439842DB
S214018F5025D0B0F5806F02D000200BB030BD544B49
S214018F60544A1B681968914200F08F80002304223E
S214018F708DF806208DF807308DF808308DF8093009
S214018F808DF80A304FF48262052301A8ADF804205B
S214018F908DF80E30FFF79CFF00200BB030BD137824
S214018FA0012BD9D102214122FE2301A840F21C4502
S214018FB0ADF804508DF80E108DF806208DF80730A8
S214018FC0FFF786FF0020FFF7ABFF002003F016F93E
S214018FD004A8FFF785FF0128F7D1BDF81030A3429A
S214018FE0F3D19DF81250022DEFD12846FFF798FFD6
S214018FF040F21C414222FE2307A88DF82650ADF808
S2140190001C108DF81E208DF81F30FFF761FF4FF4FE
S2140190102054013C0020A4B203F0F0F8002CF8D153
S21401902002F0F2FBFFF77AFFFAF7ECFE012094E775
S2140190301378552B90D15478FE2C8DD140F21142E5
S214019040AA23022501A88DF80740ADF804208DF863
S21401905006308DF80E50FFF73BFF40F20C4201231D
S21401906007A88DF81F408DF82650ADF81C208DF806
S2140190701E30FFF72DFF4FF42054013C0020A4B210
S21401908003F0BCF8002CF8D1CAE75A79013A42F04D
S2140190900C028DF806209A798DF80720DA798DF87A
S2140190A008201A7A8DF809201B798DF80A3069E7AD
S2140190B0B0130020D71001B080B500AF03F026FE34
S2140190C00448FFF78DFB0448FFF7A4FA034800F0B5
S2140190D019F880BDED900100E1900100F0C0FF1F7E
S2140190E080B500AF03F032FE80BD00BF80B500AF93
S2140190F003F026FE80BD00BF80B400AFBD465DF81C
S214019100047B704780B582B000AF7860786804F061
S214019110DBF80837BD4680BD80B400AFBD465DF8BC
S214019120047B704780B582B000AF00237B603B1D97
S21401913040201946042200F00FF87B68B3F1FF3F88
S21401914005D0044B40201946E02200F005F8083708
S214019150BD4680BD00C0FF1F80B586B000AFF86079
S214019160B9601346FB80FB880F2B02D8FB88DBB265
S21401917000E01023BB750023FB7517E0BB7DF86884
S214019180194603F00DFB3861BA68BB7D1046396994
S2140191901A4606F017FDBB7DFA681344FB60BB7DDB
S2140191A0BA681344BB60FB7D0133FB75FB7D9AB245
S2140191B0FB881B099BB29A42E0D3FB88DBB203F023
S2140191C00F03BB75BB7D002B0CD0BB7DF868194621
S2140191D003F0E6FA3861BA68BB7D104639691A466B
S2140191E006F0F0FC1837BD4680BD00BF80B483B0E2
S2140191F000AF0346FB710C37BD465DF8047B704734
S21401920080B582B000AF78603B1D4FF48060194690
S214019210042200F077F80837BD4680BD80B400AF61
S214019220BD465DF8047B704780B400AFBD465DF86F
S214019230047B704784B080B500AF07F1080E8EE856
S2140192400F003B7A002B09D1FB68DBB207F1100255
S214019250002011461A46FDF7E7F838E03B7A012B65
S21401926035D1FB68022B19D11B4B00221A701A4A02
S21401927007F110035360184B04221A727B6A164AD0
S214019280D360FB689BB2013B9AB2134B1A82124B16
S21401929000229A741048FDF733F818E00E4B0022AE
S2140192A01A700D4A07F1100353600B4B04221A7211
S2140192B07B6A094AD360FB689BB2043B9AB2064BB1
S2140192C01A82054B00229A740348FDF719F8BD4629
S2140192D0BDE8804004B070471008002080B500AF9C
S2140192E003F01AFF80BD00BF80B400AFBD465DF835
S2140192F0047B704780B400AF01231846BD465DF875
S214019300047B704780B582B000AF03463960FB80AE
S21401931013467B71FA887B79104639681A46002312
S214019320FBF740FE034618460837BD4680BD00BF22
S21401933080B582B000AF78607B681B689AB20B4B31
S2140193405A817B681A7B094B1A727B681A1D074B78
S2140193501B7A064811461A4606F034FC034803F009
S214019360F7FB034618460837BD4680BD2408002093
S21401937080B500AF002002F041FF80BD10B4054C5F
S21401938020602171A2602373637300205DF8044B93
S214019390704700BF300800202DE9F047DFF88091C4
S2140193A082B00F468DF8051080468DF8040002F055
S2140193B02BFA99F80C1089F80D1001238DF8063058
S2140193C000293FD0002F00F08B80002634464D4602
S2140193D007E0297B6C7340F203160134E4B28C4239
S2140193E014D223B2D9F8082052F8233001A8002B52
S2140193F0F3D01A79022AF0D01A68996890470028A3
S214019400E7D1297B0134E4B28C42EAD3DEB1012FE5
S21401941019D025B200238DF8063001E0DCB225B262
S214019420D9F8083053F8253001A813B11A6899689D
S2140194309047631E002CF1D102F0DAF9304602B0F3
S214019440BDE8F0870C46D9F80030354D53F82800B2
S21401945005F06AFA89F8058006460028D9D1297BE5
S21401946002238DF806300029E6D0044647B922E0EB
S214019470297B6C734FF482760134E4B28C42DBD2E2
S21401948023B2D9F8082052F8233001A8002BF3D0D4
S2140194901A79012AF0D01A68996890470028E7D10E
S2140194A0297BE9E71A6899689047A8B9297B0134AE
S2140194B0E4B28C42C0D223B2D9F80820184F52F831
S2140194C0233001A8002BF2D01A79012AEAD10134FF
S2140194D0E4B28C42EFD3AFE77C734FF48276ABE70E
S2140194E03C464E4604E0317B0134E4B28C42AAD2BB
S2140194F025B2D9F80830DFF828A053F8253001A89E
S214019500002BF1D01A79022AEED01A689968904792
S2140195100028E8D08AF80D4040F203167AE700BF2B
S2140195203008002080B483B000AF78600B46FB7033
S214019530FB78002B04D17B684FF48032DA6074E04C
S214019540FB78012B04D17B684FF0FF32DA606CE0C8
S214019550FB78022B04D17B684FF0FF32DA6064E0BF
S214019560FB78032B04D17B684FF40042DA605CE0A1
S214019570FB78042B03D17B680022DA6055E0FB7888
S214019580052B04D17B684FF0FF32DA604DE0FB78A3
S214019590062B04D17B684FF0FF32DA6045E0FB789A
S2140195A0072B04D17B684FF0FF32DA603DE0FB7891
S2140195B0082B03D17B680022DA6036E0FB78092BA2
S2140195C004D17B684FF0FF32DA602EE0FB780A2B7D
S2140195D004D17B684FF48042DA6026E0FB780B2BDF
S2140195E004D17B684FF40042DA601EE0FB780C2B56
S2140195F004D17B684FF48032DA6016E0FB780D2BDD
S21401960004D17B684FF0FF32DA600EE0FB780E2B58
S21401961004D17B684FF0FF32DA6006E0FB780F2B4F
S21401962003D17B684FF48032DA600C37BD465DF8B3
S214019630047B704780B584B000AF78603960002342
S214019640FB817B681A683B681A607B685A683B68CE
S2140196505A607B689A683B689A607B68DA683B6800
S2140196601A617B681A693B689A610E4BDB6C03F4DE
S21401967070431B0B7B737B7B38681946FFF752FFE1
S2140196803B68DB68B3F5803F04D23B684FF48052F9
S2140196905A6102E03B6800225A61FB89184610377E
S2140196A0BD4680BD0080044080B588B000AFF8603C
S2140196B0B9607A600023FB837B687B61FB689B68EB
S2140196C03B61BA683B699A4210D3FB68DA683B692A
S2140196D01A44BB689A4209D9BA683B69D31A03F59A
S2140196E00003BB604FF40063BB611BE0FB681B68B3
S2140196F03B61BA683B699A420ED3FB685A683B697C
S2140197001A44BB689A4207D9BA683B69D31ABB6048
S2140197104FF48053BB6105E00123FB8300237B618B
S2140197200023BB61BB695A1E7B691340002B01D025
S2140197300423FB832AE01B4B1B78DBB2DBB25BB254
S214019740002B02DB0223FB8320E0164B70221A70EB
S214019750144B0922DA71134ABB681B0CDBB29371F6
S214019760104ABB681B0ADBB253710E4BBA68D2B201
S2140197701A71F8680AF05CFD0346FB837A69BB69D7
S214019780D31A7B61BA68BB691344BB607B69002B43
S21401979002D0FB8B002BCED0FB8B18462037BD4664
S2140197A080BD00BF0000024080B586B000AFF86003
S2140197B0B96011461A460B46FB8013467B7100239F
S2140197C0FB82FB689B683B61BA683B699A420DD392
S2140197D0FB68DA683B691A44BB689A4206D9BA68DC
S2140197E03B69D31A03F50003BB6014E0FB681B68F2
S2140197F03B61BA683B699A420BD3FB685A683B697E
S2140198001A44BB689A4204D9BA683B69D31ABB604A
S21401981001E00123FB82FB8A002B2FD11A4B1B7818
S214019820DBB2DBB25BB2002B02DB0223FB8225E05C
S214019830154B70221A70144B0122DA71124ABB685A
S2140198401B0CDBB29371104ABB681B0ADBB2537167
S2140198500D4BBA68D2B21A710B4AFB881B0A9BB22F
S214019860DBB2D372084BFA88D2B29A72064A7B7977
S2140198705372F8680AF0DCFC0346FB82FB8A184642
S2140198801837BD4680BD00BF0000024080B586B0D7
S21401989000AFF860B9607A603B600023FB827B68AA
S2140198A003F00703002B02D00423FB826FE0FB6862
S2140198B09B683B61BA683B699A420DD3FB68DA68DC
S2140198C03B691A44BB689A4206D9BA683B69D31AFF
S2140198D003F50003BB6014E0FB681B683B61BA68D4
S2140198E03B699A420BD3FB685A683B691A44BB68CA
S2140198F09A4204D9BA683B69D31ABB6001E00123D6
S214019900FB823EE0244B1B78DBB2DBB25BB2002B62
S21401991002DB0223FB8234E01F4B70221A701E4BBF
S2140199200722DA711C4ABB681B0CDBB293711A4A18
S214019930BB681B0ADBB25371174BBA68D2B21A71F5
S21401994000237B750CE07A7D144B13443B613B6925
S2140199507A7D39680A4412781A707B7D01337B75EB
S2140199607B7D072BEFD9F8680AF062FC0346FB8281
S214019970BB680833BB607B68083B7B603B68083389
S2140199803B607B68002B02D0FB8A002BBAD0FB8A97
S21401999018461837BD4680BD000002400800024048
S2140199A080B58AB000AFF860B9607A603B6000238A
S2140199B0FB847B68FB61FB6903F00303002B02D089
S2140199C00423FB8488E0FB689B683B62BA683B6AB9
S2140199D09A420DD3FB68DA683B6A1A44BB689A421E
S2140199E006D9BA683B6AD31A03F50003BB6016E0D2
S2140199F0FB681B683B62BA683B6A9A420BD3FB68FA
S214019A005A683B6A1A44BB689A4204D9BA683B6AE8
S214019A10D31ABB6003E00123FB840023FB6158E0FB
S214019A20304B1B78DBB2DBB25BB2002B02DB0223CE
S214019A30FB844EE02B4B70221A702A4B0222DA71FD
S214019A40284ABB681B0CDBB29371264ABB681B0A0B
S214019A50DBB25371234BBA68D2B21A71214A97F816
S214019A603430D3720023FB760CE0FA7E1E4B13448F
S214019A707B617B69FA7E39680A4412781A70FB7E2C
S214019A800133FB76FB7E032BEFD9F8680AF0D0FB97
S214019A900346FB84FB8C002B12D0BB68B3F5000F8A
S214019AA007D3BA683B6A1344A3F500023B6B1A60FE
S214019AB004E0BA683B6A1A443B6B1A600423FB61F4
S214019AC0FB69043BFB613B6804333B60BB680433C2
S214019AD0BB60FB69002BA3D1FB8C18462837BD461B
S214019AE080BD00BF000002400C000240F8B5264BC6
S214019AF053F82040266820460D4605F00BFE330538
S214019B0021D467682E68E868A9686A682B694FF6E9
S214019B10F8753D406560676806F0070545EA006030
S214019B200904384301F4E021D204014302F460122F
S214019B309B050A4303F44003134363602046BDE8D4
S214019B40F84005F0DBBD95E84B00276D2A690F4DFF
S214019B5007F000472765276D03F01F0380023B438C
S214019B6080B24901034301F47871700505400B4347
S214019B7012042B4302F4F812134323652046BDE872
S214019B80F84005F0BBBD00BF943F02000000E07F37
S214019B9038B50C4B53F820400D46204605F0BAFD6B
S214019BA023683DB143F4803323602046BDE8384046
S214019BB005F0A4BD23F4803323602046BDE8384079
S214019BC005F09CBD943F02000E4B70B553F8204043
S214019BD00E462046154605F09DFD4EB1012E04BFEA
S214019BE025F0604525612046BDE8704005F086BD3C
S214019BF0054BAD042B4023612046BDE8704005F0BF
S214019C007DBD00BF943F02000000FC1FF8B5154C57
S214019C1054F82040204615461E460F4605F07AFDAC
S214019C20236803F07F039D4215D25FB90E4BB6043D
S214019C3005F50875334044F82530204605F05EFDED
S214019C400020F8BD012FF8D105F5087526F060460D
S214019C5044F82560F1E7204605F050FD4FF44070CA
S214019C60F8BD00BF943F02000000FC1F9F4B2DE98A
S214019C70F04753F820401746064620460D4605F0A5
S214019C807BFB7B7A62685B0322F4005203F4005389
S214019C9013436360204605F05BFB204605F03AFD62
S214019CA0204605F075FB23683A7A23F400636AB10F
S214019CB043F400632360236D43F000432365236868
S214019CC01B0500F1D0800120BDE8F0872360236DDD
S214019CD023652368C3F3C023002BF4D1616B21F401
S214019CE08051BA790B43022A636303D0236843F495
S214019CF0003323607B79002B40F0BD8097F8343029
S214019D00012B06D123689900DDD5236843F400436F
S214019D1023602046B97905F009FD2046F97905F05A
S214019D203BFD2046396805F025FC002840F0A1805F
S214019D3023681A0540F1A880236DD7F80CA0D7F840
S214019D4010C0D7F81480D7F81890F969684ADFF878
S214019D50BCE1684803F000432365236D4FEA8A2A75
S214019D6008F01F0848EA03081FFA8AFA4FEA4C1C53
S214019D700CF4787C4FEA495948EA0A0343EA0C0393
S214019D8009EA0202090401F4F8111A430A4322659A
S214019D90D4F8049CFB6AD7F820C0796AD7F82880E3
S214019DA03A6B09EA0E0EC4F804ECD4F804EC4FEA58
S214019DB08C2C08F0070848EA0E080CF4F84C490108
S214019DC04FEA035EC9B248EA0C0312040B430EEADB
S214019DD0000002F4E02203431343C4F8043C204687
S214019DE005F08CFC444B985710F1800F01D001F020
S214019DF0E7FC424B424C985701F0E2FC414B985726
S214019E0001F0DEFCA05710F1800F01D001F0D8FC64
S214019E10344494F9030010F1800F01D001F0D0FC16
S214019E2005F10408C146002406E0987145F834009F
S214019E300134202C58714BD04846002102F0FAF923
S214019E4009F1080905EBC4030028EED0002C3FF405
S214019E503AAF1C460434404608F1080802F0F4F90B
S214019E60A045F8D12FE7616B4FF4805321F4805160
S214019E7037E7BDE8F0872046397905F05BFB002817
S214019E803FF43CAFBDE8F087D4F804C0FB683969FD
S214019E907869D7F81880FA694FF6F87E0CEA0E0E44
S214019EA0C4F804E0D4F804C003F0070E00044EEA38
S214019EB00863C90400F4E02043EA0C0301F46011CE
S214019EC09205034302F440020B431343636086E7A3
S214019ED097F8343085F8093197F835200A4B85F81C
S214019EE0082143F82650BDE8F08700BF943F0200E2
S214019EF00000E07F0000F03FA03F0200883F020024
S214019F008C3F0200843F020040080020188308C0EE
S214019F102DE9F04184B004AD164E177856F820604E
S214019F20506802900F2445F8104D3046147A8DF88B
S214019F3004702A468DF80C4088461F4605F070FAD4
S214019F40044610B104B0BDE8F081304641462A46C9
S214019F503B46009405F064FA0028F3D130464146AA
S214019F602A463B460424009405F05AFA04B0BDE89C
S214019F70F08100BF943F02002DE9F041144C154BCF
S214019F8054F8204053F8206004EBC1056B7903F0C8
S214019F90FF0713B10220BDE8F08113464FF0010818
S214019FA085F80580424644F831303046AF7105F0F9
S214019FB065FB424604464FF48041304605F086FB79
S214019FC01CB16F712046BDE8F0812046BDE8F081E6
S214019FD040080020943F02001B4A1C4B70B5044603
S214019FE0105653F8246010F1800F01D001F0F4FBF5
S214019FF0174B184D185701F0EFFB174B185701F088
S21401A000EBFB285710F1800F01D001F0E5FB25444A
S21401A01095F9030010F1800F01D001F0DDFB0F4B25
S21401A02053F8240005F0A8F9341D002506F58276BC
S21401A030204602F009F90834002818BF0125B44269
S21401A040F6D1284670BD00BFA03F020040080020A0
S21401A050883F02008C3F0200843F0200943F0200CA
S21401A0602DE9F04F9B4A9C4B52F8209053F820A0C4
S21401A07083B0B9F1000F02D099F801501DB101204B
S21401A08003B0BDE8F08FDAF800404E8824F01804DB
S21401A090CAF80040DAF84C40240C2404CAF84C40B4
S21401A0A0DAF80840220C12043243CAF80820DAF81B
S21401A0B0002022F02002CAF80020DAF8642022F0FC
S21401A0C08002CAF86420DAF8642022F00102CAF895
S21401A0D064200A78002A5FD08846019007E0012BA9
S21401A0E072D0013598F80030EDB2AB4254D9D8F8A9
S21401A0F004302F01DE5D3B4434B209EB84029968DB
S21401A1009161D9689163032E4FEA560B07D89A7965
S21401A110002A54D01A795046314601F015FBD8F87A
S21401A12004301F447B78002BD9D1DAF864304FEA2B
S21401A130CB0C042202FA0CF20AEBC40423EA020353
S21401A140CAF86430E36823F01003E360E36823F0A1
S21401A1502003E360E268B97822F0040201F001030B
S21401A16042EA8302E260E368019AC1F3400123F008
S21401A170080343EAC103E360E36806EBC206574AF5
S21401A18043F04003E360905701F01AFB013598F85D
S21401A1900030EDB2AB42AAD899F80010DAF80020E8
S21401A1A0C90001F0180122F018020A43002001211B
S21401A1B089F80110CAF8002003B0BDE8F08F5046B8
S21401A1C0314601F0C1FAAAE7DAF86430F9794FEAC4
S21401A1D0CB0C042202FA0CF21343CAF86430DAF804
S21401A1E06420082303FA0CF31343CAF864300AEB1D
S21401A1F0C403DA68002934D042F01002DA60DA6863
S21401A20042F02002DA60FB78032B34D0012B3ED0DB
S21401A210042B53D0022B7FF432AF0AEBC404721C1A
S21401A220E36823F00403E360E168D2B241F0080179
S21401A2300AEBC203E160D96821F00401D960D9684C
S21401A24041F00801D9600AEBC202019B234906EBE3
S21401A250C306D368885743F04003D36001F0B0FAD1
S21401A2603FE722F01002DA60DA6842F02002DA6094
S21401A270FB78032BCAD10AEBC404721CE36843F0D3
S21401A2800403E360E168D2B221F00801D0E70AEBEB
S21401A290C404721CE36843F00403E360E168D2B2CD
S21401A2A021F008010AEBC203E160D96841F004011C
S21401A2B0D960D96821F00801D960C4E70AEBC40463
S21401A2C0721CE36823F00403E360E168D2B241F054
S21401A2D00801E7E74C080020D03F0200A43F020037
S21401A2E01F4B1B685A78012A00D070471D4A126816
S21401A2F0516E490710B418D4D16881F08001C1F3BA
S21401A300C01102EBC102081D146923F81040D06881
S21401A31020F08000D060D2680A4603EB82039A6B75
S21401A320D2B198695DF8044B10471069916980B203
S21401A33089B2884284BF94680919091AD06889B21B
S21401A340198120F08001D160D168516921F0800126
S21401A350516152690022E0E75DF8044BC5E700BF92
S21401A3604C080020D03F02001F4B1B685A78012A78
S21401A37000D070471D4A1268516E490510B418D4B2
S21401A380D16911F0800F14BF0221032102EBC10233
S21401A390081D146923F81040D06820F08000D060B2
S21401A3A0D26803EB81039A6BD2B198695DF8044BCE
S21401A3B01047106A916A80B289B2884284BF946855
S21401A3C00919091AD06989B2998120F08001D161F1
S21401A3D0D169516A21F080015162526A0221E0E797
S21401A3E05DF8044BC5E700BF4C080020D03F0200D3
S21401A3F01F4B1B685A78012A00D070471D4A126805
S21401A400516E490310B418D4D16A11F0800F14BFED
S21401A4100421052102EBC102081D146923F810402E
S21401A420D06820F08000D060D26803EB81039A6B7D
S21401A430D2B198695DF8044B1047106B916B80B2EE
S21401A44089B2884284BF94680919091AD06A89B208
S21401A450198220F08001D162D16A516B21F080010E
S21401A4605163526B0421E0E75DF8044BC5E700BF7A
S21401A4704C080020D03F02001F4B1B685A78012A67
S21401A48000D070471D4A1268516E490110B418D4A5
S21401A490D16B11F0800F14BF0621072102EBC10218
S21401A4A0081D146923F81040D06820F08000D060A1
S21401A4B0D26803EB81039A6BD2B198695DF8044BBD
S21401A4C01047106C916C80B289B2884284BF946840
S21401A4D00919091AD06B89B2998220F08001D163DB
S21401A4E0D16B516C21F080015164526C0621E0E77A
S21401A4F05DF8044BC5E700BF4C080020D03F0200C2
S21401A5001F4B5B685A78012A00D070471D4A526873
S21401A510516E490710B418D4D16881F08001C1F397
S21401A520C01102EBC102081D146923F81040D0685F
S21401A53020F08000D060D2680A4603EB82039A6B53
S21401A540D2B198695DF8044B10471069916980B2E1
S21401A55089B2884284BF94680919091AD06889B2F9
S21401A560198120F08001D160D168516921F0800104
S21401A570516152690022E0E75DF8044BC5E700BF70
S21401A5804C080020D03F02001F4B5B685A78012A16
S21401A59000D070471D4A5268516E490510B418D450
S21401A5A0D16911F0800F14BF0221032102EBC10211
S21401A5B0081D146923F81040D06820F08000D06090
S21401A5C0D26803EB81039A6BD2B198695DF8044BAC
S21401A5D01047106A916A80B289B2884284BF946833
S21401A5E00919091AD06989B2998120F08001D161CF
S21401A5F0D169516A21F080015162526A0221E0E775
S21401A6005DF8044BC5E700BF4C080020D03F0200B0
S21401A6101F4B5B685A78012A00D070471D4A526862
S21401A620516E490310B418D4D16A11F0800F14BFCB
S21401A6300421052102EBC102081D146923F810400C
S21401A640D06820F08000D060D26803EB81039A6B5B
S21401A650D2B198695DF8044B1047106B916B80B2CC
S21401A66089B2884284BF94680919091AD06A89B2E6
S21401A670198220F08001D162D16A516B21F08001EC
S21401A6805163526B0421E0E75DF8044BC5E700BF58
S21401A6904C080020D03F02001F4B5B685A78012A05
S21401A6A000D070471D4A5268516E490110B418D443
S21401A6B0D16B11F0800F14BF0621072102EBC102F6
S21401A6C0081D146923F81040D06820F08000D0607F
S21401A6D0D26803EB81039A6BD2B198695DF8044B9B
S21401A6E01047106C916C80B289B2884284BF94681E
S21401A6F00919091AD06B89B2998220F08001D163B9
S21401A700D16B516C21F080015164526C0621E0E757
S21401A7105DF8044BC5E700BF4C080020D03F02009F
S21401A7201F4B9B685A78012A00D070471D4A9268D1
S21401A730516E490710B418D4D16881F08001C1F375
S21401A740C01102EBC102081D146923F81040D0683D
S21401A75020F08000D060D2680A4603EB82039A6B31
S21401A760D2B198695DF8044B10471069916980B2BF
S21401A77089B2884284BF94680919091AD06889B2D7
S21401A780198120F08001D160D168516921F08001E2
S21401A790516152690022E0E75DF8044BC5E700BF4E
S21401A7A04C080020D03F02001F4B9B685A78012AB4
S21401A7B000D070471D4A9268516E490510B418D4EE
S21401A7C0D16911F0800F14BF0221032102EBC102EF
S21401A7D0081D146923F81040D06820F08000D0606E
S21401A7E0D26803EB81039A6BD2B198695DF8044B8A
S21401A7F01047106A916A80B289B2884284BF946811
S21401A8000919091AD06989B2998120F08001D161AC
S21401A810D169516A21F080015162526A0221E0E752
S21401A8205DF8044BC5E700BF4C080020D03F02008E
S21401A8301F4B9B685A78012A00D070471D4A9268C0
S21401A840516E490310B418D4D16A11F0800F14BFA9
S21401A8500421052102EBC102081D146923F81040EA
S21401A860D06820F08000D060D26803EB81039A6B39
S21401A870D2B198695DF8044B1047106B916B80B2AA
S21401A88089B2884284BF94680919091AD06A89B2C4
S21401A890198220F08001D162D16A516B21F08001CA
S21401A8A05163526B0421E0E75DF8044BC5E700BF36
S21401A8B04C080020D03F02001F4B9B685A78012AA3
S21401A8C000D070471D4A9268516E490110B418D4E1
S21401A8D0D16B11F0800F14BF0621072102EBC102D4
S21401A8E0081D146923F81040D06820F08000D0605D
S21401A8F0D26803EB81039A6BD2B198695DF8044B79
S21401A9001047106C916C80B289B2884284BF9468FB
S21401A9100919091AD06B89B2998220F08001D16396
S21401A920D16B516C21F080015164526C0621E0E735
S21401A9305DF8044BC5E700BF4C080020D03F02007D
S21401A9401F4BDB685A78012A00D070471D4AD2682F
S21401A950516E490710B418D4D16881F08001C1F353
S21401A960C01102EBC102081D146923F81040D0681B
S21401A97020F08000D060D2680A4603EB82039A6B0F
S21401A980D2B198695DF8044B10471069916980B29D
S21401A99089B2884284BF94680919091AD06889B2B5
S21401A9A0198120F08001D160D168516921F08001C0
S21401A9B0516152690022E0E75DF8044BC5E700BF2C
S21401A9C04C080020D03F02001F4BDB685A78012A52
S21401A9D000D070471D4AD268516E490510B418D48C
S21401A9E0D16911F0800F14BF0221032102EBC102CD
S21401A9F0081D146923F81040D06820F08000D0604C
S21401AA00D26803EB81039A6BD2B198695DF8044B67
S21401AA101047106A916A80B289B2884284BF9468EE
S21401AA200919091AD06989B2998120F08001D1618A
S21401AA30D169516A21F080015162526A0221E0E730
S21401AA405DF8044BC5E700BF4C080020D03F02006C
S21401AA501F4BDB685A78012A00D070471D4AD2681E
S21401AA60516E490310B418D4D16A11F0800F14BF87
S21401AA700421052102EBC102081D146923F81040C8
S21401AA80D06820F08000D060D26803EB81039A6B17
S21401AA90D2B198695DF8044B1047106B916B80B288
S21401AAA089B2884284BF94680919091AD06A89B2A2
S21401AAB0198220F08001D162D16A516B21F08001A8
S21401AAC05163526B0421E0E75DF8044BC5E700BF14
S21401AAD04C080020D03F02001F4BDB685A78012A41
S21401AAE000D070471D4AD268516E490110B418D47F
S21401AAF0D16B11F0800F14BF0621072102EBC102B2
S21401AB00081D146923F81040D06820F08000D0603A
S21401AB10D26803EB81039A6BD2B198695DF8044B56
S21401AB201047106C916C80B289B2884284BF9468D9
S21401AB300919091AD06B89B2998220F08001D16374
S21401AB40D16B516C21F080015164526C0621E0E713
S21401AB505DF8044BC5E700BF4C080020D03F02005B
S21401AB603F4A404B70B552F8206053F82040002E03
S21401AB7073D07078002870D1D4F880200B7822F03A
S21401AB8001020D468979C4F88020226822F0180255
S21401AB902260D4F88020DB0022F0080203F00803CC
S21401ABA01343C4F88030D4F88030002942D123F012
S21401ABB08003C4F880306B7A002B47D0D4F88030FD
S21401ABC043F04003C4F88030AA7A2046012100F001
S21401ABD0BBFD297AD4F880306888EA7AAD884901C5
S21401ABE001F0200123F020030B43C4F88030D4F891
S21401ABF08010120121F0100102F010020A43C4F87D
S21401AC008020E26C120C12040243E264A268130C68
S21401AC101B042B43A36063681B0C1B040343636084
S21401AC20D4F88030052243F00103C4F880300020B8
S21401AC30727070BD43F08003C4F880300146EA7933
S21401AC40204600F081FD6B7A002BB7D1D4F8803016
S21401AC5023F04003C4F88030BBE7012070BD00BF7D
S21401AC604C080020D03F02002DE9F041314C324D16
S21401AC7054F8206055F820507078AC680428A4B2C7
S21401AC8043D0032803BF0134A4B200200120B2F54B
S21401AC90004F37D8B3F5004F34D802FB04FECEF38D
S21401ACA0CF3EB2F5004F03FB04F308BF0EF1010ED1
S21401ACB04FEAE33308BF1FFA8EFE18BB4A084FEA75
S21401ACC0C20C0127D5F8648007FA0CF717EA080FBB
S21401ACD01FD080216F6E01FA0CF1394227D0296806
S21401ACE0520011F0180F02F1010203D105EBC20167
S21401ACF0C1F808E0D2B2013205EBC202936074805B
S21401AD00BDE8F0810120BDE8F0816400A4B2002016
S21401AD10BDE72B684A1C9B0605EBC20246BF4FEAFD
S21401AD205E039360C2F808E07480BDE8F0815200CB
S21401AD300132DBE74C080020D03F02002DE9F04F3E
S21401AD40C14AC24B52F8202053F8204083B00192EA
S21401AD50002A00F0AE8216465278002A40F0A982F8
S21401AD602368009023F018030D4689782360236832
S21401AD7023F4007323602368636D43F00403636563
S21401AD8071702B78002B00F0BA80EB6893469E46D4
S21401AD904FF004094FF0010A3CE00136F6B2226892
S21401ADA098F8050006F110010AFA01F104EBC6064F
S21401ADB00A432260F16800F0010221F0040141EA31
S21401ADC08201F160F268C0F3400022F0080242EA14
S21401ADD0C002F260F26842F01002F260F26842F0DD
S21401ADE02002F26098F80720012A00F0668298F89F
S21401ADF00820002A77D1616E1022BA4021EA0202A9
S21401AE0062660BF1010B2A785FFA8BFB5A4576D9FD
S21401AE109E46EB68626E0BEB8B014FEA41081EF80B
S21401AE2011607708FF0009FA07F122EA010143449D
S21401AE3004EBC6026166D168587921F0040100F07E
S21401AE40010341EA8301D160D368C0F3400023F0D7
S21401AE50080343EAC003D360D36843F01003D3600A
S21401AE60D36843F02003D36023686A6906F11001B2
S21401AE700AFA01F10B43D2782360C644636E002AB6
S21401AE8040F0D9814022BA4023EA02036366616E2C
S21401AE909EF804202023BB400B436366636E0AFAC8
S21401AEA007F123EA01036366616E8023BB4021EA52
S21401AEB0030363662046314600F02EFCEB68984497
S21401AEC098F80620002A7FF468AF98F80120012A36
S21401AED000F0F981226F0AFA06F10A43226798F810
S21401AEE00820002A87D0616E1022BA400A436266A3
S21401AEF00BF1010B2A785FFA8BFB5A4588D86B78E1
S21401AF00002B00F0A5804FF000084FF0040B4FF027
S21401AF1001093AE0606E40238B4020EA0303636632
S21401AF20606E92F807E020238B4003436366636EEE
S21401AF3009FA01F0034363668023606E8B40BEF11D
S21401AF40000F40F0838120EA030363669379002BA8
S21401AF5040F07681606E10238B4020EA030363661F
S21401AF607F00D27A3946204600F0D6FB2B691E4474
S21401AF70791CC9B2327B204600F0CEFB08F10108ED
S21401AF806B785FFA88F8434562D92A69606E4FEAA2
S21401AF900816935D5F08F9000BFA01FE20EA0E0E13
S21401AFA0324404EBC300C4F864E0D0F80CC092F855
S21401AFB00DA02CF0040E0AF0010C4EEA8C0CC0F821
S21401AFC00CC0D0F80CE0CAF3400A2EF0080E4EEA88
S21401AFD0CA0EC0F80CE0D0F80CE04EF0100EC0F827
S21401AFE00CE0D0F80CE04EF0200EC0F80CE0206823
S21401AFF092F809E003F1100C09FA0CFC4CEA000087
S21401B0002060BEF1000F40F02481107A012800F084
S21401B0104981206F09FA03FE4EEA000020670133DA
S21401B020DBB22068103309FA03F320EA0303236036
S21401B0306B69DB78002B3FF46DAF606E40238B406D
S21401B040034363666CE700BF4C080020D03F020054
S21401B0506B69616DDA7841F002016165002A00F0E2
S21401B06083801978002940F06381E16F21F4004163
S21401B070E1679878E16F000200F4706021F4706176
S21401B0800143E1671979B1B1E16F41F00101E1676F
S21401B0905979002900F05B81E16F41F01001E16709
S21401B0A099790129D4F8881014BF41F0010121F0E3
S21401B0B00101C4F88810D979B1B1E16F41F00201FC
S21401B0C0E167197A002900F04781E16F41F020011C
S21401B0D0E167597A0129D4F8881014BF41F00201BA
S21401B0E021F00201C4F88810997AB1B1E16F41F0FC
S21401B0F00401E167D97A002900F01F81E16F41F070
S21401B1004001E167197B0129D4F8881014BF41F08A
S21401B110040121F00401C4F88810597BB1B1E16F34
S21401B12041F00801E167997B002900F00B81E16F8E
S21401B13041F08001E167D97B0129D4F888100CBF62
S21401B14021F0080141F00801C4F888105B781BB1B2
S21401B150636D43F080036365636D520102F0600224
S21401B16023F060031A4362652368A878A96823F070
S21401B170200204280CBF20230023134323600098D9
S21401B18000F074FAE36CAA7801991B0C1B04488042
S21401B190042AE364A36800F0C58001381B0C80B262
S21401B1A01B041843A0602B78002B00F09280002728
S21401B1B0DDF8008004E001372B78FFB2BB4220D9CE
S21401B1C007EB8702EB68560013F8129033444946A2
S21401B1D05A8840460023FFF747FDEB681E44B379C3
S21401B1E0002BE8D0F379002BE5D109F10101C9B2B2
S21401B1F072884046FFF738FD01372B78FFB2BB4215
S21401B200DED86B787BB1009F0026296932018B1846
S21401B2103846895C5A889B88FFF726FD01366B788D
S21401B220F6B2B342F1D8002856D0019A00235370E3
S21401B23003B0BDE8F08F4022BA401343636626E6AA
S21401B240606E10238B400343636689E6034363669F
S21401B2507CE60133DBB2206892F80EC003F1100ED3
S21401B26009FA0EFE04EBC3034EEA00002060D8681C
S21401B2700CF0010A20F0040E4EEA8A00D860D86865
S21401B280CCF3400C20F0080040EACC00D860937A5A
S21401B2900220012B636E00FA01F00CBF03438343C7
S21401B2A06366C5E6D4F870E098402EEA0000206791
S21401B2B0B5E6012003B0BDE8F08F616E0222BA4008
S21401B2C00A43626693E5216FB24021EA02022267D1
S21401B2D08DE56B78002B96D1A36EEE78019A2979CD
S21401B2E0127823F03F0006F03F030343A366A36EE4
S21401B2F08901C9B223F0C0030B43A366636D43F013
S21401B30001036365636D43F0080363652368D20038
S21401B31002F0180223F0180313430020236003B041
S21401B320BDE8F08F1B0C1B0443EA5000A0603AE70F
S21401B330E16F41F40041E1679BE6E16F21F04001D6
S21401B340E167DFE6E16F21F08001E167F3E6E16F97
S21401B35021F01001E167A3E6E16F21F02001E1672A
S21401B360B7E600BFF0B5704B4C7853F820301CB9E7
S21401B3708A78002A00F093800A78002A40F08D80AF
S21401B380D3F88C00CE7A8D78CA7840F48020C3F842
S21401B3908C00D3F88C0040F40020C3F88C00D3F85E
S21401B3A08C0040F48010C3F88C00D3F88C0040F475
S21401B3B00030C3F88C00D3F88C00002E14BF4FF475
S21401B3C08036002620F480303043C3F88C00D3F852
S21401B3D08C0040F08000C3F88C00002C00F09080B8
S21401B3E0986D40F010009865986D002D40F09080A3
S21401B3F020F020009865002A00F090809A6D42F0B7
S21401B40040029A6508799F6DCA7991F805C091F84E
S21401B41008E08E794C7A8D7A410001F0020127F01E
S21401B42002070F439F65986D20F001004CEA00006B
S21401B4309865996DBEF1000F14BF4FF0080E4FF0DE
S21401B440000E21F008014EEA01019965D3F88C003F
S21401B450310120F0100001F010010143C3F88C10F7
S21401B460D3F88C00510120F0200001F020010143A7
S21401B470C3F88C10D3F88C00A10020F0040001F072
S21401B48004010143C3F88C10D3F88C2022F001028A
S21401B4902A43C3F88C200020F0BD0120F0BDCA78F5
S21401B4A0002A7FF469AF08780028F6D0D3F88C40DC
S21401B4B0C87A44F48064C3F88C40D3F88C4044F4D2
S21401B4C00064C3F88C40D3F88C4044F48054C3F82D
S21401B4D08C40D3F88C4044F40074C3F88C40D3F805
S21401B4E08C40000224F4807400F480702043C3F87A
S21401B4F08C00D3F88C0040F08000C3F88C00154611
S21401B500986D20F010009865986D002D3FF470AF8F
S21401B51040F020009865002A7FF470AF9A6D22F003
S21401B52040029A656EE700BFD03F02002DE9F04762
S21401B530DFF83091494B59F8207053F8204082B01B
S21401B54027B10127384602B0BDE8F0878B7B137020
S21401B55005469046577057800E4602F10800394658
S21401B560102249F8258004F053FB3946202208F1C1
S21401B570180004F04DFB2022394608F1380004F08B
S21401B58047FB204600F088F82046717B00F078F8EB
S21401B59059F8252023681278019703F007034FF026
S21401B5A00109022A09FA03F943D0032A47D0012ADE
S21401B5B039D0B7FBF9F7337BC8F80470023B022B8E
S21401B5C02BD90027717CE26EF37B307C890101F078
S21401B5D0400122F040020A43E266D4F884209B012F
S21401B5E022F0C002DBB21343C4F8843023681C4A3D
S21401B5F048B923F480735057236000F0EDF83846BD
S21401B60002B0BDE8F08743F480735057236000F022
S21401B610D7F8384602B0BDE8F08728463146FFF72E
S21401B620A1FE0746CEE7384601A903F031FC019F8B
S21401B630BFE71A2001A903F02BFC019FB9E7DFF849
S21401B64028A00AEB450301A95F78384603F020FCE1
S21401B650019B002BE7D11AF81500E5E7D03F020061
S21401B660CC3F02004C080020C43F0200034B53F8B5
S21401B67020305868B0FBF1F080B270474C080020CB
S21401B680436D43F001034365036801F0070123F0AE
S21401B690070319430160704700230422416F436783
S21401B6A042650268036043608360C364026D03659C
S21401B6B08365C365036643668366C26EC3660367B6
S21401B6C08367C367C0F88030C0F88430C0F888301C
S21401B6D0C0F88C30C0F89030C0F89430C0F898307C
S21401B6E0C0F89C30C268C3600361426943618361EC
S21401B6F0C269C3610362426A43628362C26AC36209
S21401B7000363426B43638363C26BC3630364426C2C
S21401B71043648364704700BF012911D9052999BF85
S21401B7200239012306394FF480738B4022B9C26E69
S21401B73022EA0303C3667047C26E1343C3667047AB
S21401B74010238B40F2E700BF03290AD8DFE801F097
S21401B7501B130A02836F120392B223F470431A4337
S21401B76082677047836F120202F4706223F470637B
S21401B7701A4382677047836F1201D2B223F0F00337
S21401B7801A4382677047836F02F00F0223F00F039C
S21401B7901A438267704700BF52B11030074B10B48E
S21401B7A053F82040146043F820105DF8044B7047AE
S21401B7B01030024B43F82010704700BF00C4FF1F33
S21401B7C000F01F0101234009024A8B4042F8203055
S21401B7D0704700BF00E100E04309203300F01F007E
S21401B7E001220249824041F82320704700E100E02F
S21401B7F0044A1368002B03DD013B136003B962B6EC
S21401B800704700BF5C08002072B6024A1368013315
S21401B810136070475C080020002808DB00F16040D8
S21401B82000F561400901C9B280F800137047C0B243
S21401B830C0F38103012B0ED010B40A4A0A4C090149
S21401B840022B0CBF1346234600F00300C9B219545D
S21401B8505DF8044B7047054B090100F00300C9B2BF
S21401B860195470471CED00E020ED00E018ED00E0F3
S21401B870174B03EB800310B545200C46194603F021
S21401B88007FB144B20789A68617842F002029A60AE
S21401B8909A6822F002029A609A6842F001029A605F
S21401B8A09A6822F008029A609A68002814BF082055
S21401B8B0002002439A609A6822F004029A600029E6
S21401B8C09A6814BF042100210A439A6010BD00BF84
S21401B8D060080020007003402DE9F047794B82B0E4
S21401B8E080461868019061B9D37C002B40F0B38084
S21401B8F0754B986A20F002009862986A0C460B46CF
S21401B9000EE00C0104F1804303F55C33D57C986AA4
S21401B91020F002009862002D986A14BF02230023CB
S21401B92004F1804707F55C370343BB621546BA6AE4
S21401B9302B78687822F00C02BA62BA6A9B0003F090
S21401B9400C03134301280E46BB625F495FD0B31C4C
S21401B9501B016A68CA5004F1804303F55C332A7AF6
S21401B960D3F828C0687CA97C95F810E02C7D564F4A
S21401B9702CF4000CC3F828C0D3F828C0D20502F472
S21401B980000242EA0C029A62D3F828C0EA682CF058
S21401B99070659D629D6A120602F070622A439A6281
S21401B9A09A6A22F480229A629A6ABEF1000F14BF44
S21401B9B04FF4802500252A439A629A6A22F40032BF
S21401B9C09A629A6A002814BF4FF40030002002439E
S21401B9D09A629A6A22F480329A6200299A6A14BF9D
S21401B9E04FF4803100210A439A62002C37D13A691C
S21401B9F002A90123B3400E4422EA030316F9040CFC
S21401BA003B61FFF7E9FE204602B0BDE8F087DFF8AC
S21401BA10C890D5F804A009EB8801452003F038FA50
S21401BA2059F82800294A0023A0FB0A01F4F730FE42
S21401BA30BB6AC3F3810310F1FF3803F1FF3341F111
S21401BA40FF39022B22D8224AB9F1010F08BFB8F1FB
S21401BA50000FD35C12D3012002B0BDE8F0873A692B
S21401BA6002A90123B3400E44134316F9040C3B61AB
S21401BA70FFF7A6FE002002B0BDE8F087012B0CD030
S21401BA80B31C1B01104A42F8038064E7B9F1010FA9
S21401BA9008BFB8F1000FF3D3DDE70E4A00234B458C
S21401BAA008BF4245D7D300234FF6FF724B4508BF68
S21401BAB04245E5D2B0F101104FEA004848EA0208D3
S21401BAC0DEE700BF30FC01000070034040420F007B
S21401BAD0E03F0200FEFF0100600800202DE9F04F64
S21401BAE0CE788F6891F8059091F806A00C7B83B00C
S21401BAF00D469046002E70D04FEAC90909F0780924
S21401BB00BFB2DB4C204600F0EBF995F800B0236895
S21401BB10AA7895F801C095F804E0687BA97BBBF18B
S21401BB20000F14BF4FF48075002523F4C0732B4318
S21401BB3023602368BCF1000F14BF4025002523F0C5
S21401BB40C0032B4323602368002A14BF042200226B
S21401BB5023F08403134323602368760023F08203D3
S21401BB6006F002061E432660636823F0780349EA5E
S21401BB70030363606268BAF1000F14BF0423002355
S21401BB8022F004021A43626063680EF0030E23F08B
S21401BB9003034EEA03036360A268130C1B043B43D2
S21401BBA0A3602268030122F0B00203F030031343BE
S21401BBB023602368CA0002F0080223F088031343B7
S21401BBC02360B8F1000F05D0236823F0810343F00A
S21401BBD00103236003B0BDE8F08F0B79013BDBB2B4
S21401BBE0022B00F21781A34AD05C042800F01281D0
S21401BBF001A903F04DF9019B012C7FF47DAF9E480E
S21401BC009E4A0021E7FB03010023F4F741FD0029CA
S21401BC1008BFB0F1011FC0F00381421C41F10003CF
S21401BC205B084FEA3202002B08BFB2F1011FC0F0D9
S21401BC30008110F1020A41F1000B4FEA9A024FEA25
S21401BC409B0342EA8B72002B08BFB2F1011FC0F0C2
S21401BC50FD8010F1040A41F1000B4FEADA024FEAC7
S21401BC60DB0342EA4B72002B08BFB2F1011FC0F0A2
S21401BC70EA8010F1080A41F1000B4FEA1A124FEA66
S21401BC801B1342EA0B72002B08BFB2F1011FC0F072
S21401BC90E08010F1100A41F1000B4FEA5A124FEA08
S21401BCA05B1342EACB62002B08BFB2F1011FC0F062
S21401BCB0D68010F1200A41F1000B4FEA9A124FEAA2
S21401BCC09B1342EA8B62002B08BFB2F1011FC0F042
S21401BCD0C38010F1400A41F1000B4FEADA124FEA35
S21401BCE0DB1342EA4B62002B08BFB2F1011FC0F022
S21401BCF0B98010F1800A41F1000B4FEA1A224FEA8F
S21401BD001B2342EA0B62002B08BFB2F1011FC0F0F1
S21401BD10AC8010F5807A41F1000B4FEA5A224FEAC7
S21401BD205B2342EACB52002B08BFB2F1011FC0F0E1
S21401BD30A78010F5007A41F1000B4FEA9A224FEAEC
S21401BD409B2342EA8B52002B08BFB2F1011FC0F0C1
S21401BD509A8010F5806A41F1000B4FEADA224FEA29
S21401BD60DB2342EA4B52002B08BFB2F1011FC0F0A1
S21401BD708D8010F5006A41F1000B4FEA1A324FEA46
S21401BD801B3342EA0B52002B08BFB2F1011FC0F071
S21401BD90808010F5805A41F1000B4FEA5A324FEA83
S21401BDA05B3342EACB42002B08BFB2F1011F73D3CB
S21401BDB010F5005A41F1000B4FEA9A324FEA9B33D5
S21401BDC042EA8B42002B08BFB2F1011F6BD310F57C
S21401BDD0804A41F1000B4FEADA324FEADB3342EA9E
S21401BDE04B42002B08BFB2F1011F62D310F5004091
S21401BDF041F10001020C0B0C42EA0142002B08BF84
S21401BE00B2F1011F52D34FF6FF774FF000094FF002
S21401BE10000A76E60B2001A903F03AF8019BEBE64F
S21401BE2050EA01033BD0431E9FB2A2464FF00009E1
S21401BE3067E6A14609F1FF394FEAC909531E09F021
S21401BE4078099FB2E3E74FF00309F3E74FF00209E1
S21401BE50F0E74FF00409EDE74FF00609EAE74FF087
S21401BE600509E7E74FF00709E4E74FF00809E1E7BE
S21401BE7000000440E43F020020A1070040420F00FA
S21401BE804FF00909D6E74FF00A09D3E74FF00B093F
S21401BE90D0E74FF00C09CDE74FF00D09CAE70027B0
S21401BEA0A246B9462DE64FF00E09C3E74FF010093A
S21401BEB0C0E74FF00F09BDE7034B1A6842F0800256
S21401BEC01A601B68704700BF00000440034A1368ED
S21401BED023F0810343F00103136070470000044020
S21401BEE00268002322F081020260036043608360DF
S21401BEF0704700BF2DE9F047DFF85091514F59F8D0
S21401BF002050064686B028461446884647F826102E
S21401BF1003F04EFC0121284603F05CFC00210A4692
S21401BF200123284603F08AFC0022284608F1210155
S21401BF3003F05EFC238957F8267059F82690083BD3
S21401BF409BB240F6F872934203D9012006B0BDE8D1
S21401BF50F087484603F032FC0028F6D12389E17CBD
S21401BF60E26894F806C094F812E03B800733C3F306
S21401BF70CF0387F820E0BA6087F804C07B8087F893
S21401BF8024103873787119B99A0701D0022BDCD8BE
S21401BF90237D87F82230637D87F82330A269E36921
S21401BFA0FB62BA6221796279484603F033FC6B463C
S21401BFB048462168E26803F059FCD9F8243043F07A
S21401BFC00203C9F82430D9F8103043F00103C9F848
S21401BFD010300028B9D0398894F812C094F804E0DB
S21401BFE0627C009B94F806A0277C019100244846B9
S21401BFF001A98DF80EC08DF80FE004938DF8152079
S21401C0008DF808408DF809408DF80A408DF80B40F0
S21401C0108DF80D408DF80CA08DF8147003F0A2FC7D
S21401C020214608F1250000F005F9074B044698570C
S21401C030FFF7C6FB2B69204643F001032B6106B0D0
S21401C040BDE8F087180A00209CD6FF1FA0D6FF1F68
S21401C050F8B580B1002607460C463546204600F066
S21401C0600DF80135002818BF0646BD4204F1180434
S21401C070F4D13046F8BD0646FBE700BF2DE9F04196
S21401C080037A04684168012B54F821804FD04BD3C2
S21401C090022B35D0437A827AC57A90F80CE0477B3A
S21401C0A0867B4FEA031C28F050080CF0100392011F
S21401C0B002F0400248EA030313432A0223F407432B
S21401C0C002F4E062134343EACE333F0423F47023C1
S21401C0D007F470273B430EB143F0807344F82130D8
S21401C0E00122D4F8C060437D8A40D7433E408B404E
S21401C0F03343012DC4F8C03005D00020BDE8F081DF
S21401C10048F00308C6E70369057D5C69C5B1012DE2
S21401C11012D122435A61827D18688A40074017432C
S21401C1201F600020BDE8F08128F00208B2E728F081
S21401C130010848F00208ADE75C610020BDE8F08127
S21401C14027405F610020BDE8F08100BF30B4084C95
S21401C150002520602171A573A26022B12373637349
S21401C16030BC03F02DBC2273627330BC03F028BCD4
S21401C170B4130020F8B519480E4603F055FC0546E1
S21401C18048BB33783BB304467268144823B203EBCA
S21401C1904303D718D15C7A7803F074FC0134337802
S21401C1A0E4B2A342F0D8B3B11A46002403E0013446
S21401C1B0E4B294420FD2716804EB44030B449978BD
S21401C1C00029F4D05978054803F06EFC0134327822
S21401C1D0E4B29442EFD32846F8BD00BF00300640D3
S21401C1E010B5054803F068FC044610B91620FFF7A1
S21401C1F0E7FA204610BD00BF00200540074B1A682D
S21401C200920407D44AF202625A604BF2804259689D
S21401C2105A607047024A5A60704700BF00200540C6
S21401C22002A680B4024A136801331360704700BF48
S21401C2306408002038B504460D46FFF7E5FA257078
S21401C240FFF7D6FA002038BD00207047B0F900305D
S21401C25070B4446803F18043013BB4F9002004EB59
S21401C26083008A42458834F8233060881EDA1BB280
S21401C2708B421EDD002301339BB21AB2950034F9BE
S21401C28022008142F7DC02F18042013A254434F96A
S21401C2902240B5F9026035F9023C0A1B02FB06F2A0
S21401C2A0411A01FB0321001B91FBF0F000B270BCA8
S21401C2B0704728B270BC704703480449044A0023FB
S21401C2C003700B80138070478D08002050090020F2
S21401C2D07C0900202DE9F043037A8DB00446062B35
S21401C2E000F2A880DFE803F03535560404728C00AE
S21401C2F0DFF84481CDF82C8008AE96E80F008DE873
S21401C3000F004FF0010E06250027CDF814E08DF83A
S21401C31018508DF8107004AD95E80F0000F07CFE03
S21401C32028464FF0140E94E80C000221CDF82C801C
S21401C3308DF81070CDF814E000F038FE96E80F0086
S21401C3408DE80F0095E80F0000F066FE0DB0BDE821
S21401C350F083DFF8E490CDF82C9008AE96E80F0055
S21401C3608DE80F00012506274FF0000805958DF88A
S21401C37018708DF8108004AD95E80F0000F04CFEA3
S21401C3802846022194E80C00CDF82C908DF81080F8
S21401C3900597D1E7DFF8A080CDF82C8008AE96E8A7
S21401C3A00F008DE80F004FF0010E06250027CDF88F
S21401C3B014E08DF818508DF8107004AD95E80F0054
S21401C3C000F02AFE28464FF0080EACE704AD1A4BE3
S21401C3D002680B93284601260824032100238DF8C2
S21401C3E01060059400F0E2FD0CAB13E90F008DE838
S21401C3F00F0095E80F0000F00FFE0DB0BDE8F083CA
S21401C40004AC00220C490B91204613460126022556
S21401C41005218DF81060059500F0C8FD0CAB13E9F9
S21401C4200F008DE80F0094E80F0000F0F5FD0DB049
S21401C430BDE8F083002089E75409002070B55D4C03
S21401C4405D4D23682A7801338CB02360072A0BD808
S21401C450DFE802F03F2E60811D040404574A12688B
S21401C4609B1AB3F5FA6F10D3554C564B2288564893
S21401C4700132A3FB0213DB080168C3EB0313D31AD3
S21401C48001310022238001602A700CB070BD00F0DB
S21401C4903DFE4E4B1B689842E6D2484A2168136817
S21401C4A0CB1AB3F57A7FF0D9082311602B70ECE72D
S21401C4B000F02CFE454B1B68984268D23F4A216823
S21401C4C01368CB1AB3F57A7FDFD9052311602B7079
S21401C4D0DBE73B4B3E4A1B8812889A42D5D03D4A41
S21401C4E03A4E03EB430302EB830393E8070004ABE6
S21401C4F083E807001846FFF7EDFE9DF818302F4A2F
S21401C50021683060053B012B94BF04230123116091
S21401C5102B70BAE7294A12689B1A012BB5D90CACC5
S21401C520012304F8203D00222B490B911346204697
S21401C53005210226059600F039FD0CAB13E90F0024
S21401C5408DE80F0094E80F0000F066FD1F4A0323F4
S21401C55010602B7099E700F0D9FD1C4B1B689842C0
S21401C5601BD31D4B5B7813F0010310D1144C154AF5
S21401C570218815482B700131A2FB0123DB080268D4
S21401C580C3EB0313CB1A0132238002607DE70B4B0A
S21401C59022681A6002232B7077E7084A216813681D
S21401C5A0CB1AB3F57A7F7FF670AF072311602B7035
S21401C5B06BE700BF840800208D080020900800204B
S21401C5C07C090020898888884C090020880800207A
S21401C5D0500900209408002080090020F0B51A4D6B
S21401C5E01A4B2E881B881A4C85B04FF0FF310190EC
S21401C5F006F11000C31AA4FB0320C008C0EB00100C
S21401C6000322181A02918DF80C2018D004AB13E9F6
S21401C6100700DFF848E00F4B771C06EB4606A4FB45
S21401C62007C40EEB860686E80700E4081868C4EB24
S21401C630041401303C1B2C80186005B0F0BD064B7D
S21401C64001221A7005B0F0BD500900207C090020B7
S21401C65089888888480900208C08002094080020D2
S21401C66010B407498A78CB780C784878120442EAE5
S21401C6700363234343EA00205DF8044B704700BF81
S21401C68068090020014B1868704700BF4C0900205C
S21401C69030B58DB00CAC012304F8203D0E4B0B9346
S21401C6A002460321204600231425059500F07EFC52
S21401C6B00CAB13E90F008DE80F0094E80F0000F0B3
S21401C6C0ABFC044601E0FCF753FE00F01FFD84427C
S21401C6D0F9D801480DB030BD68090020F0B5194DF4
S21401C6E0194B2E881B88194C85B0019006F1100055
S21401C6F0C31AA4FB0320C008C0EB00100222181ABC
S21401C70002918DF80C2018D004AB13E90700DFF86E
S21401C71048E00F4B771C06EB4606A4FB07C40EEB5E
S21401C720860686E80700E4081868C4EB041401309E
S21401C7303C1B2C80186005B0F0BD064B01221A7018
S21401C74005B0F0BD500900207C0900208988888842
S21401C750480900208C0800209408002030B58DB0D0
S21401C7600E4B0B93102904AC4FF0010394BF0D1D23
S21401C770142502468DF81030204603210023059526
S21401C78000F014FC0CAB13E90F008DE80F0094E8E1
S21401C7900F0000F041FC0DB030BD00BF680900205D
S21401C7A030B58DB0134B0B93102904AC4FF0010339
S21401C7B098BF0D1D024688BF142520468DF81030FF
S21401C7C003210023059500F0F1FB0CAB13E90F00E4
S21401C7D08DE80F0094E80F0000F01EFC044601E00F
S21401C7E0FCF7C6FD00F092FC8442F9D801480DB072
S21401C7F030BD00BF6809002010B5044600F086FC75
S21401C800024BA0420CBF1846002010BD680900204C
S21401C8102DE9F041C24D2868B0F5804F82B016D29E
S21401C820C04C2378012B00F0A180022B27D0032BCC
S21401C83000F0DE80042B56D0052B00F0B080062BCE
S21401C84000F01081B84A0133DBB2106813E0B64E2F
S21401C850B44C33688DF8013008221B0A40F23B3095
S21401C86069468DF80030FCF74DFDB04A306800236C
S21401C87013702B600123237002B0BDE8F081AC4A2F
S21401C880AC49126809688DF803200025160A8DF850
S21401C89002608DF800508DF801500D788DF8045027
S21401C8A04D788DF805508D788DF80650C9788DF83D
S21401C8B007103F2A40F29480B2F5907F4ED341F2A2
S21401C8C0FE718A4240F21B8143F6FE718A4240F2B3
S21401C8D0FD80954A106801330130DBB21060237089
S21401C8E002B0BDE8F0819249924A0968126801F1E6
S21401C8F00806370A00258DF803608DF802708DF85A
S21401C9000150167A8DF80460567A8DF80560967A8D
S21401C9108DF80660D27A8DF800503F298DF80720F1
S21401C9205ED9B1F5907F19D341F2FE72914240F281
S21401C930EE8043F6FE729142CBD8A0F5C0507E4AF7
S21401C94083B2A2FB032302A95B0A01F8083D40F269
S21401C95039300822FCF7D6FC2378BAE740F23230A9
S21401C96069460822FCF7CEFC2378B2E7A0F5907260
S21401C97041F2DE639A4298BF704D6E4E98BF2868AA
S21401C980FFF786FE2378684A2D68694930600133CF
S21401C99010680D60DBB2237002B0BDE8F081644917
S21401C9A0644A0968126801F10C0592F80CC092F805
S21401C9B00DE0977BD67B8DF8035000224FEA1528B1
S21401C9C03F298DF802808DF804C08DF805E08DF8BA
S21401C9D006708DF807608DF800208DF8012057D875
S21401C9E040F2313069460822FCF78CFC237870E768
S21401C9F04F49504A096812680E1D0025370A8DF8FE
S21401CA0003608DF802708DF800508DF8015015798D
S21401CA108DF8045055798DF8055095798DF80650A6
S21401CA20D2798DF807203F29DAD9B1F5907F95D3D1
S21401CA3041F2FE7291425AD943F6FE7291423FF696
S21401CA4048AFA0F5C0503C4A83B2A2FB032302A91B
S21401CA505B0A01F8083D4FF44E700822FCF752FCC1
S21401CA60237836E700F1100241F2DE63A0F5887004
S21401CA7098422A6008D8314A13681033B3F5C05F6C
S21401CA8028BF4FF490731360274A01231068F2E61B
S21401CA90B1F5907FFFF462AF41F2FE7291424FD939
S21401CAA043F6FE7291423FF614AFA0F5C050224AFB
S21401CAB083B2A2FB032302A95B0A01F8083D40F2F8
S21401CAC03A300822FCF71EFC237802E7A0F5C05096
S21401CAD0194B80B2A3FB002302A95B0A01F8083DAB
S21401CAE040F237300822FCF70DFC2378F1E64FF4CC
S21401CAF04D7069460822FCF705FC2378E9E640F20A
S21401CB00333069460822FCF7FDFB2378E1E640F264
S21401CB10353069460822FCF7F5FB2378D9E600BFD5
S21401CB209C09002098090020AC090020A4090020D7
S21401CB3094090020A8090020CDCCCCCCA009002067
S21401CB4040F2363069460822FCF7DCFB2378C0E663
S21401CB5030B5694C83B023780022054600920192D5
S21401CB60032B00F2C780DFE803F017270F02634AA2
S21401CB70138801339BB2B3F57A7F13804FF0000020
S21401CB8008D3207003B030BD428940F247339A4241
S21401CB903FD0002003B030BD438940F24632934275
S21401CBA045D040F245329342F3D1FCF7A3FB00286F
S21401CBB040F08180237836E0438940F24732934241
S21401CBC027D00020A3F55C72032A48D8DFE802F0DC
S21401CBD013100D0240F2833320B918466946082225
S21401CBE0FCF790FB012003B030BD40F28233F3E73F
S21401CBF040F28133F0E700238DF800308DF80130E4
S21401CC008DF802308DF803308DF805304FF46073DF
S21401CC10E2E7002340F24730694608222370FCF71A
S21401CC2071FB23780120012BB4D16B89CAE70188F7
S21401CC3042F211329142D5D1418844F23572914285
S21401CC40D0D1818846F259129142CBD1C18848F29F
S21401CC50735291424FF001009CD12070B2E7002838
S21401CC60C0D140F25132934222D040F25232934226
S21401CC7090D12A8843F221339A428BD16A8845F2B1
S21401CC8045739A4286D1AA8847F669239A4281D18A
S21401CC90EA8849F68C639A427FF47CAF00F080F90B
S21401CCA040F2623069460822FCF72CFB012071E74E
S21401CCB040F26130F6E72A8842F211339A42B0D147
S21401CCC06A8844F235739A42ABD1AA8846F2591360
S21401CCD09A42A6D1EA8848F273539A42A1D10849EA
S21401CCE0084B0968084A1960002102231160237065
S21401CCF001204FE7002096E7A4090020B009002094
S21401CD00F4D5FF1FA0090020AC09002010B5FFF7DD
S21401CD10D3FA084B084A012100241C7011709C703C
S21401CD2000F04EFA00F0C6FA00F01CFE034B1C7031
S21401CD3010BD00BFBC09002030150020B30900203B
S21401CD40014B01225A707047BC09002070B58C4C0B
S21401CD50637803B970BD00238A4D637022782B78FF
S21401CD6093420AD05A1E2370042A06D8DFE802F03E
S21401CD70767F7C03790000F025FAFFF75FFB00F071
S21401CD8073FB2B78013B042B16D8DFE803F0560320
S21401CD90493C2F00FCF7C0F900F0EEFDAB78794A6C
S21401CDA0012B00F0DD80022B00F08A80032B03D1DB
S21401CDB00523137000F0DEFDA378714A0133DBB260
S21401CDC0A370A3780A2BC5D16F4C23780021022BC0
S21401CDD0917000F0D280012B77D02B78013B042B89
S21401CDE05BD8DFE803F06A6764615E0000F08AFAE8
S21401CDF06B79644E062BDFD100F0ECFD0223337015
S21401CE0000F07AFAD8E700F0DFF92B795D4E052BB2
S21401CE10D2D100F0DFFD0223337000F045FACBE7F4
S21401CE2000F05AFBEB78574E052BC5D100F0D2FD2A
S21401CE300223337000F04EFBBEE700F0C1FB6B78B7
S21401CE40504E142B00F09180152BB5D15520FCF7D0
S21401CE50CDF90623337000F083FDADE700F0AAFBA1
S21401CE608BE700F047FA88E700F02EFB85E700F035
S21401CE707BFD82E7FFF706FC444B1B6898420CD308
S21401CE80434A13688033B3F5804F34BF0121032131
S21401CE90184613603170FCF7B3F9BDE87040FCF733
S21401CEA023BA00F0C5FAF8E700F0FCF9F5E700F060
S21401CEB07FFBF2E700F08CFDEFE700F04FFDECE7BB
S21401CEC00423137000F056FD76E7324D2B78002BC5
S21401CED0E3D0314E3378032BDFD801A252F823F08A
S21401CEE055CF010005CF010075CE0100F1CE01003E
S21401CEF02A48FCF785F9FFF709FF002323702B70FA
S21401CF003370CAE7224B1C682046FFF767FB04F123
S21401CF101000FFF763FB04F12000FFF75FFB04F14D
S21401CF203000FFF75BFB04F14000FFF757FB04F10D
S21401CF305000FFF753FB04F16000FFF74FFB04F1CD
S21401CF407000FFF74BFB114B18600028A5D0022399
S21401CF503370A2E70E4A00210123116033709CE76B
S21401CF600323137000F006FD26E70120FCF73EF9C7
S21401CF700223337000F0F4FC1EE7FFF749FC8CE750
S21401CF80BC09002030150020A4090020B8090020A3
S21401CF90B4090020B2090020B3090020AA55AA55F9
S21401CFA0014B01221A707047B2090020F0B545689E
S21401CFB00172140C110A0C2DC272447281720AD0CD
S21401CFC0142D08D0082D1FD0062D03BF1A0A03738F
S21401CFD042730373F0BD4FEA136EC3F30747C3F3FF
S21401CFE007260422DBB2002163F3070102F10804DD
S21401CFF066F30F21043267F31741D2B26EF31F6155
S21401D00095420151EFD8F0BD1C0E190C1A0A037394
S21401D010C47381734273F0BD84B02DE9F04F344F71
S21401D020DFF8E0E03C789EF80050324E0634641B90
S21401D030A6FB04C58DB0AD0805EB85050DF1580CB2
S21401D0408CE80F00601B2DD097F800909EF800C06A
S21401D05097F800A097F800E0274CDFF8AC8016ADF3
S21401D0600FCD0EF1010EA6FB0EB6B60806EB860630
S21401D07004EB4A14C6EB0E060FC4F6B295E80F0091
S21401D0803E70D8F80050E14505F1010584E80F002F
S21401D090C8F800500ED0D8F800000DB0BDE8F04F2B
S21401D0A004B07047154B01221A700DB0BDE8F04F61
S21401D0B004B0704716AD0FCD04AC0FC495E80F0051
S21401D0C004AD84E80F00FCF7A9F80FCD0C4C0FC493
S21401D0D095E80F0084E80F000CAB13E90F008DE80C
S21401D0E00F0004AC94E80F00FCF7A4F8D3E700BFE8
S21401D0F0CA090020CDCCCCCC58150020C809002088
S21401D10038150020C9090020C0090020014B186805
S21401D110704700BFC409002070B594B0FCF784F8CE
S21401D1202149224A0B782248224C0133A2FB0352A2
S21401D130920802EB82029B1ADBB20B700368013382
S21401D140036022780B789A422AD022780B789A428A
S21401D15028D00D78184B03EB45150FCD04AC2646A9
S21401D1600FC695E80F0086E80F000FCC0CAD0FC573
S21401D17094E80F0085E80F000CADFCF74FF80FCDD3
S21401D1800E4C0FC495E80F0084E80F0014AB13E9AA
S21401D1900F008DE80F000CAC94E80F00FCF74AF87E
S21401D1A014B070BD04ACE0E7C9090020CDCCCCCCEE
S21401D1B0C4090020CA09002058150020381500208F
S21401D1C0704700BF704700BF70B5324C2379042BFF
S21401D1D004D8DFE803F00D1B2748040070BDFFF7F5
S21401D1E051FA2D4B1B689842F8D30523237170BD65
S21401D1F02A4B1A78022AF8D1197C002942D15B6899
S21401D200403BDF2BF1D80123237170BD234B5868B7
S21401D2109968FFF763FA204B18600028E5D00423CD
S21401D220237170BD1E4A1D4B1568DB682D015E1902
S21401D230595905F14000FFF751FA716805F14400AC
S21401D240FFF74CFAB16805F14800FFF747FAF168B5
S21401D25005F14C00FFF742FA0F4B18600028BDD0CD
S21401D2600323237170BDFFF70DFA0B4B1B68984221
S21401D270B4D30B4A136801330D2B1360CFD80223A6
S21401D280237170BD0129B0D1054B227100221A60AD
S21401D29070BD00BF30150020D0090020C81800203E
S21401D2A0CC090020704700BF014B00221A7170475D
S21401D2B0301500200249034A00234B711370704752
S21401D2C030150020D409002030B4084A084B1288D3
S21401D2D01A81102528244FF4207101229D80DC80BC
S21401D2E0186059811A7330BC704700BF481B002074
S21401D2F098180020704700BF014B01225A717047F1
S21401D3003015002070B5424C6379052B08D8DFE84C
S21401D31003F003112142520863783D4A142B6ED064
S21401D32070BDFFF7AFF93B4B1B689842F8D3062355
S21401D330637170BD384B1B78032BF8D1374A384BD5
S21401D340117800220F291A735CD8364902230A8005
S21401D350637170BD334A344B1688344D1B683601F1
S21401D36035441E4429683046FFF7B8F96968301D10
S21401D370FFF7B4F9A96806F10800FFF7AFF906F15F
S21401D3800C00E968FFF7AAF9224B18600028C7D0FD
S21401D3900323637170BDFFF775F91E4B1B68984236
S21401D3A0BED3204A138801339BB2272B138020D883
S21401D3B00223637170BD194803780133DBB20F2B6A
S21401D3C00FD91021017043F6FF73174A38201360F6
S21401D3D0FFF784F90F4B18600028A1D0052363716D
S21401D3E070BD03EB8302D2011946037002F5C053E8
S21401D3F0EBE70B4A012104231173637170BD01230E
S21401D400537170BD012106221973627170BD00BF90
S21401D41030150020D8090020C8180020D4090020A3
S21401D42098180020DC090020F0D5FF1FF815002011
S21401D430704700BF0F2809D800EB8003DB0103F516
S21401D440C0530449044A0B601070704743F6FF73DB
S21401D4501020F6E7F0D5FF1FD4090020014B1878FD
S21401D460704700BFD4090020F8B5134B5B78142B26
S21401D47000D0F8BD114C237B002BFAD0104D228929
S21401D4802B889A4202D901332B80F8BD0D4EA7880E
S21401D4903088216810303A46304402F093FB3388D6
S21401D4A062893B449BB29A4233809CBF00233380FF
S21401D4B000232B80F8BD00BF3015002098180020EF
S21401D4C0D6090020F8150020014B0022DA707047BB
S21401D4D030150020704700BF2DE9F041304DEB7844
S21401D4E0042B06D8DFE803F011241A3607002D4B6B
S21401D4F01860BDE8F081FFF7C5F82A4B1B68984213
S21401D50049D30523EB70BDE8F081FFF7A7FF0F288D
S21401D510F7D8254B1B78012BF3D118E0FFF7B2F8AB
S21401D520204B1B689842E4D30323EB70BDE8F081DF
S21401D5301E4B18681030B0F5C05F28BF4FF49070CE
S21401D540FFF74CF8174B18600028D2D00223EB7077
S21401D550BDE8F081DFF85480134ED8F8004004F19E
S21401D5601007204656F8041F0434FFF7B7F8BC42EC
S21401D570F7D10028BBD0D8F800300C4A1033B3F5E9
S21401D580C05F0AD34FF490731360064A04231060F9
S21401D590EB70BDE8F081BDE8F0811360F5E700BFF0
S21401D5A030150020E0090020C8180020F4D5FF1F20
S21401D5B0704700BF014B00225A707047301500209B
S21401D5C0F0B5B34C637883B0132B48D8DFE813F07B
S21401D5D05B00640073008A0014009200A300A90097
S21401D5E0B200C800D20021012B01470032013F01E1
S21401D5F05601820185014900A64D2868FEF7EEFF17
S21401D60028681030FEF7EAFF28682030FEF7E6FFAC
S21401D61028683030FEF7E2FF28684030FEF7DEFF6C
S21401D62028685030FEF7DAFF28686030FEF7D6FF2C
S21401D63028687030FEF7D2FF2B68002800F0598169
S21401D6408033B3F5907F2B60C0F07A819249934A7C
S21401D650012600230E7010602B600523637003B053
S21401D660F0BDFFF753FD8E4B1B689842F7D1FEF7CE
S21401D670F7FFC0B2FFF7DEFE1423637003B0BDE808
S21401D680F040FBF739BD2378814A012BE7D1854964
S21401D690537000230B70E2E700201021FFF75EF8BD
S21401D6A07F4B18600028DAD07E4A137802210133B6
S21401D6B013706170D3E7FFF729FD794B1B68984219
S21401D6C0CDD31846FFF798F8774B0146774819608F
S21401D6D0F3F7ACFA002840F01981724A0C23107057
S21401D6E06370BCE76F4B1B78022B00F20C8104239E
S21401D6F06370B4E7FEF7C6FF684B1B689842AED36B
S21401D700654B1B78002BF2D0694A4FF490710623C3
S21401D71011606370A3E7614A0121072311606370FA
S21401D7209DE7FEF7AFFF5D4B1B68984297D3082332
S21401D730637094E700235F4A5F4E19464FF4C05565
S21401D740382033701560FEF7C9FF3C201021FEF724
S21401D750C5FF524B1860002881D0092363707EE70D
S21401D760FEF790FF4D4B1B689842FFF478AF0A23F3
S21401D770637074E7514E524D524F0FCE2860696068
S21401D78003CF286128693F78EB600026AA606961AB
S21401D79001904D492F7610206E76AE76EE762E7776
S21401D7A06E77AE77EE77FEF799FF6869019001997B
S21401D7B01420FEF793FFA869019001991820FEF73F
S21401D7C08DFFE86901902F4601992020FEF786FF1C
S21401D7D057F8040B019001993046FEF77FFF386831
S21401D7E0019001990420FEF779FFA868019001993C
S21401D7F00820FEF773FFE868019001990C20FEF7F8
S21401D8006DFF264B186000283FF429AF0B23637089
S21401D81025E7FEF737FF214B1B689842FFF41FAF41
S21401D820012363701BE7294A4FF490710E231160A0
S21401D830637014E7254B04211868FEF78FFF184B19
S21401D840186000283FF40BAF0F23637007E7FFF75C
S21401D8505DFC134B1B6898427FF401AFFEF700FF97
S21401D8601B4B1A4A186001305FD013681033B3F5AA
S21401D870C05F13604DD20E236370F0E6FEF702FF21
S21401D880064B1B689842FFF4EAAE11236370E6E686
S21401D89030150020EC090020E8090020F8090020D6
S21401D8A0FC090020F0090020F40900207040020065
S21401D8B0F4D5FF1FF0D5FF1FD409002080400200D9
S21401D8C0A81800209040020057656237F8D5FF1F60
S21401D8D0E409002012236370C1E638200421FEF714
S21401D8E03DFF1A4B186000283FF4B9AE132363704E
S21401D8F0B5E6B3F5907F1ED3154A164B2860012175
S21401D90011701860ABE615236370A8E603236370F5
S21401D910A5E64FF49073104A18461360FEF75EFEB4
S21401D9200C4A10231060637099E60B4B12681A605C
S21401D9301123637093E6064A064B107018608EE654
S21401D940034A044B00211170186086E6FC0900208A
S21401D950E8090020F8090020F4D5FF1F704700BF32
S21401D960704700BF704700BF014B00229A70704796
S21401D97030150020704700BFF0B4104EB378BBB925
S21401D9800F4A104B14881B88A34211D00E4B0F4F21
S21401D99004EB840403EB84040FCC3D460FC53B78AF
S21401D9A022682A60012B05D0032B03D0022B01D05D
S21401D9B0F0BC7047B370F0BC704700BF3015002054
S21401D9C0000A0020020A0020DC180020C8180020E7
S21401D9D0704700BF10B4094C094B22880948013230
S21401D9E0A3FB02131B090169C3EB0313A2EB430359
S21401D9F00131238001615DF8044B7047000A002065
S21401DA0089888888040A0020F0B585B0002962D08C
S21401DA10424BD3F80021C2F34062002A45D1D3F825
S21401DA2000413F4D24F400044FF08066C3F80041E6
S21401DA30C3F800612A60002842D091F806E0C87950
S21401DA404A794F7A0C7A0E794FEACE0E00010EF023
S21401DA50080E00F0300092003F024EEA000002F08D
S21401DA60040207F4E06704F007040243012E47EAC4
S21401DA700400C3F80401C3F8082141D023D3022EC1
S21401DA8007D10C7B2748284A002C18BF0246C3F84A
S21401DA9000210B682B605BB9244B204AD2F8001199
S21401DAA0013BFBD1032005B0F0BD022005B0F0BD5F
S21401DAB01F4B1A49D1F80021D2012AD5002BF1D0EB
S21401DAC0002005B0F0BD087B1A4A002808BF0122D5
S21401DAD0C3F80021DDE701238DF80A108DF80B103D
S21401DAE08DF804108DF80C108DF805108DF80610C1
S21401DAF08DF808308DF809308DF80730694687E7CC
S21401DB00087B0D4A002808BF4FF00112C3F8002118
S21401DB10BFE7002BC6D0013BCCE700BF0040064064
S21401DB20341B0020010083000100030089E7300058
S21401DB3088E7300001008000010081000C4BD3F81B
S21401DB400001C0F3006088B10A4A106870B1D3F8CA
S21401DB500826D3F80836C3F30443C2F3022210336F
S21401DB600132B0FBF2F003FB00F04008704700BF43
S21401DB7000400640341B0020F0B583B0002954D085
S21401DB80324AD2F800339C0149D4D2F800334FF020
S21401DB90806423F40003C2F80033C2F8004300286F
S21401DBA040D08D7891F805C04C78294B91F806E065
S21401DBB00F782848284EBCF1000F4FEA052504F0DF
S21401DBC007011ABF18460924012405F4E06545EA51
S21401DBD00103BEF1000F08BF2046114607F00304FB
S21401DBE0C2F80433C2F80843C2F80003D1F8002390
S21401DBF0D2014FF0140306D473B1D1F80023D20139
S21401DC0003F1FF33F8D5D1F8082302F0030256F8E2
S21401DC102220002AF0D02BB9032003B0F0BD022049
S21401DC2003B0F0BD002003B0F0BD01238DF8031052
S21401DC308DF804108DF806108DF800108DF805305B
S21401DC408DF801308DF80230694699E700400640AC
S21401DC500900800001008000B0410200F0B583B0E9
S21401DC60002950D0314BD3F80022C2F34062002A7B
S21401DC7047D1D3F8004224F40004C3F80042C3F8A5
S21401DC80002200283AD00F798E798C7891F805E039
S21401DC9048780D78002F15BF072105210327012796
S21401DCA0BEF1000F08BF39462402002E14BF4FF400
S21401DCB00006002604F4E06400F007003143204328
S21401DCC005F00104C3F80402C3F80842C3F80012C1
S21401DCD0D3F80012C90125D418466423D0F80022CF
S21401DCE01249D20103F1FF3304D4002BF6D10320ED
S21401DCF003B0F0BDD1F80822002BF8D0002003B005
S21401DD00F0BD0220FBE78DF804108DF8061002A97D
S21401DD10012301F8083D8DF805308DF801308DF8A6
S21401DD2002309FE7D3F808321046E8E70040064085
S21401DD3030B484B0002971D04C4BD3F8002695013D
S21401DD405CD4D3F800264FF0806422F40002C3F8B6
S21401DD500026C3F80046002854D048790A79D3F83B
S21401DD6000410C78000200F4E06002F00702024372
S21401DD70C3F8042688784A780004120200F4F810E2
S21401DD8002F4E0620243012CC3F8082659D03DD3C1
S21401DD90022C07D1C879364A3649002818BF0A46E8
S21401DDA0C3F80026344B1D68002D53D02F49D1F8F7
S21401DDB00026D0014FF47A7306D4DBB1D1F80026E1
S21401DDC0D00103F1FF33F8D5D1F80021D201F4D503
S21401DDD0D1F80846D1F80826C2F3044202F1100031
S21401DDE0C4F30224621CB5FBF2F200FB02F25208F5
S21401DDF0E3D03BB9032004B030BC7047022004B026
S21401DE0030BC7047002004B030BC7047C9791B4A4B
S21401DE10002908BF0122C3F80026C3E701238DF8B5
S21401DE200A108DF804108DF80B108DF805108DF87A
S21401DE3006108DF807108DF808308DF8093001A905
S21401DE407AE7C9790E4A002908BF4FF00112C3F8D4
S21401DE500026A7E7054A40F2E933D2F80016CC01BE
S21401DE6048BFD2F80011013BF7D1C3E70040064096
S21401DE700100030001008300341B00200100800024
S21401DE80010081001D4A1369C3F30113022B2AD036
S21401DE90032B1AD0012B10D0194BD3F80001C0F375
S21401DEA0006008B1174B1868154BD3F8043113F00E
S21401DEB0070316D0013BD8407047136913F0020FD1
S21401DEC014BF4FF4FA40002070470D4BD3F80003FF
S21401DED0C0F3006050B90A4BD3F8043313F00703BC
S21401DEE0E8D118467047084B18687047D3F80833CE
S21401DEF0064A03F0030352F82300ECE700800440CF
S21401DF0000400640341B0020381B0020B0410200B0
S21401DF102DE9F041CD788A784C780E786B1E571C27
S21401DF20052B09D8DFE803F06152030808315C4B82
S21401DF30D3F80013C90175D4012865D0032868D128
S21401DF404FF0000C4FF0020E0EEB4E039B00DFF875
S21401DF50648158F8031001FB07F16145434411D36E
S21401DF605B6804FB077103FB01F363450AD30C23CB
S21401DF7003FB0E8E06FB0777DEF8083003FB07F37C
S21401DF80634546D20120BDE8F081454BD3F8001623
S21401DF90C901D1D5D3F80011C901CDD54149D1F870
S21401DFA000E0BEF1000FC7D0D3F80816D3F8083644
S21401DFB0C3F3044C0CF11003C1F302210131BEFB83
S21401DFC0F1FC03FB0CFC4FEA5C0C16E0344BD3F877
S21401DFD00012C901B0D5D3F808E23349334B1EF01D
S21401DFE0010F14BF8C469C4607E02D4BD3F8003139
S21401DFF0DB01A1D52B4BD3F800C0012806D003289E
S21401E000A0D04FF0000E9FE74FF0000C4FF0010E2E
S21401E0109AE7022832D003281ED001280AD0002011
S21401E020BDE8F081D3F80833214903F0030351F822
S21401E03023C0E2E72D06120405F0706502F4702293
S21401E0402A4306F00F0624013243154BE4B214436B
S21401E0505C610020BDE8F0812D06120405F07065B4
S21401E06002F470222A4306F00F06240132430C4BB9
S21401E070E4B21443DC610020BDE8F0812D061204F1
S21401E08005F0706502F470222A4306F00F0624019B
S21401E0903243034BE4B214439C610020BDE8F08197
S21401E0A000400640341B002000127A0080841E00C7
S21401E0B0B04102009C4002009C4B5B69DBB2042B22
S21401E0C0F0B500F0C480802B00F0AF80012B0DD09E
S21401E0D00425C278817844780678531E481C052B9F
S21401E0E01ED8DFE803F0938B611D1D11C27881787D
S21401E0F044780678531E481C052B5ED8DFE803F0EB
S21401E100857D535D5D030125894BD3F80026D70134
S21401E11000F1B5800622012D4FD0032D00F092802C
S21401E120022D00F0F280032D00F0DF80012D00F0BB
S21401E130CA807F4B1969C1F30361914200F0D38015
S21401E1401969C1F30361914200F0CD801969C1F3E9
S21401E1500361914200F0C7801969C1F303619142DE
S21401E16000F0C1801969C1F30361914200F0BB80E0
S21401E1701969C1F30361914200F0B5801969C1F3D1
S21401E1800361914200F0AF801969C1F303619142C6
S21401E19000F0A9801969C1F30361914200F0A380E0
S21401E1A01B690320F0BD0125614BD3F80023D20182
S21401E1B05CD4012D4FF00302AFD14FF0000E0125C4
S21401E1C02B4603EB43039B00DFF878C15CF8037032
S21401E1D007FB00F7774563440DD35F6804FB000C2B
S21401E1E007FB0CF7774506D39B6806FB000003FB8D
S21401E1F000F0704594D20120F0BD01254C4BD3F8B8
S21401E2000022D70127D4022285E70125484BD3F8FF
S21401E2100031DB011DD5474BD3F800E00122012D6B
S21401E220CDD0032D10D00023CBE7C2788178447877
S21401E2300678531E481C052B04D8DFE803F03E3C45
S21401E240420303404FF0000E03250223B9E70225DF
S21401E2503FE701225FE7D3F80872374A374B17F0DA
S21401E260010F14BF96469E460222D8E7D3F808331C
S21401E270334F03F00303032257F823E0CFE7D3F825
S21401E2800021D2017FF546AF2A4A1768002F3FF4D6
S21401E29041AFD3F80826D3F80836C3F30443C2F3D4
S21401E2A0022210330132B7FBF2FE03FB0EFE4FEAE9
S21401E2B05E0E0622B3E70325A0E70325A6E703259E
S21401E2C022E7032570E70904130601F4702103F021
S21401E2D070630B4306F00F062401E4B2334314497E
S21401E2E023434B6125E70020F0BD0904130601F422
S21401E2F0702103F070630B4306F00F062401E4B2AD
S21401E30033430B492343CB6113E70904130601F496
S21401E310702103F070630B4306F00F062401E4B28C
S21401E3203343034923438B6103E700BF00E0074003
S21401E33000400640341B002000127A0080841E0034
S21401E340B04102009C400200614B1B6AC3F30363A9
S21401E350062B43D8DFE803F00D19233342420400AD
S21401E3605B4BD3F80006C0F30060002840F09480B1
S21401E3707047574B1B69C3F30363013B052B6ED8EC
S21401E380DFE803F05646376D6D2E514BD3F800018A
S21401E390C0F300600028EBD04E4B186870474C4B1A
S21401E3A0D3F80002C0F300600028E1D0D3F80822B9
S21401E3B0494B4A4812F0010F18BF18467047444BA4
S21401E3C0D3F80003C0F300600028D1D0D3F8083397
S21401E3D0434A03F0030352F8230070470020C7E7BF
S21401E3E03B49D1F80036C3F30063002B39D11A46F6
S21401E3F027E0374AD2F80033C3F30063002BF6D088
S21401E400D2F80833364A03F0030352F8232018E003
S21401E4102F4AD2F80032C3F30063002BE7D0D2F8BC
S21401E42008122E4B2C4A11F0010F08BF1A4608E0BD
S21401E430274BD3F80031C3F30063002BD7D0254B0D
S21401E4401A68234B18691969C0F3034001F00F01DC
S21401E45001300131B2FBF0F3B3FBF1F0704700225B
S21401E460EFE7D1F80031C3F30063002BBFD0194B9F
S21401E4701A68002AE5D0D1F80806D1F80836C3F3A1
S21401E480044303F11001C0F30220431CB2FBF3F373
S21401E49001FB03F35A08D4E7D3F80001C0F3006088
S21401E4A000283FF465AF0B4A106800283FF460AFC0
S21401E4B0D3F80826D3F80836C3F304431033C2F35F
S21401E4C002220132B0FBF2F003FB00F04008704775
S21401E4D000400640341B002000127A0080841E0093
S21401E4E0B041020008B5504B5B68C3F303130E2B13
S21401E4F016D8DFE803F032153515081547155615F9
S21401E5001E1521152F00494BD3F80002C0F30060F9
S21401E51000287FD1454BD3F80432C3F3022373BBE3
S21401E5200020414B5B68C3F302230133B0FBF3F0D9
S21401E53008BD4FF4FA30F4E73B4A1369C3F381038D
S21401E540022B3DD0032B3BD0002B0CBF4FF4FA30EF
S21401E5500020E6E7FFF796FCE3E7FFF7F5FEE0E7C6
S21401E560324BD3F80001C0F3006008B1304B186895
S21401E5702E4BD3F80431C3F30223002BD0D0013B3A
S21401E580D840CEE7294BD3F80003C0F3006000283B
S21401E59038D1264BD3F80433C3F30223002BEED134
S21401E5A0BEE7224BD3F80006C0F3006080B91F4BCC
S21401E5B0D3F80436C3F30223002BE0D11846B0E7A4
S21401E5C0136913F0020F0CBF00204FF4FA40A8E7BE
S21401E5D0D3F80001C0F300600028E8D0144A1068A0
S21401E5E00028E4D0D3F80826D3F80836C3F304434A
S21401E5F0C2F3022210330132B0FBF2F003FB00F04B
S21401E6004008D4E7D3F808330A4A03F0030352F864
S21401E6102300BEE7D3F80822074B084812F0010F83
S21401E62018BF184676E700BF008004400040064049
S21401E630341B0020B041020000127A0080841E00C4
S21401E640404B1B69C3F30363013B10B4052B5BD836
S21401E650DFE803F02C361D5A5A033A49D1F8003642
S21401E660C3F30063002B51D11A4636490B690128C2
S21401E670C3F3034303F10103B2FBF3F330D002D338
S21401E680022837D0002318465DF8044B70472D4A00
S21401E690D2F80033C3F30063002BE5D0D2F8083379
S21401E6A0294A03F0030352F82320DEE7254BD3F86B
S21401E6B00031C3F30063002BD6D0244B1A68D4E78D
S21401E6C0204AD2F80032C3F30063002BCCD0D2F834
S21401E6D008121F4B1F4A11F0010F18BF1A46C4E754
S21401E6E00A695DF8044BC2F303120132B3FBF2F37D
S21401E6F0184670470A695DF8044B02F00F020132B2
S21401E700B3FBF2F3184670470022AEE7D1F80031AA
S21401E710C3F30063002BA7D00C4B1A68002AA4D0C1
S21401E720D1F80846D1F80836C3F3044303F11001C3
S21401E730C4F30224631CB2FBF3F301FB03F35A0890
S21401E74093E700BF00400640B0410200341B0020A2
S21401E75000127A0080841E006D4B33F810309B0047
S21401E76003F1804303F5CA2370B51C681D68C4F322
S21401E770C00405F00705AC4200F2C8801868C0F373
S21401E7808070002800F0C3801B68C3F30263013B5E
S21401E790052B00F2B480DFE803F003214FB2B27814
S21401E7A011B101290DD0AAE05A4BD3F80021D3F8B4
S21401E7B00431D0014ABF584A0846106803F00703DF
S21401E7C099E0544BD3F80001C0F3006008B1524AF7
S21401E7D01068D3F80431C3F302238CE011B1012988
S21401E7E016D08CE04B4BD3F8002212F0807F1A46ED
S21401E7F008D0D3F80812494B494811F0010F18BF49
S21401E800184600E00846D2F8043203F0070372E027
S21401E810404BD3F80002C0F300601A4638B1D3F873
S21401E82008123E4B3E4811F0010F18BF1846D2F8A9
S21401E8300432C3F302235EE011B1012913D05EE076
S21401E840344BD3F80023D20107D5D3F80823354932
S21401E85002F0030251F8220000E00846D3F8043320
S21401E86003F0070347E02B4BD3F80003C0F3006027
S21401E87030B1D3F808232B4902F0030251F82200E5
S21401E880D3F80433C3F3022335E011B1012910D0C4
S21401E89035E0204BD3F8002612F0807F1E4602D0CA
S21401E8A0FFF74CF900E00846D6F8043603F00703F4
S21401E8B021E0184BD3F80006C0F30060B0B1D3F8DE
S21401E8C00001C0F3006088B1134A106870B1D3F834
S21401E8D00826D3F80836C3F30443C2F302221033E2
S21401E8E00132B0FBF2F003FB00F04008094BD3F80D
S21401E8F00436C3F3022313B1013BD84000E00020E5
S21401E9000135B0FBF5F004FB000070BD002070BDC2
S21401E910C040020000400640341B002000127A006E
S21401E92080841E00B0410200F0B50546A1B0002863
S21401E93000F0CC81094A1369C3F30363032B22D089
S21401E940D2F80033D9010BD401200021FFF714F9C6
S21401E950064670B1304621B0F0BD00BF004006400B
S21401E960D2F80833B34A03F0030352F82330002BDE
S21401E970EAD020ACB04B44F87C3D2046FFF79CFB28
S21401E98006460028E6D1E8782946FFF767F90646E5
S21401E990002800F06381A94B5B69DBB2042B00F011
S21401E9A07A81802B00F03182012BD3D105F1360715
S21401E9B0002ECFD1FB78032B40F0708195F82830DC
S21401E9C0002B40F025826B7F002B00F0318201ACDA
S21401E9D09B4B01932046FFF76FFB0646EB7813B17E
S21401E9E0012E00F02882002EB4D1A87BE91DFFF786
S21401E9F0C3F806460028ADD12046B978FC787A7867
S21401EA003B788DF807408DF806108DF805208DF8B7
S21401EA100430FFF751FB0646002E9BD195F83030A7
S21401EA2013B1884BEA6A1A6095F8353053B18649B6
S21401EA3095F834300A6A1B0622F0706203F07063A0
S21401EA4013430B6295F84330002B40F0FC812A6F8C
S21401EA5062B3EF6E57B307EB8707DFF8FCE11744A5
S21401EA60137854783EF813301079D1789B0003F16F
S21401EA70804303F5CA23002C1C6824F080441C60E4
S21401EA80947814BF4FF0804C4FF0000C240600F031
S21401EA90070004F0E06440EA0C00C900204301F0DE
S21401EAA0080105320143BA421960D9D195F84430BC
S21401EAB0CBB195F8461095F84730644895F845402F
S21401EAC0426809011B02C9B203F4E06322F47F62C3
S21401EAD0002C43EA010343EA020314BF4FF4006229
S21401EAE000221343436095F84830DBB1574895F848
S21401EAF04A20016995F84C7095F8493095F84B40D5
S21401EB0021F03F019200394302F00C021B010A4337
S21401EB10002C03F0300343EA020314BF0222002252
S21401EB201343036195F86030002B34D0474B95F8BA
S21401EB3061E01A6C95F8627095F8634095F8640088
S21401EB4095F8651022F001024EEA02021A641A6C68
S21401EB50002F14BF0227002722F002023A431A644C
S21401EB601A6C002C14BF0424002422F00402224351
S21401EB701A641A6C002814BF0820002022F008022C
S21401EB8002431A641A6C002922F0100214BF1021E5
S21401EB9000210A431A6495F850302BB105F1540050
S21401EBA007C82B4B83E8070095F86630FBB1274B67
S21401EBB095F868109A6E95F8677095F86A40002285
S21401EBC09A665868090320F4805001F48051014385
S21401EBD0596095F869205200002F02F00E0242EAB1
S21401EBE0040214BF4FF0805100210A439A6695F83B
S21401EBF07430002B3FF4AEAE164995F875208B782D
S21401EC0082F0010203F07F0343EAC213DBB28B708A
S21401EC1095F876300F491A0648BF20330A7948BF5F
S21401EC20DBB202F0E00203F01F03134330460B7120
S21401EC3021B0F0BDB04102000301000300E007402F
S21401EC4001010001381B00200040064000800440FE
S21401EC503C1B002000D00740C0400200687F05F141
S21401EC601001FEF7D1FE0646074600287FF493AE54
S21401EC7095F8280005F12001FFF75AF8804B5B69EB
S21401EC80DBB2042B064606D0802B00F0BE80012B9B
S21401EC907FF48EAE8AE605F13A0789E620A83A782F
S21401ECA000F87C2DB9787A788DF807308DF8061043
S21401ECB08DF80520FFF700FA064600287FF44AAED5
S21401ECC0A87BE91DFEF758FF0646A5E601230322A9
S21401ECD08DF80C000221DFF8B4E16A4C8DF80E5075
S21401ECE00C27062620208DF815508DF80F500D950F
S21401ECF08DF81C508DF824508DF81E508DF8285034
S21401ED008DF82F508DF829508DF82B508DF80B303B
S21401ED108DF80D308DF808308DF809308DF80A30F1
S21401ED208DF816308DF814308DF810308DF81130BE
S21401ED308DF838308DF825308DF81D308DF820305F
S21401ED408DF821308DF830308DF82C308DF82D303F
S21401ED508DF83D30CDF818E08DF81F108DF82A702B
S21401ED608DF83C208DF840508DF843508DF8485072
S21401ED708DF84D508DF84E508DF84F508DF85250FD
S21401ED808DF8515017958DF845108DF84B308DF84C
S21401ED9041208DF83F308DF83E308DF844308DF8A7
S21401EDA042208DF847308DF846208DF84C308DF88E
S21401EDB050308DF854308DF853308DF868308DF81A
S21401EDC069308DF86A308DF86B308DF86C308DF8BF
S21401EDD06D308DF873308DF858308DF849601E947B
S21401EDE01D90189519958DF870508DF871508DF805
S21401EDF072508DF87E508DF86E308DF86F308DF82C
S21401EE007C308DF87D3002AD94E505F13E07CFE507
S21401EE1020AC1D4B44F87C3D2046FFF74DF96B7F37
S21401EE200646002B3FF4DAAD01287FF4DCADCFE5D2
S21401EE30EB781BB301AC4FF0007320460193FFF74C
S21401EE403BF90646CFE5012005F13601FFF760F8EC
S21401EE5018B10646304621B0F0BD022005F13A0150
S21401EE60FFF756F80028F4D1032005F13E01FFF71D
S21401EE704FF800283FF4EBAD0646EBE7012669E5BF
S21401EE8000E00740FCD5FF1F0101020600127A00D0
S21401EE90112870B504460D4605D9232819D94D28E1
S21401EEA02CD9042070BD441E102C44D8DFE814F081
S21401EEB047004B004F005600640071007900960031
S21401EEC099009C00AB00BB00DB00CB00EC002F00E0
S21401EED0AC01A0F115040E2C13D8DFE814F048019C
S21401EEE041013A0130014F0116010301F7005E01AD
S21401EEF0590122011B012901EE00E600242840F0F9
S21401EF006B81002304200DB12B6070BD70BDA94B31
S21401EF10D3F80006C0F30060002840F09981A54BA5
S21401EF20D3F8043613F0070316D0013BD84005B1D9
S21401EF302860002070BD0020FFF782FBF7E7012064
S21401EF40FFF77EFBF3E70220FFF77AFBEFE79A4B2A
S21401EF505B68180500F170810020E8E7954BD3F84F
S21401EF600022D101F8D5D3F80822944B944812F028
S21401EF70010F18BF1846DAE78E4BD3F80023D201EB
S21401EF80EAD5D3F808338F4A03F0030352F8230077
S21401EF90CDE7884BD3F80031DE01DDD58A4B186802
S21401EFA0C5E7844BD3F80026D401D5D5D3F8002184
S21401EFB0D001D1D5844A11680029CDD0D3F80826CE
S21401EFC0D3F80836C3F30443C2F3022210330132E6
S21401EFD0B1FBF2F003FB00F04008A8E77B4B186892
S21401EFE0A5E7FFF7B1F9A2E7724BD3F80002C0F329
S21401EFF00060002840F023816E4BD3F8043213F0F2
S21401F000070392D1A8E76B4BD3F80002C0F3006068
S21401F010002840F00881674BD3F80432C3F302237B
S21401F020002B82D198E7634BD3F80003C0F300604E
S21401F030002840F010815F4BD3F8043313F0070328
S21401F0407FF473AF88E75B4BD3F80001C0F3006031
S21401F05008B15D4B1868574BD3F8043113F007031A
S21401F0607FF463AF78E7534BD3F80003C0F3006037
S21401F070002840F0F8804F4BD3F80433C3F3022343
S21401F080002B7FF452AF67E74A4BD3F80001C0F379
S21401F090006008B14C4B1868464BD3F80431C3F3F3
S21401F0A00223002B7FF441AF56E7434B1B6C13F052
S21401F0B0010308D14FF4807025E73F4B1B6CC3F367
S21401F0C04003002BF6D0002300201CE7404B9B7822
S21401F0D0D809F8D1384B1B6913F00103F4D04FF46B
S21401F0E07A7310E73A4B9B78DB09ECD1324A106908
S21401F0F0C0F38100022800F0D880032800F0D580F4
S21401F1000028E1D14FF4FA33FDE6FEF7BBFE0346D5
S21401F1100020F8E6284B1B6CC3F3C003002BC9D0B4
S21401F120D1E7254B1B6CC3F30013002BC2D0CAE7F3
S21401F130214B1B6CC3F38003002BBBD0C3E71E4BD4
S21401F140DB689B0F022BBED8224A002052F82330E0
S21401F150D9E6194BDB68C3F30173032BB3D0F3E78E
S21401F160154BDB68C3F38163032BACD0ECE7124B82
S21401F170DB68C3F30163032BA5D0E5E70E4B5B68A1
S21401F180C3F3C023002B9FD0FFF7ACF903469BE7E0
S21401F1900F4B9B78D80996D1B4E70D4B9B78D809CD
S21401F1A091D1054B1B69C3F34003002B8CD04FF460
S21401F1B0FA43A8E6004006400080044000127A00A8
S21401F1C080841E00B0410200341B0020381B002042
S21401F1D000D007403C1B002000F0F703332B3FF420
S21401F1E090AE39283FF48DAE40283FF48AAE4D28C4
S21401F1F03FF487AE4E4A4F4B32F8102053F8223078
S21401F20059005DD4002355E74B4BD3F80006C0F3F5
S21401F210006080BB484BD3F80436C3F30223002BAF
S21401F2207FF483AE98E6D3F80822444B444812F0A4
S21401F230010F18BF1846EEE6FFF754F977E6D3F844
S21401F24008223E4B3E4812F0010F18BF1846D3E67F
S21401F250FEF774FC63E6D3F808333A4A03F0030377
S21401F26052F82300E7E6D3F80833364A03F00303DF
S21401F27052F82300FFE6D3F80001C0F3006000282F
S21401F280C8D0314A10680028C4D0D3F80826D3F86D
S21401F2900836C3F30443C2F3022210330132B0FB33
S21401F2A0F2F003FB00F04008B4E71269C2F3400233
S21401F2B012B91346104626E618464FF4FA4322E6DC
S21401F2C0224B1E5CB20616D473061AD4300627D417
S21401F2D016F018033FF4F8AE310719D4F30691D5AA
S21401F2E020460121FFF738FA0346002B14BF002001
S21401F2F04FF4807007E60120FFF7A2F9002881D0BD
S21401F300E6E70020FFF79CF900283FF47BAFDFE734
S21401F31020460021FFF720FAF2060346E5D5DFE78F
S21401F3200220FFF78DF900283FF46CAFD0E700BF4D
S21401F330C0400200005006400040064000127A001D
S21401F34080841E00B0410200341B00206041020090
S21401F3500368DA0200D47047036823F000430360B1
S21401F360036823F080430360036823F0805303603F
S21401F3700368DB02FCD470470368002B06DB0368D6
S21401F38043F0004303600368DB02FCD5704700BF0F
S21401F39070B4036843F0007387B0044603602368C3
S21401F3A0C3F34063002BFAD11C4D95E807000C35DA
S21401F3B08DE8070095E8070006AE06E90700009D00
S21401F3C0019AAC4208BF039B9442029A08BF049B71
S21401F3D0944208BF059B990004F1800206D002EB17
S21401F3E00315002042F8040BAA42FBD104F508627B
S21401F3F033B113460A44002143F8041B9342FBD160
S21401F4006FF0604300214FF0FF3223616361A36117
S21401F410A162226307B070BC704700BF34FC0100D4
S21401F42070B40468260567D5D0F8005CC5F30145BD
S21401F43003350124AC400834E4B24FF40075A60845
S21401F440B5FBF4F4056805F07F05A94207D3036808
S21401F4509B004DD5436B4FF4407070BC70470568F8
S21401F460AD003ED4B1FBF4F504FB151406FB04F421
S21401F47004EBC51404F12001157900EB810100EBC2
S21401F4808400012D4FF00004C0F880404C6036D057
S21401F49095B9D0F88040264D24F4C004C0F88040C9
S21401F4A04C6824F0FF5424F4E0144C609B044C6830
S21401F4B01D4045EA04034B6013680F2B35D0D0F886
S21401F4C0803023F07063C0F880301368D0F8802055
S21401F4D01B0603F070631343C0F8803070BC002035
S21401F4E07047456BC5F303656D000735A942B9D86A
S21401F4F04FF4407070BC704704262024A2E7D0F871
S21401F500804044F40014C0F88040D0F8804024F4D1
S21401F5108004C0F880404C6804F060444C604C683D
S21401F52023F0604323434B60C6E7002095E700BF06
S21401F5300000FC1F0368C3F3C0230BB10120704712
S21401F540026842F000520260426B090622F07062C5
S21401F55001F0706111436FF06042416311468264AD
S21401F56003F508720133202B40F82210F8D1002051
S21401F570704700BF2DE9F04103681A0586B00446BE
S21401F5800D462BD5D0F8003CC3F3014303330126C7
S21401F5909E4006F1080E384B93E807000C338DE8C1
S21401F5A0070093E8070006AF07E90700009B019AEA
S21401F5B09C420CBF039B00239442029A08BF049B03
S21401F5C0944208BF059B1B01B3FBFEF3DBB2AB42C3
S21401F5D008D24FF4407006B0BDE8F0814FF0100E2F
S21401F5E00826D8E7226805F07F0322F07F0213433E
S21401F5F023602268C2F34078B8F1000F34D19DB37E
S21401F600083640464FF0010E4FF400774146236816
S21401F6101B052DD5D4F8003CC3F3014C0CF1030CAB
S21401F6200EFA0CFC0CF1080C5FFA8CFC4FEA9C03FA
S21401F630B7FBFCF2B8FBF2FC02FB1C824FEACC1CC7
S21401F64003FB02C3203304EB830244F8231002F1C8
S21401F65008035160324403F8011B9342FBD1013089
S21401F660C0B285428046D2D8002006B0BDE8F081FF
S21401F67004232022DEE700BF34FC0100036803F008
S21401F6807F038B4203D84FF440721046704710B484
S21401F690012301F01F041F2903FA04F310D83AB915
S21401F6A0816A5DF8044B21EA0303836210467047C2
S21401F6B0826A5DF8044B134300228362104670474A
S21401F6C0002210465DF8044B704700BF4AB1B1F501
S21401F6D0806F0BD0B1F5006F08D0436819434160C5
S21401F6E07047436823EA010141607047036843F4A9
S21401F6F0001303604368194341607047036823F0B1
S21401F70080530360036823F0804303600368DB01D2
S21401F710FCD47047036843F080430360036843F0FA
S21401F720805303600368DB01FCD57047032914D0BE
S21401F730042927D021B1012929D0022919D07047DF
S21401F740036823F400030360436823F0080343605F
S21401F750436823F4805343607047036843F0804353
S21401F7600360036843F0805303600368DB01FCD544
S21401F7707047436843F480534360436823F00803AB
S21401F78043607047036843F0004303607047436873
S21401F79043F008034360704703681B0507D5D0F89C
S21401F7A0003C23F4403343EA0141C0F8001C704793
S21401F7B00222002302610361704700BF4369DB0137
S21401F7C005D4036923F0010303610020704702207A
S21401F7D0704700BF036913F0010306D1426A22F0A5
S21401F7E001021143416218467047012318467047CB
S21401F7F010B421B144680123E4B2A3400B702AB1CE
S21401F80041680123C1F307218B4013705DF8044B57
S21401F810704700BF036913F001030CD130B40831FF
S21401F820446A01258D408A4024EA05010A43426262
S21401F83030BC1846704701231846704730B4046937
S21401F84014F001040ED1456A83F00103DB0643EA96
S21401F850826225F070631A4342EA016141622046E2
S21401F86030BC70470124204630BC70472DE9F04F6C
S21401F87083B004460090406A019310F0010066D000
S21401F880236913F0010C65D1DFF8D4B0E0464FF0E0
S21401F890FF3E4FF0070A4FF0FF095BF8046F4FF485
S21401F8A08070002509E07745204657D2BE469C4623
S21401F8B0A146C246431B012B0ED944196408A31C5A
S21401F8C006FB03F3B2FBF3F39942A1EB0307EAD27B
S21401F8D02546431B012BF0D808F10108B8F1080FA3
S21401F8E0DBD100990B69DF074FEA940408D44B6A11
S21401F8F0DE0705D50B6C23F07F4343EA04630B64F4
S21401F90000990B69DD0708D44B6AD80705D50B6C3F
S21401F91023F47F0343EA04430B6400990B69DA0777
S21401F92008D44B6ADB0705D50B6C23F47F4343EA07
S21401F93004240C64009A136C5FFA89F923F0FF0320
S21401F94049EA03031364019B6046C3F800A003B0B1
S21401F950BDE8F08F002003B0BDE8F08F2046A9E790
S21401F960BC4102002DE9F04F0E68D1F80CB04D7C79
S21401F9700C7C91F80BA091F80A9091F809800A7A0C
S21401F9808B7991F807C091F805E00F79013E46EAB8
S21401F990CB6646EAC57545EA847545EA0A6444EAD3
S21401F9A0C95444EA885141EA425141EA0C5242EABA
S21401F9B0C34242EA8E4343EA07430366BDE8F08F3B
S21401F9C010B5174B82B0197900208DF805008DF817
S21401F9D00400C9B11B680139C9B203EB81010446B1
S21401F9E0043B04E0022A16D101248B4208D053F8C6
S21401F9F0042F1278002AF5D18B424FF00100F6D180
S21401FA008DF805008DF80440064801A900F0CCF8F1
S21401FA10002002B010BD052A08BF0124E5E700BF9B
S21401FA20B413002000E00740144A036870B4DB0FEB
S21401FA3002F13405F3B912F8013F9B08AA4250F8C7
S21401FA4023304FEAD373F5D1A3B90D493F2611F8F8
S21401FA50013F9C0803F0030350F82420DB0006FA5C
S21401FA6003F322EA03038D4240F82430EFD100204D
S21401FA7070BC7047012070BC704700BFE0410200B7
S21401FA80DF41020030B4950802F0030250F8253039
S21401FA90D2003F24944023EA04039140194340F8DE
S21401FAA0251030BC704700BF890850F8213043F05C
S21401FAB0004340F8213070472DE9F041076805689A
S21401FAC0D0F80080C5F3C01504460E46FBF79CFE31
S21401FAD0002D5DD118F0200F5AD07289002A57D018
S21401FAE03378B17996F80C8096F805C096F804E05C
S21401FAF0F07827F413471B0203F44073002927F01C
S21401FB00670747EA03070CBF00254FF40045B8F125
S21401FB10000F14BF4FF4805300232F43BCF1000F96
S21401FB2047EA030514BF40230023BEF1000F45EA50
S21401FB3003070CBF002520253D4308B145F0040509
S21401FB4073780BB145F00205B3780BB145F00105AA
S21401FB502368980445F4C14520D44CF220536360D1
S21401FB604DF6281360686360636823681B05FCD53F
S21401FB702560A26009B13389E3602368C3F3C0231B
S21401FB80002BFAD11C46FBF733FE2046BDE8F08178
S21401FB900124FBF72DFE2046BDE8F081014B636092
S21401FBA06368E2E720C528D90B784978002B0BBF9C
S21401FBB08023A02300222022002908BF1346836049
S21401FBC0704700BF10B5431E0A44914204D011F895
S21401FBD0014B03F8014FF8E710BD814210B501EB68
S21401FBE0020301D3421E0BE09842FBD28118D21ABF
S21401FBF0D34204D013F8014D01F8014DF8E710BDCA
S21401FC00994204D011F8014B02F8014FF8E710BDF4
S21401FC1002440346934202D003F8011BFAE77047F9
S21401FC20034613F8012B002AFBD1181A0138704736
S21401FC3030313233004002400050024000B00240F2
S21401FC40200000001000000010000000000016C395
S21401FC50CD4C0BC39A9900C3CDCCEBC23333D6C27D
S21401FC60CDCCC0C26666ABC2000096C29A9980C26D
S21401FC70666656C29A992BC2666600C23333ABC11A
S21401FC8033332BC1000000000000000033332B414A
S21401FC903333AB41666600429A992B4266665642FA
S21401FCA09A998042000096426666AB42CDCCC0422D
S21401FCB03333D642CDCCEB429A990043CD4C0B431D
S21401FCC0000016430F0F000088FC01004CFC0100E9
S21401FCD0A8FE010000000000000000000000000077
S21401FCE0000000000000000000000000000000000E
S21401FCF000000000000000000000000000000000FE
S21401FD0000000000000000000000000000000000ED
S21401FD1000000000000000000000000000000000DD
S21401FD2000000000000000000000000000000000CD
S21401FD3000000000000000000000000000000000BD
S21401FD4000000000000000000000000000000000AD
S21401FD50000000000000000000000000000000009D
S21401FD60000000000000000000000000000000008D
S21401FD70000000000000000000000000000000007D
S21401FD80000000000000000000000000000000006D
S21401FD90000000000000000000000000000000005D
S21401FDA0000000000000000000000000000000004D
S21401FDB0000000000000000000000000000000003D
S21401FDC0000000000000000000000000000000002D
S21401FDD0000000000000000000000000000000001D
S21401FDE0000000000000000000000000000000000D
S21401FDF000000000000000000000000000000000FD
S21401FE0000000000000000000000000000000000EC
S21401FE1000000000000000000000000000000000DC
S21401FE2000000000000000000000000000000000CC
S21401FE3000000000000000000000000000000000BC
S21401FE4000000000000000000000000000000000AC
S21401FE50000000000000000000000000000000009C
S21401FE60000000000000000000000000000000008C
S21401FE70000000000000000000000000000000007C
S21401FE80000000000000000000000000000000006C
S21401FE9000000000000000000F0F000088FC0100B9
S21401FEA04CFC0100D4FC0100000000000000000032
S21401FEB0000000000000000000000000000000003C
S21401FEC0000000000000000000000000000000002C
S21401FED0000000000000000000000000000000001C
S21401FEE0000000000000000000000000000000000C
S21401FEF000000000000000000000000000000000FC
S21401FF0000000000000000000000000000000000EB
S21401FF1000000000000000000000000000000000DB
S21401FF2000000000000000000000000000000000CB
S21401FF3000000000000000000000000000000000BB
S21401FF4000000000000000000000000000000000AB
S21401FF50000000000000000000000000000000009B
S21401FF60000000000000000000000000000000008B
S21401FF70000000000000000000000000000000007B
S21401FF80000000000000000000000000000000006B
S21401FF90000000000000000000000000000000005B
S21401FFA0000000000000000000000000000000004B
S21401FFB0000000000000000000000000000000003B
S21401FFC0000000000000000000000000000000002B
S21401FFD0000000000000000000000000000000001B
S21401FFE0000000000000000000000000000000000B
S21401FFF000000000000000000000000000000000FB
S21402000000000000000000000000000000000000E9
S21402001000000000000000000000000000000000D9
S21402002000000000000000000000000000000000C9
S21402003000000000000000000000000000000000B9
S21402004000000000000000000000000000000000A9
S2140200500000000000000000000000000000000099
S2140200600000000000000000000000000B0A000074
S214020070E4000200A80002002401020000001E00A4
S2140200805A009600D2000E014A01000000001041FC
S2140200900000A040000096430000614403000000F8
S2140200A0DC020200E4020200FEDAF042FEDA7043EC
S2140200B03EA4B443FEDAF043DF8816443EA434443A
S2140200C09EBF5244FEDA70442F7B8744DF889644F4
S2140200D002000000DC0002008C00020000009643D2
S2140200E00000614400000C420000144200001C4262
S2140200F00000244200002C420000344200003C4231
S2140201000000444200004C420000544200005C42A0
S21402011002000000940002001C01020000001041D0
S2140201200000A040E2C96F432B734143E8D7164351
S2140201304CCDE3422464A3421D4F5142B868B941F4
S2140201400000000000000000000000002B7C7F433F
S2140201502F1750438B482443EDAEFC42B70CBB42EC
S214020160293480426D860F420AE5A5400000000051
S2140201700000000023978743E4B85E432FB0314364
S214020180DEB10A435A58D242080797427F213F42BD
S214020190B5729A4100000000000000001D708F43F7
S2140201A0A3586D4333103F4382F91643F657E9428C
S2140201B04C48AD42ED6D6C428968FF41ED45783F93
S2140201C00000000006499743B2F67B43B0694C43F1
S2140201D046312343380C0043A514C342E0FE8B424B
S2140201E072512E421903784100000000E1219F431C
S2140201F0A64985438FBD5943785B2F43E7510B438E
S2140202004D81D8429319A142CE375A429733E141E3
S21402021000000000AFFAA6434F978C438C0C67434E
S214020220F9793B4304811643649EED42B3A9B54275
S214020230230D82425E971E42F53A3B4173D3AE438C
S2140202406AE4934345577443528E4743BF9C214307
S214020250393C0143A6C8C942273796429D6F494298
S2140202602B04C4412CACB64307319B431ECF8043BC
S214020270CC995343B3A72C43B28C0B439489DD42EB
S214020280BBC2A94213FC714251B80F42DD84BE4381
S214020290347DA243F2708743779D5F4305A43743BC
S2140202A098C4154351FBF04269CDBC42D4638C42DC
S2140202B07DCF3942865DC643FEC8A9434D118E43A3
S2140202C03A9A6B43809342432BE71F43C714024379
S2140202D0476DCF427A189F42DA4F61428C0AF00A83
S2140202E06419000000000000000080410000A242E5
S2140202F0B0884E387CB1493D7CB1C93D1D45173E9C
S2140203007CB1493EDB1D7C3E1D45973E4C7BB03E94
S2140203107CB1C93EABE7E23E212E6F3D0055DC3D87
S2140203200F97203E2B03533ED3B7823EF2ED9B3E01
S2140203303924B53E5C5ACE3E8190E73E6763003F65
S2140203405014EF3DA1E8293E5F555C3E9C60873E17
S214020350E896A03EF7CCB93E5603D33E6B39EC3E48
S214020360C3B7023FF9520F3FC848333EC2A6653EA6
S214020370D8098C3EA33FA53EFD75BE3EFBABD73EDD
S21402038072E2F03E3D0C053F46A7113F8B421E3FF0
S21402039067076F3E72B2903E00E9A93EAA1EC33EB0
S2140203A01255DC3E008BF53EC760073FC5FB133F88
S2140203B0C996203F1C322D3F0363953E8291AE3E86
S2140203C029C8C73EB1FDE03E2734FA3E02B5093FD2
S2140203D05550163F4CEB223F4C862F3FAE213C3FFA
S2140203E05342B33E9370CC3E51A7E53EB8DCFE3E88
S2140203F09E090C3F85A4183FE43F253FD4DA313FDF
S214020400CE753E3F3F114B3FA321D13EA34FEA3E5E
S2140204103DC3013FDF5D0E3F28F91A3F0794273F91
S214020420722F343F5BCA403F51654D3FD1005A3F61
S214020430F300EF3E5A17043FD1B2103F634D1D3F03
S214020440B3E8293F8983363F001F433FE3B94F3F56
S214020450D4545C3F63F0683F2170063FE206133FC8
S21402046065A21F3FE63C2C3F3DD8383F0B73453F05
S2140204708E0E523F6AA95E3F57446B3FF4DF773FCA
S214020480C95F153F6BF6213FF9912E3F6A2C3B3F21
S214020490C8C7473F8E62543F1CFE603FF2986D3FCE
S2140204A0D9337A3FF4DF773F714F243FF3E5303F8D
S2140204B08D813D3FED1B4A3F52B7563F1052633F78
S2140204C0AAED6F3F7A887C3FD9337A3FF4DF773FD5
S2140204D0193F333F7BD53F3F22714C3F710B593F4B
S2140204E0DDA6653F9241723F6CBE7E3F7A887C3FB6
S2140204F0D9337A3FF4DF773FC12E423F03C54E3FE2
S214020500B6605B3FF4FA673F6796743F78167E3FA5
S2140205106CBE7E3F7A887C3FD9337A3FF4DF773FE2
S214020520691E513F8CB45D3F4A506A3F77EA763F78
S21402053045A27D3F78167E3F6CBE7E3F7A887C3F22
S214020540D9337A3FF4DF773F110E603F14A46C3F35
S214020550DE3F793F24767D3F45A27D3F78167E3F7B
S2140205606CBE7E3F7A887C3FD9337A3FF4DF773F92
S214020570B9FD6E3F9C937B3F788F7D3F24767D3F0F
S21402058045A27D3F78167E3F6CBE7E3F7A887C3FD2
S214020590D9337A3FF4DF773F61ED7D3F5FDE7D3F03
S2140205A0788F7D3F24767D3F45A27D3F78167E3F3D
S2140205B06CBE7E3F7A887C3FD9337A3FF4DF773F42
S2140205C068E2333819AB2F3D19ABAF3D53C0033E3B
S2140205D019AB2F3EE0955B3E53C0833EB6B5993EBF
S2140205E019ABAF3E7DA0C53E7751503DF0E6BF3D0C
S2140205F068DE0B3EF4C8373ED3B3633E3ECF873E3B
S214020600B6C49D3E0EBAB33E68AFC93EE6A4DF3E10
S214020610FB3AD03D29FC133E43E73F3E94D16B3E66
S21402062046DE8B3E8DD3A13E19C9B73E65BECD3E92
S214020630B8B3E33E4FA9F93E9D261C3EDB04483E76
S2140206401DF0733E1AED8F3EA2E2A53EDBD7BB3EFF
S2140206507CCDD13EBDC2E73E07B8FD3EDCD6093FA3
S214020660BD2F503E8C0D7C3E7CFC933E6BF1A93E2A
S214020670FFE6BF3E29DCD53EDFD1EB3E8AE3003FF4
S2140206802BDE0B3F10D9163F6E1C823E1F0B983E88
S214020690EA00AE3EBBF5C33E5CEBD93E77E0EF3EEA
S2140206A021EB023FB6E50D3F52E0183F45DB233F04
S2140206B0FE209C3E780FB23E5705C83E0BFADD3E42
S2140206C0B8EFF33E63F2043F53ED0F3FE2E71A3F03
S2140206D07AE2253F79DD303F8E25B63ED013CC3EFA
S2140206E0C509E23E5CFEF73E0AFA063F8AF4113F6F
S2140206F084EF1C3F0DEA273FA1E4323FAEDF3D3FC9
S2140207001E2AD03E2918E63E320EFC3E5601093F0E
S21402071039FC133FB1F61E3FB6F1293F39EC343FA0
S214020720C9E63F3FE2E14A3FAE2EEA3E410E003FB7
S21402073050090B3F7E03163F67FE203FD8F82B3F3B
S214020740E7F3363F65EE413FF1E84C3F17E4573F8B
S2140207509F19023F6D100D3F860B183FA605233FDB
S21402076095002E3F00FB383F19F6433F91F04E3F6F
S21402077018EB593F4BE6643FE71B0F3F9A121A3FAE
S214020780BD0D253FCE07303FC4023B3F27FD453F08
S2140207904AF8503FBCF25B3F40ED663F80E8713F4F
S2140207A02F1E1C3FC614273FF40F323FF7093D3F6A
S2140207B0F204483F4EFF523F7CFA5D3FE8F4683F42
S2140207C067EF733F8E2F7D3F7720293FF216343F27
S2140207D02B123F3F1F0C4A3F2007553F7501603FD3
S2140207E0ADFC6A3F14F7753FF4F07B3F8E2F7D3FDA
S2140207F0BE22363F1F19413F61144C3F470E573FFA
S2140208004E09623F9C036D3FDFFE773FDE037B3F70
S214020810F4F07B3F8E2F7D3F0625433F4B1B4E3F1A
S2140208209816593F6F10643F7D0B6F3FC3057A3FA2
S214020830328E7A3FDE037B3FF4F07B3F8E2F7D3F86
S2140208404E27503F781D5B3FCF18663F9712713F89
S214020850AB0D7C3FF68C7A3F328E7A3FDE037B3FCF
S214020860F4F07B3F8E2F7D3F96295D3FA41F683FA5
S214020870061B733FBF147E3F90E67A3FF68C7A3FA4
S214020880328E7A3FDE037B3FF4F07B3F8E2F7D3F36
S21402089081531F388C971B3D8C979B3D5163E93DD6
S2140208A08C971B3E6E7D423E5163693E9A24883E7B
S2140208B08C979B3E7D0AAF3EAC82383D6EF8A93DD2
S2140208C07DC4F73DEEC7223EE6AD493EB093703E8C
S2140208D0DCBC8B3EC32F9F3EADA2B23EB515C63ED4
S2140208E0C16EB83D8B12033EB7F8293E33DE503E4A
S2140208F041C4773EF9548F3E0FC8A23EEC3AB63E4C
S214020900CEADC93EEE20DD3E164E0A3EDF28313E13
S214020910300F583E78F47E3E4EED923E1A60A63E6A
S21402092042D3B93E1546CD3EF0B8E03E262CF43E04
S214020930CC64383E333F5F3ED412833E5F85963E9C
S2140209407BF8A93E3A6BBD3E75DED03E3E51E43E94
S21402095011C4F73EAF9B053F827B663EC4AA863E25
S214020960111E9A3E8190AD3EA903C13E5B76D43EEF
S214020970A8E9E73E675CFB3E9967073F4C21113FBB
S2140209801C498A3EEEB59D3E4D29B13EA49BC43E0F
S214020990D60ED83E7C81EB3EDBF4FE3EC833093FE2
S2140209A02AED123FE8A61C3F7654A13E18C1B43E7B
S2140209B08934C83EC6A6DB3E041AEF3E4E46013FC9
S2140209C007000B3F5CB9143FBB721E3F842C283FC6
S2140209D0D15FB83E42CCCB3EC63FDF3EE9B1F23EE7
S2140209E09912033FDFCB0C3FA185163FF13E203F15
S2140209F04CF8293F20B2333F2C6BCF3E6CD7E23EF9
S214020A00024BF63E86DE043F2F980E3F6F51183F8C
S214020A103A0B223F85C42B3FDC7D353FBC373F3F38
S214020A208776E63E96E2F93E1FAB063F1764103F16
S214020A30C61D1A3F00D7233FD4902D3F1A4A373F90
S214020A406D03413F59BD4A3FE281FD3EE076083FD5
S214020A50BD30123FA8E91B3F5DA3253F905C2F3FA8
S214020A606E16393FAECF423FFE884C3FF542563FA8
S214020A709E460A3F75FC133F5CB61D3F3A6F273F02
S214020A80F328313F20E23A3F079C443F43554E3F0E
S214020A908F0E583F91C8613F4CCC153F0A821F3FCC
S214020AA0FA3B293FCBF4323F8AAE3C3FB167463F22
S214020AB0A121503FD7DA593F1F94633F2D4E6D3F19
S214020AC0F951213F9F072B3F98C1343F5C7A3E3F46
S214020AD02134483F41ED513F3AA75B3F6C60653F8A
S214020AE0B0196F3FC9D3783FA7D72C3F348D363F16
S214020AF03647403FEDFF493FB8B9533FD2725D3F9C
S214020B00D42C673F00E6703F419F7A3FBCF4753FA6
S214020B10545D383FC912423FD4CC4B3F7F85553F88
S214020B204E3F5F3F62F8683F6DB2723F956B7C3F07
S214020B3072ED753FBCF4753F01E3433F5E984D3F4F
S214020B407352573F100B613FE5C46A3FF27D743F14
S214020B5007387E3FC175763F72ED753FBCF4753F30
S214020B60000000000000803F0000004000004040FF
S214020B70000080400000A0400000C0400000E040AE
S214020B8000000041000010410000320064009600A0
S214020B90C800FA002C015E019001C201F40126028F
S214020BA058028A02BC02EE022003520321AF013829
S214020BB00D4AFD3C0D4A7D3D8AF7BD3D0D4AFD3D81
S214020BC0484E1E3E8AF73D3ECBA05D3E0D4A7D3E18
S214020BD0A7798E3ED32E163D18598A3DD7ABC93D0E
S214020BE0037F043E5628243E83D1433EE37A633E87
S214020BF00A92813EA566913E583BA13E9D1E963DB9
S214020C00AD5FD53D54590A3E41022A3EA6AB493E47
S214020C10BF54693E1E7F843EAE53943E4328A43E94
S214020C2009FDB33ED125E13D2133103EBCDC2F3E0B
S214020C307F854F3EF62E6F3EFD6B873ECB40973E3E
S214020C405315A73EE1E9B63EBABEC63E8216163E2A
S214020C506BB6353E2460553EBE08753E23598A3E25
S214020C609B2D9A3E7702AA3EF7D6B93E7FABC93E87
S214020C706B80D93E1C9A3B3EB6395B3E8CE37A3E8D
S214020C80FE458D3ECB1A9D3E38EFAC3E24C4BC3E9C
S214020C909B98CC3E1D6DDC3E1C42EC3EB61D613E72
S214020CA0805E803E7A33903E9D07A03E73DCAF3E68
S214020CB0D6B0BF3ED085CF3E3F5ADF3EBC2EEF3E7B
S214020CC0CD03FF3EA850833E2520933E2EF5A23E3E
S214020CD03CC9B23E1B9EC23E7472D23E7D47E23E85
S214020CE0E41BF23E2DF8003FBFE2083F7512963E27
S214020CF0CAE1A53EE3B6B53EDB8AC53EC35FD53E36
S214020D001134E53E2A09F53EC46E023FFC580A3FFE
S214020D109743123F42D4A83E70A3B83E9778C83E87
S214020D207A4CD83E6B21E83EAFF5F73E6BE5033FC3
S214020D3096CF0B3FCBB9133F70A41B3F0F96BB3E1B
S214020D401565CB3E4B3ADB3E190EEB3E13E3FA3EFD
S214020D50A65B053F41460D3F6830153F9A1A1D3F78
S214020D604805253FDC57CE3EBA26DE3EFFFBED3E6B
S214020D70B9CFFD3E5DD2063F75BC0E3F18A7163FA3
S214020D803A911E3F697B263F21662E3FA819E13E17
S214020D905FE8F03EDA5E003FAC48083F3133103F72
S214020DA0441D183FEE07203F0DF2273F39DC2F3F48
S214020DB0F9C6373F75DBF33E02D5013FB4BF093FA4
S214020DC07BA9113F0594193F137E213FC468293F32
S214020DD0DF52313F083D393FD127413FA14E033F05
S214020DE0D5350B3F8E20133F4B0A1B3FD9F4223FCB
S214020DF0E2DE2A3F9BC9323FB1B33A3FD79D423F1C
S214020E00AA884A3F88AF0C3FA796143F68811C3FCA
S214020E101B6B243FAD552C3FB13F343F712A3C3FFC
S214020E208314443FA6FE4B3F82E9533F6E10163FA3
S214020E307AF71D3F42E2253FEACB2D3F81B6353F8A
S214020E407FA03D3F478B453F55754D3F755F553FEC
S214020E505B4A5D3F55711F3F4D58273F1C432F3F4E
S214020E60BA2C373F55173F3F4E01473F1EEC4E3FC9
S214020E7027D6563F44C05E3F33AB663F28791DB641
S214020E80A90151B88A2906B8FA7F6FB8432643B833
S214020E90CEB276B8BADA2BB88A7455B8E7F273B817
S214020EA03B4216B8825C5CB61A5C81BA66D9F9BA5D
S214020EB014FC3BBBB3B478BB76769BBBC995B9BB77
S214020EC0009ED8BB0090F7BBD1C40ABCEE9F8DB67D
S214020ED02730FCBAC0C077BB141DBABB672EF7BB5F
S214020EE0C37F1ABCEEE938BC8BC857BC0D9C76BCD7
S214020EF0B0798ABC9C11ADB61A823BBB674AB9BBB5
S214020F000F1E0BBC3A0139BC4B4467BC7C848ABCBE
S214020F100BA1A1BC0DB8B8BCF790CFBC4983CCB628
S214020F2021EC78BB6DB4F6BB942D39BC406B76BC15
S214020F306A049ABC0194B8BCD15DD7BC1422F6BC34
S214020F401F540ABDF6F4EBB6142B9BBB3A0F1ABC21
S214020F50183D67BCA3EA99BCAE66C0BC86A3E6BCD5
S214020F604B8D06BD0DC619BDC3DF2CBD52B305B7EA
S214020F7017E0B9BB3DC438BC4FA68ABCA79FB8BC15
S214020F80F2C8E6BC85590ABDAE6B21BD107B38BDE2
S214020F90676B4FBD296C15B71A95D8BB407957BCFD
S214020FA011AEA1BCAA54D7BC9B9506BD486121BD13
S214020FB0114A3CBD143057BD0AF771BDFF2425B750
S214020FC01D4AF7BB442E76BCD4B5B8BCAD09F6BCF8
S214020FD0BDC619BD0A6938BD742857BD17E575BD6B
S214020FE057418ABDD6DD34B790FF0ABCA3718ABCCE
S214020FF096BDCFBC585F0ABDDFF72CBDCD704FBD86
S214021000D70672BD0D4D8ABD29879BBDAD9644B7E6
S214021010125A1ABC25CC99BC59C5E6BCDAB919BD18
S214021020012940BD8F7866BD9D7286BD8FA799BD8A
S214021030FBCCACBD834F54B794B429BCA726A9BC3D
S2140210401BCDFDBC5C1429BD235A53BD52807DBD09
S214021050CEE193BD1002A9BDCD12BEBD5A0864B73B
S214021060150F39BC2881B8BC6F6A0ABDDD6E38BD63
S214021070458B66BD0A448ABD0051A1BD925CB8BDCF
S2140210809E58CFBD31C173B7976948BCAADBC7BCAF
S21402109050EE15BD5FC947BD67BC79BDEBC795BDB0
S2140210A031C0AEBD14B7C7BD709EE0BD04BD81B7EA
S2140210B019C457BC2C36D7BC317221BDE02357BDAC
S2140210C0C57686BDCD4BA1BD632FBCBD9511D7BDE0
S2140210D042E4F1BD6F9989B79A1E67BCAD90E6BC33
S2140210E012F62CBD627E66BD560F90BDAECFACBD6D
S2140210F0949EC9BD176CE6BD0A9501BEDA7591B716
S2140211001C7976BC2FEBF5BCF47938BDE4D875BDF6
S214021110E7A799BD8F53B8BDC50DD7BD99C6F5BD16
S214021120F3370ABE465299B7CFE982BCD8A202BDAF
S214021130D5FD43BDB39982BD7840A3BD70D7C3BD6C
S214021140F77CE4BD8D9002BE3A2B1FBE1D7663B6B9
S214021150FAF296B839CA41B8DFF8ACB8F7F08CB8EC
S214021160CD2BB2B8F03B78B880299AB86E2FB0B8BB
S214021170550A59B85E269FB65FDABABA587234BBB9
S21402118047C487BBF39EB3BBAA8EE0BB9F0806BCD0
S2140211901C721CBC8ECB32BCA07148BCAE91CCB6C5
S2140211A0C72236BBC4EEB2BB556A06BC118532BC3A
S2140211B0532A5FBC818C85BCF3D79BBC5F1BB2BC39
S2140211C01A05C8BCFEFCF9B62F6C87BB2ED205BC2E
S2140211D087F248BC549D85BCA806A7BCB314C8BCFD
S2140211E0D876E9BC7B6805BDB3E815BD27B413B74E
S2140211F0FBC6B3BBFA2C32BC5CBD85BC20F8B1BCC6
S2140212002778DEBC724E05BDDE8A1BBD47C331BDE4
S214021210D8CE47BDCE692AB7C721E0BBC5875EBC1C
S2140212207501A7BCEC52DEBCD3F40ABD8B9226BD78
S214021230515A42BD131E5EBDFDB479BD761F41B73D
S214021240493E06BC497185BC8E45C8BCDC5605BD08
S21402125092AD26BDA4D647BDC32969BD6F3C85BDE8
S21402126091CD95BD1ED557B7AF6B1CBCAF9E9BBC30
S214021270A789E9BC42841BBD526642BDBD1A69BD40
S2140212809BFC87BDD5699BBDA4C0AEBDC68A6EB7A2
S214021290159932BC14CCB1BCE06605BDA8B131BD0F
S2140212A0111F5EBD6B2F85BD54649BBD3B97B1BDC0
S2140212B0B7B3C7BD37A082B77BC648BC7AF9C7BCEE
S2140212C0EC0816BD0EDF47BDD0D779BD77D195BDE8
S2140212D00DCCAEBDA1C4C7BDC9A6E0BD0BFB8DB784
S2140212E0E1F35EBCE026DEBCF9AA26BD740C5EBD48
S2140212F048C88ABD8473A6BDC633C2BD07F2DDBD2B
S214021300C9A6E0BDDF5599B7472175BC4654F4BC63
S214021310054D37BDDA3974BDA8A498BD9015B7BD82
S2140213207F9BD5BD07F2DDBDC9A6E0BDB3B0A4B7AD
S21402133056A785BCD64005BD12EF47BDA03385BD76
S2140213400781A6BD8DA2CABD7F9BD5BD07F2DDBDB6
S214021350C9A6E0BD870BB0B709BE90BC895710BDC1
S2140213601E9158BD534A90BD13DAF9BD8DA2CABD6F
S2140213707F9BD5BD07F2DDBDC9A6E0BD5B66BBB7E8
S214021380BCD49BBC3C6E1BBD2B3369BDFCE60ABEBF
S21402139013DAF9BD8DA2CABD7F9BD5BD07F2DDBDAE
S2140213A0C9A6E0BD2EC1C6B76FEBA6BCEF8426BDAC
S2140213B037D90FBEFCE60ABE13DAF9BD8DA2CABD46
S2140213C07F9BD5BD07F2DDBDC9A6E0BD021CD2B724
S2140213D02202B2BCE9070DBE37D90FBEFCE60ABE32
S2140213E013DAF9BD8DA2CABD7F9BD5BD07F2DDBD5E
S2140213F0C9A6E0BDD676DDB790DC03BEE9070DBE12
S21402140037D90FBEFCE60ABE13DAF9BD8DA2CABDF5
S2140214107F9BD5BD07F2DDBDC9A6E0BD8D1C46B6D5
S214021420C97883B8E7C828B836A796B8B78275B819
S214021430692E9BB8343458B82D4586B8A27399B82D
S21402144000093DB84A9D8AB632BEA2BAC9291DBB5A
S214021450317F6CBBAB719CBB0895C3BB607AE9BBA2
S2140214605B4208BC8CB91BBC83942EBC4D2CB2B616
S2140214706BA21EBB37D89BBB9424EABB287C1BBC42
S214021480AB5E42BC2CA268BC16BC87BC19209BBCB7
S214021490FE35AEBC50BBD9B6BEE56BBB891BE9BBFD
S2140214A0C8042FBC7ABF68BC697991BC9443AEBCB1
S2140214B0FE56CBBC6B63E8BCDE9002BD2AA500B725
S2140214C088949CBB6E2F1BBC46F768BC66019BBC0F
S2140214D07DC3C1BC1236E8BCF37807BD5FD31ABD24
S2140214E0BC062EBDAC6C14B73236C3BB17D141BC9A
S2140214F0E27491BC10A3C1BC900DF2BC481411BD9D
S214021500674629BD087541BD9A7C59BD2D3428B75A
S214021510DBD7E9BBC17268BC216EAEBCB944E8BC7D
S214021520D22B11BD870D2EBDDB134BBDB11668BD88
S2140215303C7982BDAFFB3BB7C23C08BC358A87BC50
S2140215406067CBBC317307BDDC5029BDC6064BBDF8
S2140215504FE16CBD2D5C87BD2C3498BD31C34FB7AF
S214021560978D1BBC0ADB9ABC9F60E8BC06C41ABDFA
S214021570E67541BD050068BD625787BD02AD9ABDDE
S2140215801BEFADBDB28A63B76BDE2EBCDE2BAEBCE4
S214021590EFAC02BDDA142EBDEF9A59BDA27C82BD15
S2140215A01C3E98BDD7FDADBD0AAAC3BD345277B75F
S2140215B0402F42BCB37CC1BC8E2911BDAF6541BD74
S2140215C0F9BF71BD41F990BDD624A9BDAB4EC1BDD0
S2140215D0F964D9BDDB8C85B7158055BC87CDD4BCE4
S2140215E02EA61FBD84B654BD81F284BDE1759FBD93
S2140215F0900BBABD809FD4BDE91FEFBD9C708FB71C
S214021600E9D068BC5C1EE8BCCD222EBD580768BD7A
S214021610060591BD80F2ADBD4AF2CABD55F0E7BDE2
S214021620146B17BE5C5499B7BE217CBC316FFBBCF1
S2140216306D9F3CBD2D587BBD8B179DBD206FBCBDDD
S21402164004D9DBBDCA9E35BE146B17BE1D38A3B7C0
S21402165049B987BC036007BD0C1C4BBD815487BDCE
S214021660102AA9BDBFEBCABD031849BECA9E35BE25
S214021670146B17BEDE1BADB7B46191BC6D0811BD0D
S214021680AC9859BDEBFC90BD953CB5BDBE1052BEA4
S214021690031849BECA9E35BE146B17BE9FFFB6B767
